:020000041000EA
:1000000000B5324B212058609868022188439860DF
:10001000D860186158612E4B002199600221596106
:100020000121F02299502B49196001219960352056
:1000300000F044F80222904214D00621196600F024
:1000400034F8196E01211966002018661A6600F04E
:100050002CF8196E196E196E052000F02FF8012189
:100060000842F9D1002199601B49196000215960AB
:100070001A491B48016001219960EB211966A021F2
:10008000196600F012F800219960164914480160C1
:100090000121996001BC002800D000471248134993
:1000A000086003C880F30888084703B5996A0420EC
:1000B0000142FBD001200142F8D103BD02B5186610
:1000C0001866FFF7F2FF186E186E02BD00000240BE
:1000D000000000180000070000035F00212200005C
:1000E000F4000018222000A00001001008ED00E03C
:1000F00000000000000000000000000074B24E7A12
:1001000000200420F7010010C3010010C5010010F9
:10011000C1010010C1010010C1010010C101001097
:10012000C1010010C1010010C1010010C701001081
:10013000C1010010C1010010C9010010CB01001065
:10014000CD010010CD010010CD010010CD01001037
:10015000CD010010CD010010CD010010CD01001027
:10016000CD010010CD010010CD010010CD01001017
:10017000CD010010CD010010CD010010CD01001007
:10018000CD010010CD010010CD010010CD010010F7
:10019000CD010010CD010010CD010010CD010010E7
:1001A000CD010010CD010010CD010010CD010010D7
:1001B000CD010010CD010010CD010010CD010010C7
:1001C00000BE00BE00BE00BE00BE00BEEFF3058054
:1001D000103800BEF2EB8871305100104C51001005
:1001E0003802001090A31AE71E481F49086006C88D
:1001F00081F3088810471D480068002801D019487D
:10020000F3E70DA40ECC002902D000F012F8F9E7B4
:100210001749184A002000E001C19142FCD116495B
:100220008847164988471649884700BEFDE701C937
:1002300001C29A42FBD370474C510010C00000200D
:1002400048030020D45300100000042000000420C4
:10025000D4530010001004200010042000000000FF
:10026000704700000000000008ED00E0000000D032
:1002700048030020280C0220A11700104903001099
:1002800099170010F8B5C0460448054B10B58342D5
:1002900003D0044B002B00D0984710BD480300202A
:1002A000480300200000000006480749091A8B1087
:1002B000C90FC91810B5491003D0044B002B00D04A
:1002C000984710BD480300204803002000000000AC
:1002D00010B5074C2378002B09D1FFF7D5FF054B4C
:1002E000002B02D0044800E000BF0123237010BDA2
:1002F0000807002000000000E84F0010054B10B573
:10030000002B03D00449054800E000BFFFF7CCFFF5
:1003100010BDC046000000000C070020E84F001090
:1003200070B5D02501242D06002000F029F8FA2010
:100330006C6240006C6104F047F8FA20AC61400048
:1003400004F042F8F0E7C04600B5192083B000F091
:1003500017F8D02380221B0692045A6200230193CF
:1003600001338022044900930448002304F0A2F8DA
:1003700003F0FCFD03B000BDE84F001021030010A6
:100380000123D02283404021120693629361094ADF
:1003900083009A181268C0005140C0220A400649E2
:1003A0008C4663441A60054B9C46052360444360B9
:1003B0007047C04604C0014004D0014000400140E5
:1003C0000FB400B5084883B001F02EFB049B002B4E
:1003D00007D005A91800019101F0C4F9034801F004
:1003E00023FB012001F0D6F9F44F00100450001057
:1003F00010B50148FFF7E4FF0850001070B5EFF3A7
:10040000108C72B60D4D2B68002BFCD0BFF35F8FA4
:100410000724CB08C618C05C01230C40A3401C0075
:100420000440034207D103433370BFF35F8F2C6056
:100430008CF3108870BD1000FFF7C2FF2C0100D0B4
:10044000044A1078431CDBB2172B00D91023137019
:100450007047C046F002002010B50100024A034870
:10046000FFF7CCFF10BDC046185000102408002034
:100470000021044B044ABFF35F8F02C39342FAD1B9
:100480007047C046000100D0800100D0054B064AED
:100490001360064A136053609360D3601361536125
:1004A000936170478080808000E400E004E400E015
:1004B0001F2318401E3B8340002905D0C021044A59
:1004C0004900535013607047802201498B50FAE76E
:1004D00000E100E001228240034B1B6813405A1EDA
:1004E0009341D8B27047C04600E100E070B50D00FE
:1004F000EFF3108672B60F4A1368002BFCD0BFF3DF
:100500005F8F0D4B10309B6884001B590B4A934240
:1005100003D09D4201D000F02BFD074B9B681D517D
:10052000BFF35F8FBFF35F8F0022024B1A6086F329
:10053000108870BD240100D000ED00E0CD01001056
:1005400010B58308040003202040FF24054AC000A2
:100550009446844081409B0063441A68A2430A4346
:100560001A6010BD00E400E0024B9C466144890023
:100570000160704740000034F0B5C646164D174E76
:100580002C0000B5B54224D20023012798462368E9
:100590007F42002B11D0FFF753FF01002800FFF727
:1005A000E3FF434667602372BFF35F8F0C34B442AE
:1005B0000FD223682500002BEDD1FFF741FF01008A
:1005C0002800FFF7D1FF6760BFF35F8F0834B442A4
:1005D000EFD380BCB846F0BD3803002048030020AC
:1005E000F0B5DE4657464E464546E0B585B0EFF3DA
:1005F0000582032313409A0011000392B64A525811
:10060000904601229A409146B44B1A604B46B4483A
:100610004363434608229B5E9A46002B3DDA4346DD
:100620009B881BB2002B00DBA1E043469B79002B8B
:1006300000D0F3E0434608241C5F002C23DB424635
:100640005269630094461B19DB0063449C68DD68B3
:10065000631C00D10FE1A248039984466144826A79
:100660000B69A61A9B1A9E4215D34A46036A1A4280
:1006700011D09B4800F0D6FA241A8D41002D02DCDF
:10068000C4D1002CC2D040BF05B0F0BCBB46B246BE
:10069000A946A046F0BD0C61EBE7424652695B00FB
:1006A00093465344DB009B445B469E68DF6800F042
:1006B000B9FA801BB9410029B1DB002F00DAE5E06F
:1006C0005B46884A1B69934200D1D8E041465A46AE
:1006D0000820085E5288000410435A465169984722
:1006E00004000D0023002B4300D1CFE0002D00DBE0
:1006F000E8E0361BAF4134003D005B469C60DD60A6
:100700000021595E002900DA89E743465B6922002F
:100710009C462B0048004018C00060448668C768AB
:10072000921BBB41002B00DA79E743466646020084
:100730000094019519810CE07B00DB19DB00F318B4
:10074000009801999C68DD68001BA941002904DB21
:100750001A000023D75E002FEEDA5B461F80534657
:10076000138043469B881BB2002B00DA5DE74346AB
:100770001A69EFF3108172B61368002BFCD0BFF337
:100780005F8F43469B8842461BB29A4601235B42D9
:1007900093801369BFF35F8F00221A6081F3108882
:1007A0005346002B00DA40E743465B699C4608232A
:1007B00043449B4653465F0043465744FF0008228C
:1007C0009A5E67445E46BC68FD68002A19DB3B0000
:1007D0000094019567469C4604E01E000023F25EEB
:1007E000002A0BDB0098019953009B18DB00FB18D3
:1007F0009C68DD68001BA9410029EEDA6346BC460F
:100800001F005346338000217B5E3A809A46002BBE
:10081000D0DA43469B79002B00D10BE700234246F8
:100820009371434646460821595E08364B1C00D159
:1008300029E747468C46556902E006004B1C17D055
:100840004B005B18DB00E8180A00E95E43881BB226
:10085000002BF2DA01235B42DC178360C46062453F
:10086000ECD031803B89944603803A814B1CE7D120
:10087000B8466446E1E66B1C00D0ECE6F9E65B4660
:100880005C69200023699847002821D15B464246D5
:100890001B8813811269EFF3108372B61168002967
:1008A000FCD0BFF35F8F4246594652880A804246C9
:1008B000514651801269BFF35F8F0021116083F3AD
:1008C0001088ACE6064800F0ADF924184D4114E755
:1008D0006568246806E7C046600800203C70054053
:1008E00000400540E1050010074810B50268EFF32D
:1008F000108172B61368002BFCD0BFF35F8F01F03C
:1009000045FA0020002110BD200B002070B52E4CB0
:100910002569002D04D00A212C48FFF725FE70BD63
:100920002B4E0321300000F073F9E660FFF788FDDD
:10093000284B03229C46D02322701B061B680121F2
:100940006370254B6044A3600F2380002061022068
:10095000638063694942A180198002311986473159
:100960001D83585218315A5275325C3999521832D7
:10097000013199521832013199521832013199528C
:10098000083518329D52023118329952183201310D
:100990009952183201319952183201319952183254
:1009A000013199521832013199520C4B0C49DC60DB
:1009B00001303562FFF79AFD01210320FFF778FD32
:1009C000084B1D60A7E7C046F4020020200B002062
:1009D0000040054040000034FFFF10006008002088
:1009E000E10500103860054070B5C646010000B54D
:1009F0000469EFF3108C72B620680028FCD0BFF3B6
:100A00005F8F02200D5E48696C0080466419E40027
:100A10004444002D01DB208848800869BFF35F8FC4
:100A2000002606608CF31088002D30DBE3606388BD
:100A30000598013320615B0406985B0CA26060613D
:100A40001A1C002B21D090B22B04628018430A6933
:100A5000EFF3108672B61368002BFCD0BFF35F8FE4
:100A60008B8823808D800B69BFF35F8F00221A6013
:100A700086F310880B7801329A40CB6805498C4682
:100A800063441A6040BCB04670BD0122DBE7012020
:100A90004042F7E73C20000010B543890A14934216
:100AA00033DD53009B184269DB00944604696344BC
:100AB000EFF3108C72B62268002AFCD0BFF35F8F70
:100AC0005A88090494B2090C8A4208D00369BFF31A
:100AD0005F8F00221A608CF31088002010BD8022E6
:100AE000120214435C80012302698371BFF35F8F9C
:100AF000002111608CF31088054902788C469340E0
:100B0000C268012062441360E8E70020E6E7C046BF
:100B10003C200000F0B5CE46474680B504000D00ED
:100B200083B0EFF30587002F0DD0364A0020536ABB
:100B30008B4203D3926A0130A24250D303B0C0BCAF
:100B4000B946B046F0BD304B9846DB6899464346FF
:100B500048461E7800F066F80B004946020004364D
:100B6000B600715820008E1A2900801A99418F42D0
:100B700011DC0ED020BF234A0020536AAB42DDD3E4
:100B8000926A0130A242D9D2E81A421E9041C0B204
:100B9000D4E78642EED900F04DF822002B00121A5D
:100BA0008B41002B20DB00230193184B2200009384
:100BB00040462B00FFF718FF011E15DD114B2E00DC
:100BC0005A6A95421CD89B6AA34217D34046FFF746
:100BD00063FF0C4A0020536A9E42AFD8D0E7581AF0
:100BE000421E9041C0B2A9E7064A0020536AAB42B8
:100BF000A4D3926A0120A242A0D2C5E79542E5D1D2
:100C000020BFE3E700400540F4020020E90800109F
:100C100010B5024A0248FFF7F1FB10BD3850001032
:100C2000280800200300416A0A00986A596A8A422B
:100C3000FAD17047034B596A0A00986A596A91427F
:100C4000FAD1704700400540F8B5DE464E4657469B
:100C50004546E0B58B4605000A991800160000F0DD
:100C60007FFA0A9B6C001F02324B64199C46A40059
:100C70006444636881469F4200D967602B1FDBB2E2
:100C80009846012B30D9C02380229B01E318120122
:100C90001A60294BAD0059599A4600291BD1226888
:100CA00076017240E0268023164042465B01E3183D
:100CB0001E60012A30D9802380229B01E318120193
:100CC0001A6053464A4667605A51F0BCBB46B2466A
:100CD000A946A046F8BD586900F042FA431C5800E6
:100CE000C0180338FDD2DAE75B46012BCBD1C02315
:100CF00003229B01E3181A60023AA3681A42FCD04F
:100D0000E0232268760156401E4080230A4A5B0198
:100D10009246E3181E60AD005A46216851400322F6
:100D20000A401A6001225B469A40A3681A42FCD02E
:100D3000C1E7C046008000402C080020F0B54646C0
:100D40004F46D646C0B51F00344B44009C4624187D
:100D5000A4006444636888461600FF2B02D88023F1
:100D60005B006360031FDBB29A46012B30D9C023BE
:100D700080229B01E31812011A60294B8500595902
:100D8000994600291BD1226876017240E026802313
:100D9000164052465B01E3181E60012A30D98023B9
:100DA00080229B01E31812011A6080235B006360BC
:100DB0004B465F51E0BCBA46B146A846F0BD586903
:100DC00000F0CEF9431C5800C0180338FDD2DAE712
:100DD0004346012BCBD1C02303229B01E3181A60A9
:100DE000023AA3681A42FCD0E023226876015640FA
:100DF0001E4080230A4A5B019146E3181E6085006D
:100E000042462168514003220A401A6001234246AB
:100E10009340A2681342FCD0C1E7C0460080004066
:100E20002C080020014B8000C05870472C0800207F
:100E3000F8B5040020481D0017000E0000F090F9DE
:100E40000100380000F08CF9069B29041B031943AC
:100E50002368002B1EDB194B194DE21853425A41EF
:100E600080235B019C461203164B62441A60164BAA
:100E70001A6017002B689F43FBD1144B2660E218C1
:100E80002123A06013602368002BFCDA0823E160B3
:100E90001360F8BD3F2322681340B342DBD1A3683F
:100EA0001B051B0D8342D6D1EE22E368D20213400C
:100EB0008B42D0D1EDE7C046001BB7000040FDBF1C
:100EC00008C0004000E0004000F000400430000096
:100ED0008023024A9B000B43D36270470080054089
:100EE000142310B50100188804331B88984710BDDF
:100EF000162310B50100188802331B88984710BDCF
:100F0000F8B54746CE4680B50F1E19D01423994632
:100F1000043304000025012698464B4618884346B2
:100F200021681B88984701C4431E984101354042FF
:100F30000640AF42F1D13000C0BCB946B046F8BD62
:100F40000126F8E7AA23064A1B0113608D235B00E4
:100F5000D3600449044B19605368002BFCDA7047D6
:100F60000040024000B0FA00006002407047C046F6
:100F700010B50148FFF724FA5C50001070B5074D1A
:100F8000074EB54209D20024013E761BB60808CDB3
:100F9000984723000134B342F9D170BDA04F00102F
:100FA000DC4F001070B5074D074EB54209D2002442
:100FB000013E761BB60808CD984723000134B342A2
:100FC000F9D170BDD44F0010DC4F0010054B064A1C
:100FD00006491A60064A074B1A6010000B689843CE
:100FE000FBD1704700E00040BFCDFBFE08C00040D1
:100FF000FE7F3C0000F00040044BDB6C002B03D173
:101000008022034BD2021A607047C0460000115084
:101010004C201150044A054B1A60054A1368DB0145
:101020008033FBD17047C046FFFFFF0100F0004056
:1010300008C000404022034B9A675A671A67DA6675
:101040007047C04600F0014010B5FFF711FA10BD1F
:1010500070B5044D044C2800C022A16800F074FB58
:10106000A56070BD0000002000ED00E0002310B579
:10107000294C82B0A367FFF765FF0122274B1A6056
:10108000636C012BFCD10322254B1A60224A936B1F
:10109000012BFCD1013300930121224A2248043361
:1010A000FFF7C6FE052301210093204A2048FFF7E1
:1010B000BFFE0022022104201E4BFFF73FFE00224C
:1010C000012105201C4BFFF739FE002200210720DB
:1010D0001A4BFFF733FE002200210820174BFFF7C1
:1010E0002DFE8023DB000093002200210920134BFA
:1010F000FFF7AAFD0022104B00210620FFF71EFE7D
:101100000420FFF78FFE0E4900F02AF801000020AE
:10111000FFF7DEFE02B010BD008000403CB0004092
:1011200030B00040002F685900800240008C864794
:1011300000C00240001BB70040597307006CDC027E
:1011400040420F0001480421014B184710030020C2
:10115000010F0010014B5B681847000010030020CE
:10116000114A936F9B0813D210665166002905D06F
:10117000FFE7FFE7FFE7516F106F704704B50028E6
:1011800001D00020C04303F0FBFE002104BDC04697
:10119000F0B5146E556E576F166FFFF7E5FF1466C6
:1011A000556657671667F0BD000000D094464A4A5E
:1011B000926F9208624601D228E0C046F0B5464ED2
:1011C000346E756E776F366F00F020F89446424AA1
:1011D00014665566576716676246F0BD94463E4AE8
:1011E000926F9208624601D254E0C046F0B53A4E82
:1011F000346E756E776F366F00F04CF89446364A51
:1012000014665566576716676246F0BD002B24DBEF
:1012100011D000293EDA00B5C943404200D1013166
:1012200000F038F8C943404200D10131DB4352425B
:1012300000D1013300BD002AEBD1002801D10029E3
:1012400005D00020C90FC90701D1C043410800B52E
:1012500003F08EFE0022002300BD00B500290ADB4A
:10126000DB43524200D1013300F014F8C94340423D
:1012700000D1013100BDC943404200D10131DB43FF
:10128000524200D1013300F005F8DB43524200D155
:10129000013300BD002923D1002B18D1002A0CD026
:1012A000BC460D4F38667A6600210023FFE7FFE752
:1012B000FFE77A6F386F67467047002801D007480C
:1012C000010000B503F054FE0022002300BD02001F
:1012D0000B00002000217047000000D0FFFFFFFF3F
:1012E000002B00D0BFE0130C28D1002AE7D080B437
:1012F000114F39667A66FFE7FFE730B4040C7B6F65
:10130000396F1B0423433B667A66FFE7FFE7FFE77D
:10131000C04684B27B6F3D6F1B0423433B667A66F5
:10132000FFE7FFE7C04600232C042D0C7A6F386FCF
:1013300000196941B0BC7047000000D0F0B5944678
:101340000025140E01D112020835140F01D112012B
:101350000435940F01D192000235D40F01D152000F
:101360000135D40B0134254F7C66254C3C660E0CB0
:1013700093B2FFE7FFE7FFE73C6F6643360C770366
:10138000BE467343DF0B5B04C01AB941130C7343B1
:10139000DB18C91ACE086643360CB64493B27343C1
:1013A0001F0F1B01C01AB941130C73431F0B1B0500
:1013B000C01AB941860D8F023E436643360C092D93
:1013C00024DB520A7243801A7703460A6643360CBE
:1013D00016235B1BDE40DF40BF1964466643821B59
:1013E0007046043506330100D940A840C01900D327
:1013F0000131A24206D20023F0BD0000000000D05F
:10140000FFFFFFFF121B0130F3D3F1E709277F1B1A
:10141000FE406446A2B27243801A00D20139220C07
:101420007243130C1204821A99410B007046043562
:1014300013370100F940A840801900D30131002B77
:1014400002D1A2420AD2F0BD013000D30131121BF9
:10145000FAD2013BF8D1A24200D2F0BD013000D354
:101460000131121BF7E7F0B51C0C00D080E00CB482
:1014700000251C0A04D11B02160E33431202083544
:101480001C0B04D11B01160F3343120104359C0BB6
:1014900004D19B00960F334392000235DC0B02D13E
:1014A00092185B4101351C00971864410134464F86
:1014B0007C66464C3C660E0CFFE7FFE7FFE7C04644
:1014C0003C6F6643360C7703BE4697B27743C01B2A
:1014D00000D20139C01B00D201399FB27743C91B2A
:1014E000C91B170C77437E04FF0B801BB941CE0844
:1014F0006643360C0C2D33DBB644120B1F053A4302
:101500001B0B97B27743C01B00D201399FB27743C0
:10151000C91B170C77433E043F0C801BB941860D55
:101520008F023E43664329277F1BFE400C3D7746D2
:10153000AF40BF1930BCA2B2ABB272437343801A42
:101540009941220C7243130C1204801A9941020033
:101550000B000137001BA941F9D2781E0021F0BD14
:101560000C277F1BFE4077467F0BAF40FF19E0E75B
:1015700000245D1C07D0144F7D663966FFE7FFE746
:10158000FFE7FFE73C6F95B29EB265436643401BA1
:10159000B141150C1E0C6543664336042F0C3E43C7
:1015A0002D04401BB141994204D202000B002000DF
:1015B0000021F0BD01D19042F7D3801A9941013446
:1015C0009942F2D3F6E70000000000D0FFFFFFFFD2
:1015D000132370B51D78012D19D014DD1E48FFF7B7
:1015E00087FC06001D48FFF783FC1D4C802231005C
:1015F000200000F0A9F8022D06D01A48FFF770FC71
:10160000194B186070BD164C184BA364F5E7174BC7
:10161000134C23606360A360E36023616361A36193
:10162000E36123626362A362E36223636363A36390
:10163000E36323646364A364E36423656365A36570
:10164000E36523666366A366E36623676367A36750
:10165000E367A364D1E7C04653440000534600004B
:10166000C80400204C3300001C0B00207116001031
:1016700007B5604601880A0A0230DF2AFAD1C9B2EA
:10168000820804D3028840880004104300E0006808
:10169000014A5050039007BDC8040020132310B521
:1016A00012481C78FFF724FC0100012C0AD003DD4E
:1016B00080220F4800F048F80E48FFF711FC0E4B4F
:1016C000186010BD0A4C5422200000F03DF80B4B6E
:1016D0006365A365E36523666366A366E3662367C4
:1016E0006367A367E3672362E361E5E753460000AE
:1016F000C80500204C3300001C0B0020011700100F
:1017000007B5604601880A0A0230DF2AFAD1C9B259
:10171000820804D3028840880004104300E0006877
:10172000014A5050039007BDC8050020014804211C
:10173000014B184720030020010F0010014B1B68CC
:101740001847000020030020014B5B681847000089
:101750002003002010B5002800D110BD00F018F9BA
:10176000FBE7C04610B5094A0300146884B0002C9A
:1017700008D0012200910648524203A9A047012047
:1017800004B010BD00F050F90020F9E75C0800201B
:101790005517001000BEFDE710B5FFF7FBFFC04670
:1017A00070B5FFF7EBFB074D074EB54209D2002499
:1017B000013E761BB60808CD984723000134B3429A
:1017C000F9D170BDDC4F0010E84F0010030010B5D8
:1017D000080011001B68984710BDC046F0B546468A
:1017E0004F46D646C0B5437D80460E001700002BFD
:1017F00046D0002A3FDD4B1E9946244B012500248C
:1018000000209A460DE04B461B5D0D3B5A4253416A
:10181000325DDBB20A2A0BD02B00013401359F4226
:101820001ADD002CEFD14346325D1B7D0A2AF3D12D
:10183000002BF1D1A04204DA4346211A1B6830186C
:101840009847434650461B680221984701342800B8
:101850002B0001359F42E4DC874204DD4346391A00
:101860001B6830189847F619013E33780D3B5A42F1
:10187000534142461375E0BCBA46B146A846F0BD96
:101880000368110030009847F5E7C046F450001097
:10189000F0B5DE4657464E464546E0B585B01700E2
:1018A0001C0006000D00FFF7C5F90023314A12188D
:1018B0004B41002B59DB304908008A4603F068FB96
:1018C00001906B1C03D1300003F012FB0500002CCB
:1018D00026D12A4B98462A4B1C68002C15D0002F85
:1018E00021D1284F02E02469002C0ED02368002B60
:1018F000F9D03B68002B01D0A342F4D120002A008C
:101900003100C0472469002CF0D1019B002B28D165
:10191000280005B0F0BCBB46B246A946A046F0BDC3
:10192000194B9846D7E7174B994602ABDF1D0A23A0
:101930009B4602E02469002CE7D02368002BF9D0F5
:101940004B461B68002B01D0A342F3D12A00310083
:101950002000C0475B460122390020003B70C04791
:10196000E8E7504603F0FCFAD2E70122074B524267
:10197000A1E7C04640420F0040030020CD170010F1
:101980005408002058080020DD170010FFFFFF7FDB
:10199000F0B5CE46474680B583B06B460600DD1DE8
:1019A0002870FFF747F900231A4A12184B41002B01
:1019B0002BDB19490800884603F0EAFA174B8146E9
:1019C0001C68002C14D0164F02E02469002C0FD0A4
:1019D0002368002BF9D03B68002B01D0A342F4D13F
:1019E000200001222900FFF7F9FE2469002CEFD125
:1019F0004B46002B05D1300003B0C0BCB946B04601
:101A0000F0BD404603F0ACFAF5E70122054B524227
:101A1000CFE7C04640420F0040030020540800209A
:101A200058080020FFFFFF7F70B5040003F060FA44
:101A300001230100050001222000FFF729FF084BC8
:101A40001C68002C06D06368002B05D098472469D9
:101A5000002CF8D1280070BD2469002CF3D1F9E7DF
:101A60005408002010B5024800F004F810BDC0462C
:101A7000140B002030B5002589B004000922002194
:101A800001A80095FFF75AFE0922002105A8049538
:101A9000FFF754FE4B236A466846137004A90D22D3
:101AA00003F056FA1521082220006944FFF74CFE86
:101AB00009B030BD7047C0460000000000000000C3
:101AC0000BA10CC9126892009B581868203080F353
:101AD0000988022080F31488BFF36F8F3FBCAE46A5
:101AE00008BC04BC62B61847C046C046C046C046E3
:101AF000000000D070080020D0231B061A6DD2070A
:101B000004D501219A6D1A6D1142FBD1D023FF2219
:101B10001B061A658022024B52051A607047C046A8
:101B200004ED00E0000000000000000000000000E4
:101B3000EFF309811AA00CC8106880001B18186800
:101B400020390160F0C144464D4656465F46F0C11B
:101B5000146E556E566F176F3039F0C1106808B5A6
:101B600072B601F0AFFA62B60CBC116808681030AA
:101B7000F0C8A046A946B246BB4680F309880D22AC
:101B800012073038F0C81466556656671767F0C8F4
:101B90001847C046C046C046C046C046C046C046BC
:101BA000000000D07008002010B5EFF3108472B66A
:101BB00001F0E4FF02F03AFA002803D08022044B3F
:101BC00052051A6002F0E8FD84F3108810BDC0468B
:101BD00004ED00E010B5FEF70BFCC04610B5802404
:101BE000031F64041C60043B19600349043B196033
:101BF000143B40381A6010BDD51B00108022044BE6
:101C000052051A60BFF34F8FBFF36F8F7047C04606
:101C100004ED00E0D0231B061B6808499B005A58BE
:101C2000002A08D00020585005495B58BFF35F8F49
:101C3000106083F3108862B67047C0460C0B00201A
:101C40002C0B0220D02300221B065A657047C04689
:101C5000002310B5084A094C052023601360FFF7E4
:101C6000E1F8FA218900FFF77BFA054B013818608B
:101C70000723236010BDC04618E000E010E000E03C
:101C800014E000E070B5224B1A78D0231B061B68C5
:101C90009A4230D0FF231F4A1B0411680E200B43C9
:101CA00013601D4902F092FF0B201C4902F08EFFC9
:101CB000D023FF221B061A651A6DD20704D5012115
:101CC0009A6D1A6D1142FBD1D0252D062C68FF218B
:101CD0000F342000FEF734FC20001149FEF706FC0B
:101CE00001212000FEF7E4FBFFF7EAFE286801F07F
:101CF000E9F9FEF77DFBFFF7ABFFFF23054A1B0663
:101D000011680F200B431360064902F05FFFC1E723
:101D10003003002020ED00E0311B0010B51A001048
:101D2000F91A0010A91B001010B5EFF3108372B65A
:101D3000FFF7A8FF10B50E20FEF78EFB0F20FEF771
:101D40008BFB0022034B04481A7002F0ADFFFFF733
:101D500099FFC04630030020291D001010B50A4B22
:101D60001B78FF2B0CD0EFF30580002805D0D02383
:101D70001B061B684000C01810BD01F005FEFBE704
:101D8000D0231B061868F7E73003002000B51C4A73
:101D90000B00127883B0FF2A29D01A4902688C46BA
:101DA000022162449210FF319140090A40BF00684D
:101DB000BFF35F8F0022026083F31088EFF3058387
:101DC000DBB2002B05D1104B186800F04DF903B0C1
:101DD00000BD0D4B0192186801AA00F08DF9019B1E
:101DE000002BF4D08022094B52051A60EFE740BF68
:101DF0000268BFF35F8F0021116083F31088E6E76C
:101E00003003002000FFFF2F9C0B022004ED00E0B8
:101E1000F0B51D00314B07001B780E00140083B095
:101E2000FF2B4ED0FEF706FF22002B00121A8B412B
:101E300001212B48494280185941002921DC1CD03E
:101E40003B68BFF35F8F00221A6086F31088254B32
:101E50005A6A95420AD98022234B52051A60BFF371
:101E60004F8FBFF36F8F002003B0F0BD9B6A01203E
:101E7000A342F9D29542F7D1EDE7FA239B009842AD
:101E8000DED3FA2200239200FFF790F9031ED7D089
:101E9000D0221206116815483A6889000A50144881
:101EA0000E5014498C46022162449210FF31914039
:101EB000114A090A106800930122002300F078F803
:101EC000C5E70368BFF35F8F00221A6081F31088B3
:101ED00020002900FEF71EFEC6E7C04630030020A2
:101EE00018FCFFFF0040054004ED00E00C0B002053
:101EF0002C0B022000FFFF2F9C0B022010B500F0DE
:101F00004BF8014B186010BD9C0B0220F8B5DE4663
:101F100057464E464546E0B505000F00060001F065
:101F200047F829682C6939430C362960A6422AD023
:101F3000002398468023DB049B4680235B049A465B
:101F400080239B0499460EE00B420AD057463A4242
:101F500002D042461A4390464B46194302F06CFAAF
:101F60002968A6420DD020005F460268646813020B
:101F70001B0A3A42E8D01F000F40BB42E6D0A642FF
:101F8000F1D143469943296002F012FAF0BCBB46F6
:101F9000B246A946A046F8BD10B51C2002F0AAFE24
:101FA000041E03D0002308C000F0B0F8200010BDCC
:101FB000F0B5C646060000B50D0090461F0000F0C3
:101FC000F7FF3468002F0AD125420CD04346002B7E
:101FD0000CD02300AB43336002F0EAF908E02B0099
:101FE00023409D42F2D0069B002B05D102F0E0F980
:101FF000200080BCB846F0BD4346002B16D180219E
:102000000023C904002F00D11900069A2943301D6E
:1020100001F070FA02F0CCF900281CD002F0D6FBD7
:102020000400830107D52402240AE1E7A0218023CC
:10203000C9045B04E6E701F0A1FD3468002F0DD16F
:102040002C4205D04346002B02D02300AB43336023
:1020500002F0A2FBE7E701F077FDDFE723002B406A
:102060009D42F5D1EEE7C046F8B5DE4657464E46EE
:102070004546E0B505000F00060000F099FF29680D
:102080002C6939430C362960A6422AD00023984691
:102090008023DB049B4680235B049A4680239B04B9
:1020A00099460EE019420AD057463A4202D04246BB
:1020B0001A4390464B46194302F0BEF92968A642DE
:1020C0000DD020005F460268646813021B0A3A4282
:1020D000E8D00F001F409F42E6D0A642F1D1434610
:1020E0009943296002F064F92868F0BCBB46B24607
:1020F000A946A046F8BDC04610B513000A0001006D
:10210000014802F04FFD10BD0D1F00100300083301
:1021100001224360C3600361002352428260036076
:102120007047C046002303617047C04643689A6801
:102130004B608A609A685160996003680861013356
:1021400003607047030030B50C680833621C0DD083
:102150001A005B681D68A542FAD94B609960036854
:102160008A60013351600861036030BD02695368C1
:10217000F3E7C0460369416882688A605160596824
:10218000814206D0002202611A68013A1A6018687A
:1021900070475A60F6E7C046F0B5DE464E465746F1
:1021A0004546E0B585B0060001F0E8FC4523F45C47
:1021B00064B2002C21DD213B994621339A46B1447B
:1021C00009E0AB6BEA6B0396934245D3013CE3B263
:1021D00064B2002B11D0B56C002DF2D1736A002BC4
:1021E0000BD0484601F02AFA0028EFD001F0C2FBDC
:1021F000013CE3B264B2002BEDD14523FF22F2543F
:1022000002F0CAFA01F0BAFC4423F45C64B2002C78
:1022100016DD3500103504E0013CE2B264B2002A5C
:102220000ED03369002B0BD0280001F007FA0028EC
:10223000F2D0013C01F09EFBE2B264B2002AF0D180
:102240004423FF22F25402F0A7FA05B0F0BCBB46CB
:10225000B246A946A046F0BD53462A6CEF5CAB6B74
:102260007FB29846002A14D12B680193002B2BD003
:1022700000239B4643460133AB637B1C18D0534677
:1022800001377FB2EF545B46002B9FD001F072FB09
:10229000AEE7686803A9FFF757FA2A6C6B689446A3
:1022A000AA6863446B609342E2D32B686B60DFE7FC
:1022B0006B6A002BE7D02800243001F0BFF900281A
:1022C000E1D001F057FB93E7A86801F011FC019BF6
:1022D0008346AB60CEE7C046F0B5C64600B5846C19
:1022E00082B0A36BE26B00260190934204D33000CE
:1022F00002B080BCB846F0BD4523226CE55CA76BFC
:102300006DB2002A16D0606801A9FFF71DFA226C91
:1023100063689446A2686344636093420ED3236863
:1023200063600137A7636B1C0DD0452301356DB287
:10233000E554DCE723689846002B0FD001370026D0
:10234000A7636B1CF1D1636A002BD0D0200024302E
:1023500001F074F90028CAD00126C8E7A06801F08E
:10236000C7FB43460600A360DBE7C046F8B506009E
:102370000800704354300D00170002F0BBFC041E2F
:1023800025D00300002D24D123602564E66301F0ED
:10239000F5FB226CE36B21685343C8189B1ACB18DA
:1023A000E3600025FF234422A06020006160A56354
:1023B000A3540132A3541030FFF7A8FE20002430AC
:1023C000FFF7A4FE02F0E8F95023E754A5642000CB
:1023D000F8BD5433D8E7C046F0B5CE4647460400B2
:1023E0001E00002380B585B099460192884601F011
:1023F000C5FBA36BE26B00274425934237D3022E23
:1024000072D0019B002B00D18AE0002F68D002F02F
:10241000C3F900F0CDFD01F0B1FB625D52B2531C77
:1024200001D14B4663554523E25C52B2013201D1E2
:102430004A46E25402F0B0F901A902A801F0AAF953
:10244000002800D074E001F099FBA36BE26B93428B
:1024500034D002F0A1F92000FFF79EFE01F0A8FFA2
:10246000012701F08BFBA36BE26B9342C7D2226C76
:10247000A76BA56B002A3CD04146002E00D084E01B
:102480006068FFF761F9226C63689446A268634450
:102490006360934201D323686360A36C0135A56335
:1024A000002B34D1636A002B36D02000243001F099
:1024B000C5F8002830D001F047FB2DE002F06CF9A0
:1024C00020000199103000F0A5FF2000FFF764FE06
:1024D00001F06EFF0028C3D101F036FB0127C0E7F1
:1024E00002A801F04BF992E7226CA76BA56B002ABA
:1024F00025D1236800209846002B40D0A36C0135DD
:10250000A563002B35D0022E01D1002F04D120006D
:10251000FFF7E2FE0028CED102F03EF9012002E0F2
:1025200002F03AF9002005B0C0BCB946B046F0BD93
:102530002000FFF731FE01F03BFF0020F3E74146AA
:10254000E068FFF701F9E168236C5A42CB1A216871
:10255000E3608B4205D2A3689C466244E260022E8F
:102560009BD1002D00D10135A36CA563002BCCD1EC
:1025700098E7636A002B98D100289CD1CCE7A0682B
:1025800001F0B6FA4346A360B8E7E068FFF7DCF86D
:10259000E168236C5A42CB1A2168E3608B42DED299
:1025A000D9E7C046F8B54E464546DE4657460400D4
:1025B000E0B5884691461D00EFF3108772B601F032
:1025C000DDFAA36BE26B934226D3022D0BD00024DD
:1025D00002F0E2F887F310882000F0BCBB46B24658
:1025E000A946A046F8BD4523E65CA36B226C9B463A
:1025F000A36B76B29A46002A29D123689846002B0D
:1026000061D053460133A363731C37D04523013691
:1026100076B2E6540124DBE74523E65CA36B226C2B
:102620009B46A36B76B29A46002AE6D0002D0ED1C7
:1026300041466068FFF788F8226C63689446A26898
:10264000634463609342DCD323686360D9E7414607
:10265000E068FFF779F8E168236C5A42CB1A2168E9
:10266000E3608B4203D2A3689C466244E260534617
:10267000022D24D00133A363731CC7D1A36C002B9C
:1026800013D0022D04D15B46002B01D001249FE71B
:102690002000FFF721FE0028F8D04B46002BF5D094
:1026A00001234A460124136092E7636A002BEDD0B0
:1026B0002000243000F0C2FF0028EED1E6E7002B16
:1026C000A1D10133D7E7A06801F012FA4346A36015
:1026D0005346013397E7C046F0B54746CE4604005F
:1026E00080B585B08846019201F048FAA76B002FAB
:1026F0005ED1019B002B3BD002A801F03FF80023E4
:1027000044269946452502F047F800F051FC01F0B7
:1027100035FAA35D5BB2013301D14B46A355635D2E
:102720005BB2013301D14B46635502F035F801A984
:1027300002A801F02FF8002822D101F01FFAA36BA4
:10274000002B2AD102F028F820000199243000F053
:1027500061FE2000FFF720FD01F02AFE002824D0B2
:1027600001F00CFAA76B002F22D1019B002BCAD1DC
:1027700002F012F8002005B0C0BCB946B046F0BD6A
:102780002000FFF709FD01F013FE01F0F7F9A36B3C
:10279000002BEDD002F000F8E2E701F0FDFF200091
:1027A000FFF7FAFC01F004FEDAE701F0CDF9D7E714
:1027B000226C002A08D0E3689918A368E160994266
:1027C0000BD24046FEF7C0FF013FA7632369002BF1
:1027D00006D101F0E1FF0120CDE72168E160F0E7DB
:1027E0002000103000F02AFF0028F2D001F0ACF9F0
:1027F000EFE7C046164B1A68002A15D09A68002ADF
:1028000018D01A69002A17D09A69002A16D01A6AB5
:10281000002A15D09A6A002A14D01A6B002A13D005
:102820009A6B002A12D070470022D20099509B1850
:102830005860F8E70122F8E70222F6E70322F4E7FE
:102840000422F2E70522F0E70622EEE70732ECE782
:10285000C806002070B5040016000D0001F08EF9C6
:102860004422A35C5BB2013301D10023A35445226F
:10287000A35C5BB2013301D10023A35401F08CFFB0
:10288000A36B002B03D02000FFF786FC70BD200057
:1028900032002900243000F051FEF4E710B5FFF7B4
:1028A000ADF9034C2368022BFCD9FFF7A7F9F9E730
:1028B0008C080020F0B5C646304B00B504008846B1
:1028C0001E68EFF3108172B6D0273F063B682C4D8F
:1028D0009B00EA5881F310887D230021D154EFF347
:1028E000108272B63B689B00E85882F3108808306B
:1028F000FFF740FC631C30D03419EFF3108172B63F
:10290000D022120613689B00EB5881F310889C605C
:10291000A64214D81B4B1868EFF3108672B61368E2
:102920009B00E95886F310880831FFF70BFC164B23
:102930001A68A24200D91C6080BCB846F0BD134B97
:102940001868EFF3108472B613689B00E95884F39B
:1029500010880831FFF7F6FBEEE74346002BCBD09B
:10296000EFF3108272B63B689B00E95882F310883F
:1029700007480831FFF7DAFBDEE7C046100C0220FB
:10298000700800207C080020B40B0220840800207E
:10299000E80B022010B5EFF3108C72B6D0210906B7
:1029A0000B68274A9B0098588CF31088036D013BF5
:1029B0000365EFF3108072B609688B009B5880F3B3
:1029C00010881B6D002B36D11E4A1378013BDBB2F9
:1029D0001370002B08D101201B4C635C83436354AC
:1029E000BFF35F8F194B1860EFF30583DBB2002B49
:1029F00021D1D0231B0619685378013BDBB25370F9
:102A0000002B09D10220104A535C83435354BFF377
:102A10005F8F01220E4B1A60FFF7FCF8EFF3108274
:102A200072B6D0231B061B680A499B005B5882F3D1
:102A30001088002B00D110BDFFF7E0F8FBE7C0467F
:102A400070080020280B0220240B0220380100D03F
:102A50003C0100D01C0C0220F8B5D0235746DE46BE
:102A600045464E461B061B68584A9B00D358E0B5A6
:102A70009846574B574F9A46574B9B4659E042460C
:102A80001365D023524D1B061A682B78524C013B1C
:102A9000DBB22B70002B07D10121A35C8B43A35425
:102AA000BFF35F8F4D4B1960D0231B061A686B78FC
:102AB000013BDBB26B70002B08D10221A35C8B437E
:102AC000A354BFF35F8F0122454B1A60FFF7A2F8B2
:102AD000EFF3108372B6D0231B061A68404B1968B7
:102AE00000294ED0BFF35F8F012302216B70A35CDE
:102AF0000B43A354D0231B061A68384B19680029CE
:102B000038D0BFF35F8F012301212B70A35C0B43EF
:102B1000A354EFF3108172B6D022120613682B482B
:102B20009B00C35881F310881E654B463B60002E06
:102B300034D043469B6B02332AD143461E6D3B681B
:102B4000994600233B60002E99D1D02355461B06A1
:102B50001A686B785C46013BDBB26B70002BB5D119
:102B60000221A35C8B43A354BFF35F8F01221C4B54
:102B70001A60ABE7A15CC90720D419680029C0D14D
:102B8000FBE7A15C89071DD419680029AAD1FBE7DE
:102B9000F0BCBB46B246A946A046F8BD2B781268E9
:102BA000013BDBB22B70002BC3D10121A35C8B4313
:102BB000A354BFF35F8F094B1960BAE72B78013339
:102BC0002B70A6E76B7801336B7093E770080020D9
:102BD000280B02203C0B0220240B0220380100D0DD
:102BE0003C0100D070B5EFF3108472B6D023364AA2
:102BF0001B0618681368002B45D0344BBFF35F8F5A
:102C000001210225324A5170195C29431954D025FB
:102C100030492D060E682868002E3CD0BFF35F8F28
:102C2000012101251170195C294319542A490025F5
:102C3000086801300860D020000600681570012582
:102C40001A5CAA431A54BFF35F8F224B1D600B68B6
:102C5000012B02D084F3108870BDEFF3108272B69E
:102C6000D0231B061B681D499B005B5882F310880C
:102C70001B6D002BEED1EFF30583DBB2002BE9D106
:102C8000FFF7EAFEE6E7114B195C89070AD41168E1
:102C90000029B3D1FBE71E5CF60708D40D68002DB0
:102CA000BCD1FBE70A4A517801315170AFE7167881
:102CB000711C117008490868013008602868167096
:102CC000002EC4D1BBE7C0463C0100D0240B02203B
:102CD000280B0220380100D03C0B02207008002095
:102CE000F8B5DE4657464E464546E0B5FEF786FF48
:102CF0006C4BD0279B466C4B6C4E99466C4B6D4C85
:102D00009A466D4B3F0698462368002B6FD0EFF331
:102D1000108372B63368002B3AD0EFF3108172B68D
:102D200058463B689A00825881F31088126D002A39
:102D300012D1EFF30582D2B2002A67D05F4A12683F
:102D4000002A77D0BFF35F8F01215D4A11705D4A81
:102D5000D25C0A435B49CA54EFF3108172B65A46FB
:102D60003B689B00D25881F31088136D01331365C3
:102D70004B461B68002B0BD1EFF3108272B65946FD
:102D80003B689B00CB5882F310881B6D012B35D01C
:102D90002368002B17D05346DB68DD68AB6B01332B
:102DA00053D128000830FFF7E5F9434642461B6837
:102DB000686B013B13602368013B236002F050F80D
:102DC000280002F04DF83368002B9DD0EFF31082FD
:102DD00072B659463B689B00CB5882F310881B6D36
:102DE000002B91D0FFF7D6FD2368002B8FD1364BF7
:102DF0001B68022B88D9FEF701FF85E7EFF30583F7
:102E0000DBB2002BC4D1FFF727FEC1E72F4A1168C0
:102E1000002937D0BFF35F8F0121294A5170022169
:102E2000284AD25C0A432749CA54244A3B6812689C
:102E3000002A87D10121234AD25C11421CD11F4AAA
:102E40001268002A00D07DE7F9E73368002BCED066
:102E5000EFF3108272B659463B689B00CB5882F361
:102E600010881B6D002BC2D0FFF794FD164B1B681A
:102E7000022B00D848E7BEE7114B114A1B780133FB
:102E8000137069E70F49C95C890703D411680029E9
:102E9000C0D1FBE70A4B0A4A5B78013353703B68A9
:102EA0004CE7C046700800203C0B0220DC0B0220DF
:102EB000FC0B0220380B0220340B0220380100D01A
:102EC000280B0220240B02208C0800203C0100D09B
:102ED0004A425141F8B5344C036B26682568226894
:102EE0005B1A926B012A06D9656866686268926B04
:102EF000012A14D9F8BD2D4A11680029F4D1376B85
:102F0000ED6B7F1BBB42EFDB4568ED07ECD56568D9
:102F1000666863689B6B012B3CD9002010E0234A54
:102F200051680029E6D1012149428C46296BF56B95
:102F3000491B99421BDD6346012BDBD80021002091
:102F4000EFF30583DBB2002B17D0D0231B061B68E1
:102F5000834225D08D0063599B6B0233CAD0080091
:102F6000FEF770FE0222635952429A63C2E7436839
:102F70009B07E0D501210120E2E78D0063599B6B9F
:102F80000233B7D0D0231B061B688342E7D101234D
:102F90005351AFE753689C46002BBED13B00C5E7B9
:102FA000012389005350A5E7700800201C0C022063
:102FB0003A4B70B51B68002B00D170BDEFF3108445
:102FC00072B6D023364A1B0618681368002B45D00A
:102FD000344BBFF35F8F01210225334A5170195CD6
:102FE00029431954D02531492D060E682868002E32
:102FF0003CD0BFF35F8F012101251170195C29437B
:1030000019542B490025086801300860D0200006BB
:103010000068157001251A5CAA431A54BFF35F8F2C
:10302000224B1D600B68012B02D084F31088C4E78B
:10303000EFF3108272B6D0231B061B681D499B005C
:103040005B5882F310881B6D002BEED1EFF30583E4
:10305000DBB2002BE9D1FFF7FFFCE6E7114B195C6F
:1030600089070AD411680029B3D1FBE71E5CF60773
:1030700008D40D68002DBCD1FBE70B4A5178013113
:103080005170AFE71678711C11700949086801305A
:10309000086028681670002EC4D1BBE7DC0B022044
:1030A0003C0100D0240B0220280B0220380100D064
:1030B0003C0B022070080020014B18687047C04686
:1030C000100C0220F0B5DE4657464E464546D0234A
:1030D000E0B51B061A68C64B83B019680190002939
:1030E00000D102E1C34B9A46BFF35F8FC24B9946B2
:1030F000012349464B70534602219B5C0B435146CA
:103100008B54D0231B061A68BC4B1968002900D1C8
:10311000E2E0BFF35F8F012349460B705346012164
:103120009B5C0B4351468B54B54B1B68002B36D030
:103130000122019B9800B34BC250D0231B061A6892
:103140004B4649461B78013BDBB20B70002B09D183
:103150005346012150469B5C8B438354BFF35F8FE2
:10316000A64B1960D0231B061A684B4649465B786C
:10317000013BDBB24B70002B0AD1534602219B5C12
:103180008B4351468B54BFF35F8F0122984B1A60DB
:1031900003B0F0BCBB46B246A946A046F0BD019ABA
:1031A00099499700974A9948D3510B689A009C46D1
:1031B000D3189B00C358002B0CD163460A68013B0F
:1031C000013A0A609A00914CD018800020580028DB
:1031D000F4D09C46012301998D4E8B4018008B4BF7
:1031E00062449B46984692009344083242445B46B0
:1031F0005B689C68944268D0030000972000984662
:1032000005E0009971588B4230D084423FD0646809
:10321000944229D0E3689D6B691CF2D147465968F6
:103220003942F2D0009F0199F25920009563F2597A
:103230009963F3510092FEF79DFF21005846FEF777
:1032400075FF009A002A0BD0704811008446126B5B
:10325000896993009B189B006344019199424ED069
:10326000D0231B061A686BE76468D3E745465968A4
:103270002942CAD0019A20009A63FEF77BFF210001
:103280005846FEF753FFD0231B061A6858E7012360
:103290005B4240469846C44463469B005B49634496
:1032A0009B00CB58142149428846009FC3445218C2
:1032B000002B9CD16346013B9A00544CD1188900E5
:1032C00061580029F7D09C4689E793680097984693
:1032D0000300404698469AE75146895CC9076AD47C
:1032E0001968002900D014E7FAE742498A46895C48
:1032F000890759D41968002900D0F5E6FAE7009942
:103300004B68C96B521A93464246134248D1032276
:1033100014001C401A42A3D01F2398462B000127FB
:103320005D469B4601E0002C1ED02000FDF712FFF9
:103330004346181A3B008340810072589C437358DF
:10334000126BDB6BD31A9D42EDDD7258926B002A33
:10335000E9DB7258926B012AE5DC2A4A5258002AAE
:10336000E1D183461D00DEE75D46012D00D977E7F8
:10337000EFF30583DBB2002B23D0D0231B061A68A2
:1033800095422ED0AC0033599B6B023300D1D7E667
:103390002800FEF757FC0222335952429A635FE736
:1033A000F25952689343B2E7134B99464A465B7809
:1033B00001335370A5E64B464A461B780133137020
:1033C000B2E6AC0033599B6B023300D148E7D023FF
:1033D0001B061A689542DBD101220A490A511A6874
:1033E000AEE601210748920081501A68A8E6C0465F
:1033F0003C0100D0240B0220280B0220380100D011
:103400003C0B02201C0C0220440B02208C080020E4
:1034100070080020F8B50C00EFF3108272B6D026C9
:10342000360633682D4D9B00595982F310881C31A4
:10343000FEF788FE2A4B1F68EFF3108172B63368DF
:103440009B005A5981F310887D230021D154EFF35A
:10345000108272B633689B00585982F31088083086
:10346000FEF788FE631C2CD0E419EFF3108272B6CD
:1034700033689B005B5982F310889C60A7420DD98A
:10348000184B1868EFF3108272B633689B005959D5
:1034900082F310880831FEF755FEF8BD124B18680C
:1034A000EFF3108272B633689B00595982F310888B
:1034B0000831FEF747FE0D4B1A689442EDD21C60AE
:1034C000EBE7EFF3108272B633689B00595982F331
:1034D000108807480831FEF729FEDEE77008002053
:1034E000100C0220840800207C080020B40B02206D
:1034F000E80B022070B50B001400EFF3108172B6D8
:10350000D026360632680C4D9200525981F310884D
:10351000802109061943D161EFF3108272B6336836
:103520009B00595982F310881C31FEF7FFFD0121E1
:103530002000FFF7BFF970BD70080020F0B5C64647
:103540000C0000B51600EFF3108272B6D0231B06F4
:103550001B68344D9B00E95882F310881C31FEF73C
:10356000E5FD002E01D0012464422F4B1B689846D4
:10357000EFF3108172B6D0273F063B689B00EA58F4
:1035800081F310887D230021D154EFF3108272B6AD
:103590003B689B00E85882F310880830FEF7EAFD8C
:1035A000631C30D04444EFF3108172B6D02212066F
:1035B00013689B00EB5881F310889C60A04514D8D9
:1035C0001A4B1868EFF3108672B613689B00E9581F
:1035D00086F310880831FEF7B5FD154B1A68944242
:1035E00000D21C6080BCB846F0BD124B1868EFF3E7
:1035F000108472B613689B00E95884F31088083170
:10360000FEF7A0FDEEE7002ECCD0EFF3108272B6ED
:103610003B689B00E95882F3108807480831FEF7A1
:1036200085FDDFE770080020100C02207C080020D8
:10363000B40B022084080020E80B0220F8B5C36810
:10364000DD682C001C342000FEF794FD454B1B6800
:10365000002B28D1143C2000FEF78CFD424A2B6B36
:1036600011688B4224D89800C018404B800021007C
:10367000C018FEF75BFD3E4C2B6B27682168226863
:103680003C4E926B013B012A14D9616867686268FD
:10369000926B012A21D9D0231B061B689B00F0588E
:1036A000431E9841F8BD21003348FEF73FFDE2E795
:1036B0001360D8E730680028E7D13A6BC96B521A1B
:1036C0009342E2DB6968C907DFD5616867686368B0
:1036D0009B6B012B3BD900220FE07268002ADAD1E4
:1036E0000122524294460A6BF96B521A9A421ADD31
:1036F000634600200022012BCDD8EFF30583DBB217
:10370000002B16D0D02109060B68934225D08500E6
:103710006259926B0232C1D0FEF794FA02226359C9
:1037200052429A63B7E76B689B07E1D501200122FB
:10373000E3E7850063599B6B0233ACD0D0231B06B3
:1037400019689142E8D1012272511B68A6E773689B
:103750009C46002BBFD11300C5E7012380003350E6
:103760000B689BE73C0B0220440B02208C080020D6
:10377000700800201C0C0220C80B0220034B1B68A1
:103780000360034B1B6843607047C046B80B0220C0
:10379000100C0220F0B5D6464F46464604008A4635
:1037A000C0B5EFF3108372B6694F3B68002B47D169
:1037B000684D69490B68984663689946EFF3108C29
:1037C00072B6D022120613689B00E8588CF310885A
:1037D0007D23C05C002822D0EFF3108172B61268FE
:1037E0009200AA5881F3108800210124D1543B682B
:1037F000002B0ED0EFF3108272B6D0231B061B688D
:103800009B00EB5882F310881B6D002B01D0FFF753
:10381000C1F82000E0BCBA46B146A846F0BD534608
:103820001B685A1C64D04D4A2668106886424FD0E7
:10383000606840454CD80023524601241360D6E707
:10384000EFF3108072B6D02212061368414D990032
:10385000695880F31088096D002912D1EFF30581B2
:10386000C9B2002946D03E493E483F4A1668002E5C
:1038700054D0BFF35F8F012202700120CA5C024363
:10388000CA54EFF3108072B6D02109060B689B0072
:10389000EA5880F31088136D01331365334B1B68AE
:1038A000002B00D085E7EFF3108272B60B689B0007
:1038B000EB5882F310881B6D012B00D079E7EFF3F2
:1038C0000583DBB2002B00D073E7FFF7C5F870E784
:1038D00040464E46801B8342ADD940461B1A504697
:1038E0004B440360136823600B68636000247EE729
:1038F00000247CE71E48016800291AD01849BFF34C
:103900005F8F0226B4460122664616484270CA5CA2
:103910003243CA54D0231B061B68A6E7CE5CF607C9
:1039200003D41668002EA4D1FBE70378013303709B
:10393000A7E70B49CE5CB60703D40268002ADED1A4
:10394000FBE7084843780133437013688DE7C046AE
:10395000DC0B022070080020100C0220B80B0220A3
:10396000240B0220280B0220380100D03C0B02203F
:103970003C0100D0D02301211B061B68014A9B009B
:10398000995070471C0C0220EFF3108272B6D023BE
:103990001B061B6802499B00585882F31088704729
:1039A0007008002070B54B4D01242B68002B01D10D
:1039B000200070BDEFF3108372B62B68002B44D04B
:1039C000EFF3108472B6D02109060B68424A9800C2
:1039D000105884F31088006D002812D1EFF3058091
:1039E000C0B200284AD03D483D4C3E490E68002EEA
:1039F00056D0BFF35F8F012121700124C15C2143A8
:103A0000C154EFF3108472B6D020000603689B0007
:103A1000D15884F310880B6D334C01330B65236848
:103A2000002B13D1EFF3108172B603689B00D358BB
:103A300081F310881B6D012B08D1EFF30583DBB2F6
:103A4000002B03D1FFF708F800E0274C24686342FD
:103A50005C412B686400002BAAD0EFF3108272B691
:103A6000D0231B061B681C499B005B5882F31088FF
:103A70001B6D002B9CD0FEF78DFF99E71B4C206837
:103A8000002818D01548BFF35F8F01210226144C7F
:103A90006170C15C3143C154D0231B061B68A4E78D
:103AA000C65CF60703D40E68002EA2D1FBE723788C
:103AB00001332370A5E70948C65CB60703D4216823
:103AC0000029E0D1FBE7064C6378013363700B6893
:103AD0008BE7C046DC0B022070080020240B02207C
:103AE000280B0220380100D03C0B02203C0100D002
:103AF00070B5041E08D0036E026BC16D013B0366F6
:103B00008A4201D0002B01D0002070BD050008358D
:103B10002800FEF72FFB2022E36DD21AE261084A4B
:103B2000236311688B4200D913609800C018054BBD
:103B30008000C0182900FEF7F9FA0120E5E7C04629
:103B4000440B02208C08002010B5EFF3108172B6F0
:103B5000D0231B061B68074A9B009A5881F31088E4
:103B6000126D002A03D00121034A995010BDFEF7BF
:103B700045F8FBE7700800201C0C022070B5EFF33D
:103B8000108372B63A4B1B68002B3CD0EFF3108CBD
:103B900072B6D02109060B68364A980010588CF38B
:103BA0001088006D002812D1EFF30580C0B2002804
:103BB00032D03148314C32490D68002D3ED0BFF330
:103BC0005F8F012121700124C15C2143C154EFF3B7
:103BD000108C72B6D020000603689B00D1588CF37D
:103BE00010880B6D01330B65264B1B68002B0AD127
:103BF000EFF3108172B603689B00D35881F31088ED
:103C00001B6D012B00D070BDEFF30583DBB2002BE1
:103C1000F9D1FEF721FFF6E71B4C2068002818D0E9
:103C20001548BFF35F8F01210225144C6170C15C00
:103C30002943C154D0231B061B68BCE7C55CED07B4
:103C400003D40D68002DBAD1FBE72378013323702C
:103C5000BDE70948C55CAD0703D421680029E0D160
:103C6000FBE7064C6378013363700B68A3E7C0463B
:103C7000DC0B022070080020240B0220280B0220FD
:103C8000380100D03C0B02203C0100D0F0B54E467C
:103C90004546DE465746E0B59600804683B0300084
:103CA0000D00994601F026F8071E00D1ECE08020B7
:103CB00001F020F8041E00D1F1E047633200A52195
:103CC0003800FDF73BFD636B0193002D00D109E146
:103CD00040232A78E2542B78002B56D041236A786F
:103CE000E2546B78002B50D04223AA78E254AB7890
:103CF000002B4AD04323EA78E254EB78002B44D0DF
:103D000044232A79E2542B79002B3ED045236A794B
:103D1000E2546B79002B38D04623AA79E254AB7970
:103D2000002B32D04723EA79E254EB79002B2CD0D8
:103D300048232A7AE2542B7A002B26D049236A7A28
:103D4000E2546B7A002B20D04A23AA7AE254AB7A51
:103D5000002B1AD04B23EA7AE254EB7A002B14D0D2
:103D60004C232A7BE2542B7B002B0ED04D236A7B05
:103D7000E2546B7B002B08D04E23AA7BE254AB7B32
:103D8000002B02D04F23EA7BE2544F230022E2545F
:103D90000C9F1F2F00D980E008239A460025A244DB
:103DA00050462763E7652566FEF7BCF920001C3006
:103DB000FEF7B8F920232000DB1BE3611422002169
:103DC0006461A46225656430FDF7B8FC200004221C
:103DD00000217830FDF7B2FC23007C331D707D2379
:103DE000E5547E3B9B466360019B301F9C46072346
:103DF000604498434A464146FDF7F0FE5B46A363A4
:103E00004B4B2060984550D04A4B98454DD0E563C8
:103E10000E9B002B00D01C600D9B6360FFF7AEFE75
:103E2000454A464F1368013313603B689946002B9F
:103E30003ED0434E434A136801331360424A6365E0
:103E40001168236B8B4200D913609800C018800062
:103E500051463018FEF76AF93B68002B3DD13B68AC
:103E6000002B0FD0EFF3108272B6D0231B061B6815
:103E700036499B005B5882F310881B6D002B01D0E4
:103E8000FEF788FD012001E00120404203B0F0BCB4
:103E9000BB46B246A946A046F0BD1F277CE73800C6
:103EA00000F0DEFF01204042F0E70123E363AFE7CB
:103EB0001368234E012B18D0E36B002BBAD0234A92
:103EC0001368002B04D05368002BB3D101339946FB
:103ED0004B46A3639B00D450ACE700212000FEF7C3
:103EE000F7FFBCE74023E55452E7A0239B00984628
:103EF0003500B04428001435FEF708F94545F9D1DE
:103F0000134B98461800FEF701F9124D2800FEF7F2
:103F1000FDF81148FEF7FAF81048FEF7F7F81048D8
:103F2000FEF7F4F842460F4B1A600F4B1D60C3E7D3
:103F3000E12C00109D280010340B0220DC0B022025
:103F40008C080020400B0220440B02207008002047
:103F5000740B0220880B0220C80B0220FC0B0220ED
:103F6000E80B02207C08002084080020F0B5D6462B
:103F70004F464646C0B588B000F0CEFD234B012425
:103F80009946234B234F9A4604AD234B00260493B6
:103F900023002F332B716E71012C19D03B1D02931E
:103FA000012380225B429846019329000023484662
:103FB00000965200FFF76AFE022C15D1012817D097
:103FC000164B1B6808B0E0BCBA46B146A846F0BD27
:103FD000012380225B42019329000023504602976F
:103FE00000965200FFF752FE01340028CDD1E7E7DA
:103FF000EFF3108372B64246094B1A60094B186002
:10400000094B1E60FDF796FEDAE7C0469D280010BA
:10401000E12C0010A40B022049444C45340300203D
:10402000B40B0220DC0B0220100C0220F0B5DE469F
:10403000454657464E46E0B583B008220021684603
:10404000FDF77CFBFFF79AFD7C4B1D68002D5DD1D1
:104050007B4B1F6801371F60002F00D177E0794B41
:104060009B465B461B68BB4200D889E0764B99466D
:10407000764F3B681A6B93009B184A469B00D258B8
:1040800079680123086B93429241810009184846E0
:104090008900415852428B429B416D495B428846A0
:1040A0000968002900D00122009242465268002A85
:1040B00000D001230193D0231B0699461B686C4650
:1040C0009A4600262368002B1BD0554500D1A7E057
:1040D000EFF30583DBB2002B00D189E04B461B6870
:1040E0009D4200D1A5E0AB009B46FB589B6B023381
:1040F00007D02800FDF7A6FD5B460222FB5852427E
:104100009A630434012D06D00125DBE70026514ACD
:10411000136801331360504B1B68002B0FD0EFF373
:10412000108272B6D0231B061B6848499B005B585F
:1041300082F310881B6D002B01D0FEF72BFC3000A2
:1041400003B0F0BCBB46B246A946A046F0BD434B07
:10415000434A196810681860116042490A680132C0
:104160000A601A681268002A53D1364B9B46012315
:104170005A465B4213605B461B68BB4200D975E739
:10418000364B98461B681B68002B4BD02E4B99462C
:10419000354B9A4622E0260008363000FDF7EAFF4C
:1041A000E36A002B03D020001C30FDF7E3FF5346E9
:1041B000206B1B68984201D9534618608300181879
:1041C000800031004844FDF7B1FF01212000FEF7D7
:1041D0007FFE43461B681B68002B25D043461B68A7
:1041E000DB68DC68A3689F42D5D25A4613603FE77C
:1041F000AB009B46FB589B6B023300D181E74B46DB
:104200001B689D4200D074E743465A4601219950ED
:1042100077E71B680B4ADB6893461B68136020E74F
:1042200001266EE7084B994601235A465B4213600C
:104230001EE742460121AB00D15062E73C0B022051
:10424000100C0220B40B02208C0800207008002003
:104250001C0C0220C40B0220DC0B02207C08002076
:1042600084080020B80B0220440B0220F8B5CE468B
:10427000474680B5FFF782FCD02109060B683E4A0D
:1042800099461368013B136008683C494B78013B31
:10429000DBB24B70002B09D1022439490B5CA343DC
:1042A0000B54BFF35F8F0121364B19601368002454
:1042B000002B42D1344B1B68002B3ED0334D2B6872
:1042C000002B24D0324B334E9846EB68DF68380021
:1042D0003C001C300834FDF74DFF2000FDF74AFF7D
:1042E000386B3368984200D930608300181880001A
:1042F00021004044FDF71AFF2B68002BE5D1264B27
:104300001A681268002A31D1244B013A1A60244BF2
:10431000244D98461C684B469F00002C0AD001266D
:10432000FFF784FE002800D0EE51013C002CF7D1AD
:1043300043461C60EC59631E9C411B4B1B68002BC1
:104340000FD0EFF3108272B6D0231B061B681749FB
:104350009B005B5882F310881B6D002B01D0FEF789
:1043600019FB2000C0BCB946B046F8BD1B68DB682D
:104370001A680A4B1A60CAE73C0B0220280B02207D
:10438000240B02203C0100D0340B0220C80B022079
:104390008C080020440B02207C080020B40B022073
:1043A000C40B02201C0C0220DC0B02207008002031
:1043B000044B10B51868002800D110BDFFF756FF58
:1043C000FBE7C046DC0B022070B5041E0AD0174D77
:1043D0002B68002B1DD100212000FEF76BFA2B6803
:1043E000002B11D1EFF3108172B6D0231B061B688E
:1043F0000F4A9B009A5881F31088126D002A12D040
:1044000001210C4A995070BDFFF730FF0028E9D018
:10441000F9E7FEF7E7FB00212000FEF74BFA2B68D7
:10442000002BDFD0F0E7FDF7E9FBECE7DC0B022027
:10443000700800201C0C022070B58023C4681B0685
:1044400025000B4303600835FDF794FE2800FDF7B7
:1044500091FE144A236B11688B4200D913609800B7
:10446000C018114B8000C0182900FDF75FFEFFF750
:1044700085FB00212000FEF72BFD0C4B1B68002B59
:104480000FD0EFF3108272B6D0231B061B680849C9
:104490009B005B5882F310881B6D002B01D0FEF748
:1044A00079FA70BD440B02208C080020DC0B02203E
:1044B00070080020F0B54E464546DE465746E0B54A
:1044C0009600804683B030000D00994600F012FC43
:1044D000071E00D1EDE0802000F00CFC041E00D18E
:1044E000F2E047633200A5213800FDF727F9636B3E
:1044F0000193002D00D10AE140232A78E2542B7861
:10450000002B56D041236A78E2546B78002B50D0B0
:104510004223AA78E254AB78002B4AD04323EA78AE
:10452000E254EB78002B44D044232A79E2542B79CF
:10453000002B3ED045236A79E2546B79002B38D0AA
:104540004623AA79E254AB79002B32D04723EA798B
:10455000E254EB79002B2CD048232A7AE2542B7AB0
:10456000002B26D049236A7AE2546B7A002B20D0A4
:104570004A23AA7AE254AB7A002B1AD04B23EA7A68
:10458000E254EB7A002B14D04C232A7BE2542B7B91
:10459000002B0ED04D236A7BE2546B7B002B08D09E
:1045A0004E23AA7BE254AB7B002B02D04F23EA7B45
:1045B000E2544F230022E2540C9F1F2F00D981E0C8
:1045C00008239A460025A24450462763E7652566DE
:1045D000FDF7A8FD20001C30FDF7A4FD20232000DE
:1045E000DB1BE361142200216461A4622565643051
:1045F000FDF7A4F82000042200217830FDF79EF892
:1046000023007C331D707D23E5547E3B9B46636015
:10461000019B301F9C460723604498434A4641460D
:10462000FDF7DCFA5B46A3634C4B2060984551D004
:104630004B4B98454ED0E5630D9B002B00D01C6082
:1046400001235B426360FFF799FA464A464F1368BD
:10465000013313603B689946002B3ED0434E444AD9
:10466000136801331360434A63651168236B8B42FF
:1046700000D913609800C018800051463018FDF72B
:1046800055FD3B68002B3DD13B68002B0FD0EFF36D
:10469000108272B6D0231B061B6837499B005B58FB
:1046A00082F310881B6D002B01D0FEF773F90120F7
:1046B00001E00120404203B0F0BCBB46B246A9462F
:1046C000A046F0BD1F277BE7380000F0C9FB0120A2
:1046D0004042F0E70123E363AEE71368234E012B6A
:1046E00018D0E36B002BBAD0234A1368002B04D0F8
:1046F0005368002BB3D1013399464B46A3639B000B
:10470000D450ACE700212000FEF7E2FBBCE74023D9
:10471000E55451E7A0239B0098463500B04428009B
:104720001435FDF7F3FC4545F9D1144B98461800B4
:10473000FDF7ECFC124D2800FDF7E8FC1148FDF7F1
:10474000E5FC1148FDF7E2FC1048FDF7DFFC4246AE
:104750000F4B1A600F4B1D60C3E7C046E12C0010E1
:104760009D280010340B0220DC0B02208C08002056
:10477000400B0220440B022070080020740B022022
:10478000880B0220C80B0220FC0B0220E80B022041
:104790007C080020840800200A4B10B51B68002B01
:1047A0000FD0EFF3108272B6D0231B061B680649A8
:1047B0009B005B5882F310881B6D002B01D0FEF725
:1047C000E9F810BDDC0B02207008002010B5EFF3F3
:1047D000108072B6D02109060B680D4A9B009B58C9
:1047E00080F31088D869EFF3108472B60B689B00D1
:1047F0009B5884F310881C6BEFF3108372B6096822
:1048000089008A5883F3108820231B1BD36110BDB5
:10481000700800202823F0B54F464646D6469946F4
:10482000204BC0B59846204D84B004260EE0DB68CE
:10483000DC681A68271D38009246FDF79BFC236A46
:10484000200098474B46E35C1E420DD12B681A6846
:10485000002AECD1154A11681360296004B0E0BC4D
:10486000BA46B146A846F0BDA36953449A4512D34F
:1048700043461B68002BD8D0002300935346029474
:104880000193FFF78FF84046002300226946006835
:10489000FDF7A2FDC9E73900286863602461FDF7D0
:1048A00051FCC2E7140C0220780800208808002080
:1048B000944BF0B54E469946934BDE469B462823D3
:1048C000454657469846E0B5904C914E8DB04B46C4
:1048D0001B681F68002F00D1A3E0DB681F68FEF78C
:1048E00067FBFEF7E9FB33680500834200D9B2E0BD
:1048F0003060874200D8C2E000222068791BFDF7B3
:10490000A9FFFFF755FD002800D1A1E002239A4638
:104910002068002204A9FDF7DFFE0028D7D0049B01
:104920000193002B6EDB069D6B69002B02D0281DC6
:10493000FDF720FCFEF7C0FB33680700984200D269
:104940008FE0049B3760092B41D8724A9B00D358F3
:104950009F4643460122EB5C13434246AB54A96990
:10496000059B2D615A186A60BA427DD8FB1A99429C
:1049700041D828002B6A984743460422EB5C206804
:104980001A42C6D00028C4D00022059B0193AB690F
:104990000892019A0A95944663440993FFF702F836
:1049A00000230022206808A9FDF716FD2068B0E763
:1049B00043460122EB5C13434246AB54059B2D61F9
:1049C000DA19AB616A60BA4252D8002B13D1206861
:1049D0009FE74346EB5C0122934342462068AB5479
:1049E00097E743465246EB5C1A42F4D1280000F0A8
:1049F00037FA20688DE75B46291D1868FDF7A2FB92
:104A0000206886E7079B0193069B01990293059B0B
:104A1000029803939847049B0193002B83DA206844
:104A200077E7FEF7C5FAFEF747FB336805008342D8
:104A300011D85B461B6820681A68791B53425A419B
:104A40003560FDF707FFFFF7B3FC002800D05DE7F6
:104A5000FFF77AF85AE7FFF7DDFE3560FFF7A8FCAD
:104A600054E7FFF7D7FE6CE7BB4201D9934280D9E8
:104A70004B46291D1868FDF765FB206849E7FFF7DD
:104A800097FC4B461B68DB68DB689A4604331800CA
:104A90000193FDF76FFB424653469B5C04221A428A
:104AA00009D101224146934352465354534650463E
:104AB0001B6A98472AE7534651469A690961BB1811
:104AC0004B60AB4205D94B4601991868FDF73AFB9C
:104AD000ECE7ED1BAA420FD82368002BE6D0002399
:104AE0000A9108930997FEF75DFF002300222068D2
:104AF00008A9FDF771FCD9E75B4601991868FDF735
:104B000021FBD3E77808002088080020140C02203D
:104B1000AC0B0220F850001070B582B0FFF72EF8F1
:104B2000174C2368002B12D0FFF736FE23680020B5
:104B3000002B0AD0134B802201931F2312490093AC
:104B400012480023D200FFF7B5FC02B070BD104E32
:104B50003000FDF7DBFA0F4D2800FDF7D7FA0E4BBA
:104B600000221E600D4B10210A201D60FDF7FEFB88
:104B700020600028D8D00A49FDF73CFED4E7C046A3
:104B8000140C0220180C022028510010B14800100B
:104B9000480B02205C0B02207808002088080020C7
:104BA0002051001010B514001A00022384B05B429B
:104BB0000093054B01900291186869460023039405
:104BC000FDF7F0FC04B010BD140C0220F8B50E0087
:104BD000EFF3108772B60C4B84009B681D59A942F5
:104BE00005D00A4B9D420BD3094B9D4208D2064B80
:104BF0009B681E51BFF35F8F87F310882800F8BDB4
:104C0000FCF7B6F9F3E7C04600ED00E0C001001084
:104C1000CC01001003BDC04610B50400FCF7C2F97A
:104C2000A04710BDF0B5040087B00F200E0017009C
:104C3000FBF750FC002105000F20FBF739FC002397
:104C400000220092019301230293D023049605943D
:104C5000002600240121022003971B06002C14D0FB
:104C60001A6D1042FCD05C6540BF1A6D114203D131
:104C700020BF1A6D1142FBD09A6DA2420AD00026C5
:104C80006C46B200A458E9E79A6D1A6D1142FBD147
:104C900040BFE5E70136052EF2D929000F20FBF7CA
:104CA00007FC07B0F0BDC0460B4B0C4A10B5934251
:104CB00001D201235B420A4C0A4A1900926818513A
:104CC000FF20A446C0001B50074B0848C8500848A6
:104CD0006144FFF7A7FF10BD000804200000042076
:104CE000F407000000ED00E0FC070000194C001084
:104CF000154C0010F0B5D6464F464646C0B50400E8
:104D0000FEF756F94F4A1768002F48D04E4B1D68E2
:104D100025423BD1631E0A3338D8200007230830D0
:104D200003422DD1494B99461B68984683422DD3A7
:104D3000474B9C461B68644604E01A68002A04D06E
:104D40001C00130059688142F7D3BB421ED01E00DD
:104D50001A68083622600A1A102A48D8424648467D
:104D6000521A02603B480468A24200D2026000224C
:104D70001A60394A2943596013680133136006E009
:104D800002009A4313000833834227D80026FFF716
:104D90000FFB3000E0BCBA46B146A846F0BD072084
:104DA0002E4908421CD180239B02CF1808000B001B
:104DB0000021274D083F696028600725AF43802503
:104DC0001760244AFB1A1360204A79603960136027
:104DD00043601D4B2D0607601D6099E71800A1E791
:104DE000CB1D8343802080020F181800E0E71918BC
:104DF0004A608A4662465860110012689245FBD8A4
:104E000048680C18A2450DD05046406854462418F6
:104E1000A2420DD050460260514501D052460A6070
:104E200059689BE7544664688A4600194860EDE774
:104E3000BA42EFD054681268A44654466044606099
:104E40002260E9E780080020700B0220A00B0220FE
:104E5000E00B0220B00B0220BC0B0220240B002030
:104E600070B5002809D01D4A08384368126804004C
:104E70001A4202D00168002900D070BD93434360FC
:104E80000500FEF795F8164A616813685B18136011
:104E9000144B1A001B689C42FBD850681618B44289
:104EA00018D0681883420AD02B60AA4200D015603F
:104EB0000D4A136801331360FFF77AFADDE70B48F8
:104EC00000688342F0D058681B688446614469607A
:104ED0002B60EAE7091815005160E2E7700B022029
:104EE000A00B0220E00B0220C00B02208008002053
:104EF00010B583070AD00300032102E001330B42FF
:104F000005D01A78002AF9D1181A10BD03001968C3
:104F10000C4A0D4C8A188A4322420FD15968094A1B
:104F200004338A188A43224208D15968054A043357
:104F30008A188A432242F1D000E001331A78002A0D
:104F4000FBD1E1E7FFFEFEFE80808080F8B5C04621
:104F500001B40248844601BC604700BFF50100204F
:104F600001B40248844601BC604700BF5D010020D7
:104F700001B40248844601BC604700BFB90200206A
:104F800001B40248844601BC604700BFB90200205A
:104F900001B40248844601BC604700BFC100002044
:104FA000CD0F0010F90F0010451100102D17001043
:104FB000D11500109D1600106D1000101510001076
:104FC0003510001049100010790500105110001024
:104FD0000D0900106D0F00108D040010FD0200106F
:084FE000651A0010FD1E00100F
:104FE800426C696E6B205461736B00000A2A2A2A8E
:104FF8002050414E4943202A2A2A0A000A0000006C
:105008006E6F7420737570706F7274656400000041
:105018005370696E6C6F636B20256420697320611F
:105028006C726561647920636C61696D6564000008
:10503800486172647761726520616C61726D2025C8
:105048006420616C726561647920636C61696D6567
:1050580064000000486172642061737365727400B3
:1050680052656C6561736500626F6F74325F773289
:105078003571303830000000322E312E31000000FA
:105088007069636F00000000617070004D617220EC
:10509800203420323032350005005250DE65F46885
:1050A800D4530010060052505422A29D9450001070
:1050B80006005250861C0302905000100600525001
:1050C800BBFF3CB68850001006005250ABB360538B
:1050D8008050001006005250E182887F7050001006
:1050E80006005250D3F07542685000100D0A0000B7
:1050F800524900105249001052490010D24900107C
:10510800B0490010E24900105249001052490010FD
:10511800D2490010B0490010546D725100000000CF
:08512800546D72205376630000
:10513000A0500010AC500010B8500010C450001027
:0C514000D0500010DC500010E8500010AF
:10514C00F0B5C646150000B504001E000268EFF36A
:10515C00108872B61368002BFCD0BFF35F8F6768A2
:10516C007B1C0ED02368BFF35F8F00221A6088F37C
:10517C00108800F0F5F8B8420FD1002080BCB8467A
:10518C00F0BD00F0EDF823686060BFF35F8F002284
:10519C001A6088F310880120F0E700F0E1F80700AE
:1051AC0006E02A003300200000F0D2F80028E4D1F9
:1051BC002268EFF3108172B61368002BFCD0BFF39A
:1051CC005F8F63680133ECD123686760BFF35F8F37
:1051DC0000221A6081F310880120CFE710B5026815
:1051EC00EFF3108172B61368002BFCD0BFF35F8F06
:1051FC0001235B42436000F0A3F810BD10B5084CCE
:10520C002378002B0AD18023064807495B051A68CE
:10521C00C25004338B42FAD10123237010BDC04617
:10522C00240C0220240700100001001010B5024BC2
:10523C000133984710BDC04624070020034B1A6861
:10524C00C0239B009343024A136070470C800140BB
:10525C000C900140054B1A6880239B005340C022E0
:10526C0092001340024A13607047C0460C80014004
:10527C000C9001401423F0B5D6464F4646469A464C
:10528C00814618880433C0B598460E001B88274900
:10529C0014009847534607001888434624491B8836
:1052AC009847534605001888434622491B8898475F
:1052BC008046FFF7A3FFB847A847FFF7CBFF002CAA
:1052CC001BD0C02122000827022049053D008B6A13
:1052DC001D4018420BD0002C09D0131B0D2B1FD8CE
:1052EC004B461B78013C0B6601239C46E144230092
:1052FC00002D0CD11343002BE8D1FFF79FFFC047C3
:10530C00FFF794FFE0BCBA46B146A846F0BD002AB0
:10531C00F1D00B6E013A3370130001362343EAE7E8
:10532C00002DD3D0002AD1D0F3E7C0464946000067
:10533C0045580000464300007047C046000000007E
:10534C0001B40248844601BC604700BF8D1D0010AB
:10535C0001B40248844601BC604700BF111E001016
:10536C0001B40248844601BC604700BF5D1D0010BB
:10537C001000000000000000000000000000000011
:10538C0000000000000000004803002000000000A6
:10539C00503300004C3300005433000052330000F3
:1053AC004D5300004D4300005334000043340000C3
:1053BC00FF0000001F0000000000000000000000C3
:0853CC000000000000000000D9
:04000005100001E9FD
:00000001FF
