:020000041000EA
:1000000000B5324B212058609868022188439860DF
:10001000D860186158612E4B002199600221596106
:100020000121F02299502B49196001219960352056
:1000300000F044F80222904214D00621196600F024
:1000400034F8196E01211966002018661A6600F04E
:100050002CF8196E196E196E052000F02FF8012189
:100060000842F9D1002199601B49196000215960AB
:100070001A491B48016001219960EB211966A021F2
:10008000196600F012F800219960164914480160C1
:100090000121996001BC002800D000471248134993
:1000A000086003C880F30888084703B5996A0420EC
:1000B0000142FBD001200142F8D103BD02B5186610
:1000C0001866FFF7F2FF186E186E02BD00000240BE
:1000D000000000180000070000035F00212200005C
:1000E000F4000018222000A00001001008ED00E03C
:1000F00000000000000000000000000074B24E7A12
:1001000000200420F7010010C3010010C5010010F9
:10011000C1010010C1010010C1010010C101001097
:10012000C1010010C1010010C1010010C701001081
:10013000C1010010C1010010C9010010CB01001065
:10014000CD010010CD010010CD010010CD01001037
:10015000CD010010CD010010CD010010CD01001027
:10016000CD010010CD010010CD010010CD01001017
:10017000CD010010CD010010CD010010CD01001007
:10018000CD010010CD010010CD010010CD010010F7
:10019000CD010010CD010010CD010010CD010010E7
:1001A000CD010010CD010010CD010010CD010010D7
:1001B000CD010010CD010010CD010010CD010010C7
:1001C00000BE00BE00BE00BE00BE00BEEFF3058054
:1001D000103800BEF2EB8871689100109491001005
:1001E0003802001090A31AE71E481F49086006C88D
:1001F00081F3088810471D480068002801D019487D
:10020000F3E70DA40ECC002902D000F012F8F9E7B4
:100210001749184A002000E001C19142FCD116495B
:100220008847164988471649884700BEFDE701C937
:1002300001C29A42FBD3704794910010C000002085
:10024000B410002088A10010000004200000042049
:1002500088A10010001004200010042000000000FD
:10026000704700000000000008ED00E0000000D032
:10027000B4100020B0230220D12100108D03001003
:10028000C9210010F8B5C0460448054B10B583429B
:1002900003D0044B002B00D0984710BDB4100020B1
:1002A000B41000200000000006480749091A8B100E
:1002B000C90FC91810B5491003D0044B002B00D04A
:1002C000984710BDB4100020B410002000000000BA
:1002D00010B5074C2378002B09D1FFF7D5FF054B4C
:1002E000002B02D0044800E000BF0123237010BDA2
:1002F0008014002000000000888C0010054B10B511
:10030000002B03D00449054800E000BFFFF7CCFFF5
:1003100010BDC0460000000084140020888C00102E
:1003200070B50020D02400F079F8012301260125C2
:1003300024066362FA20656107F0C0FBFA20A6611B
:1003400007F0BCFBF6E7C04670B586B001AC2200F2
:100350000D4B050043CB43C2196811609988918009
:100360009B799371200008F0D3FB00230200210049
:10037000280005F099FC200002F08EF8FA20800099
:1003800007F09CFBEEE7C046888C001030B583B0C8
:1003900002F02EF8FA20800001F022F8012200215C
:1003A000202005F05BFC002501230400009380223F
:1003B000030009490195094807F0F6FB0223802252
:1003C0000749009301952300064807F0EDFB07F06D
:1003D00047F903B030BDC0469C8C001049030010A3
:1003E000A48C00102103001010B54024084A83009B
:1003F0009A181268C0005440C0222240054CA446FE
:1004000063441A60044B9C466044416010BDC04682
:1004100004C0014004D00140004001400123D0222B
:1004200083404021120693629361094A83009A181F
:100430001268C0005140C0220A4006498C466344FD
:100440001A60054B9C460523604443607047C046D4
:1004500004C0014004D00140004001408023DB057E
:100460001868000F7047C0460FB400B5084883B045
:1004700002F012F8049B002B07D005A91800019187
:1004800001F088FE034802F007F8012001F09AFE0F
:10049000B08C0010C08C001010B50148FFF7E4FFCD
:1004A000C48C001070B5EFF3108C72B60D4D2B6834
:1004B000002BFCD0BFF35F8F0724CB08C618C05CAD
:1004C00001230C40A3401C000440034207D1034316
:1004D0003370BFF35F8F2C608CF3108870BD1000F9
:1004E000FFF7C2FF2C0100D0F8B54746CE4688463C
:1004F00080B5EFF3108C72B6214D2C68002CFCD027
:10050000BFF35F8F9A422CD8D4080727055D0619E0
:1005100001241740BC402C421FD0072101278946E7
:1005200009E0D408055D06194C4639001440A14085
:100530000C00294211D001329342F2D201204042F4
:10054000BFF35F8F00220E4B1A608CF310880028D7
:100550000FDBC0BCB946B046F8BD2C431000347068
:10056000EEE7BFF35F8F00232B608CF31088012030
:1005700040424346002BECD00898FFF775FFC04679
:100580002C0100D0044A1078431CDBB2172B00D991
:10059000102313707047C046C00F002010B5010033
:1005A000024A0348FFF77EFF10BDC046D48C0010FE
:1005B000441B002000B5054B83B0010000931822B6
:1005C0001F230348FFF790FF03B000BDF48C001019
:1005D000441B00200021044B044ABFF35F8F02C379
:1005E0009342FAD17047C046000100D0800100D08C
:1005F000054B064A1360064A136053609360D3604C
:1006000013615361936170478080808000E400E053
:1006100004E400E01F2318401E3B8340002905D05E
:10062000C021044A49005350136070478022014999
:100630008B50FAE700E100E001228240034B1B6887
:1006400013405A1E9341D8B27047C04600E100E003
:1006500001238340014A13607047C04600E200E076
:10066000064B10309B688000C358054A00209B1A37
:100670002F229A424041C0B27047C04600ED00E0D0
:10068000C40F002070B50D00EFF3108672B60F4A4C
:100690001368002BFCD0BFF35F8F0D4B10309B68AD
:1006A00084001B590B4A934203D09D4201D001F0B4
:1006B0005DF9074B9B681D51BFF35F8FBFF35F8FE1
:1006C0000022024B1A6086F3108870BD240100D00E
:1006D00000ED00E0CD010010F0B557464E46DE4675
:1006E0004546E0B585B0060002911700EFF3108B88
:1006F00072B6674A1368002BFCD0BFF35F8F0025EA
:10070000644B5D579A46002D00DAA4E06B00624C02
:1007100003935B199B009846A146C1444B46524641
:100720009B79103613705D4BB2009B68019299580B
:100730000B1B2F2B34D95A4B994200D0A4E0039BBA
:10074000584A9C46584B6544AD00635343460233B8
:100750006519E418554B0121043B1B1B1B055B0D60
:1007600013436B80524BEF71AB80FF23AB71029B45
:10077000AB604B460B431900484B019A9B6899505C
:10078000BFF35F8FBFF35F8F0022414B1A608BF383
:10079000108805B0F0BCBB46B246A946A046F0BDE5
:1007A00001200A008243D379BB422FD845464E46EA
:1007B000130040491B1B5B415943090D3A4B6353DE
:1007C0003A4B02356519043B5B1B1B05354D5B0D30
:1007D0002B4373800426B446E0444444131F1B1B80
:1007E0004C46A17102991B05A16049465B0D2B4344
:1007F000A380314BE77101431360BDE75800C01877
:1008000080002018C679BE422BD902000623D35699
:10081000002BF3DA101D82462848804604267642D3
:10082000B446E14450464E46361A3005400D8246E5
:1008300056461C48957106439680039A9446654433
:100840001D4AAD00641922604246A371029BA2803A
:10085000E771A36090E701F089F8002553465D57E2
:1008600054E7101D82469088400500158446404696
:10087000D444664604302018301AE0260005400DA6
:10088000360230438046C9E701F070F857E7C046AA
:10089000240100D0A8230220C40F002000ED00E0B6
:1008A000CD01001000E0FFFF00A1FFFFF40F0020CA
:1008B00001BDFFFFAAAA00000148804701BD00005A
:1008C000F0B5DE4657464E464546E0B50C0083B0CF
:1008D000EFF3108972B65F4A1368002BFCD0BFF3A8
:1008E0005F8F5D4B9A68030010339F00D5595B4AB8
:1008F000904695423DD0A5424ED0594EAA1B2F2A74
:1009000037D8584A93461268944601226146924667
:10091000824011401F22104052468240924601916F
:100920008022514658468150BFF35F8FEFF3058216
:100930009346002A32D101232A009A4390688442C8
:1009400008D17CE04B005B189B00F3189868844248
:100950002ED01A00062151560029F3DA84424DD0D8
:10096000019B002B1FD0C02251463E4B5200995094
:100970001960394B9B68DD51BFF35F8FBFF35F8F09
:100980000022344B1A6089F3108803B0F0BCBB46D8
:10099000B246A946A046F0BD1500EAE79342CAD088
:1009A00000F0E4FFC7E7802351462E4AD150E0E72C
:1009B00006215956002922DB4A00501880003418BD
:1009C0008046A0689860E079D8710620205698711A
:1009D000002825DBA488F01A640524154444001976
:1009E000E0240005400D24022043988052181E4B3D
:1009F0009200B6181A781970B271B1E7130059460F
:100A000000290FD1FF3191711849918016490A7858
:100A10009A71174A9B1B5B415A43120D0A709FE75C
:100A20001448E2E7144A1549D21A083A5002400D18
:100A300001439980124952080A43DA8090E706215F
:100A4000515613000029B7DA5A46002AEAD1454622
:100A5000DCE7C046240100D000ED00E0CD0100102D
:100A6000C40F002000E100E0A823022001BDFFFF29
:100A7000AAAA000001BD0000FE0F002000F0FFFF49
:100A800000F8FFFF10B58308040003202040FF2476
:100A9000054AC0009446844081409B0063441A6824
:100AA000A2430A431A6010BD00E400E070B50124BF
:100AB0000443EFF30581EFF3108C72B6214A1368FB
:100AC000002BFCD0BFF35F8F1F4B05001F4AED1AB0
:100AD0006D416A43120D1E4D8900AE6852B27658C0
:100AE000A6421CD00621595691421CD012215956BB
:100AF000914222D01E215956914220D02A21595686
:100B00000324914210D0134B19781A708171BFF3EE
:100B10005F8F00220B4B1A608CF3108870BDAB689E
:100B20000D4C5C50EFE700246100091989005B1847
:100B3000FF21997109499980E5E70124F4E702242E
:100B4000F2E7C046240100D0C40F0020AAAA00008A
:100B500000ED00E0A8230220CD01001001BDFFFF41
:100B600000B5074B83B00100009300220523054820
:100B7000FFF7BAFC002801DB1F23181A03B000BDE1
:100B8000108D0010AC230220024B9C46614489006A
:100B90000160704740000034F0B5C646164D174E50
:100BA0002C0000B5B54224D20023012798462368C3
:100BB0007F42002B11D0FFF7E5FC01002800FFF772
:100BC000E3FF434667602372BFF35F8F0C34B44288
:100BD0000FD223682500002BEDD1FFF7D3FC0100D5
:100BE0002800FFF7D1FF6760BFF35F8F0834B4427E
:100BF000EFD380BCB846F0BDA4100020B410002094
:100C000010B50400FFF7BEFC01002000FFF7BCFF99
:100C100001235B426360BFF35F8F10BD10B504001A
:100C20000120FFF7C7FC044B9C4660448000206015
:100C3000BFF35F8F10BDC04640000034034B9C469D
:100C4000614489000160BFF35F8F7047400000344A
:100C5000F0B5DE4657464E464546E0B585B0EFF363
:100C60000582032313409A0011000392B64A52589A
:100C7000904601229A409146B44B1A604B46B448C4
:100C80004363434608229B5E9A46002B3DDA434667
:100C90009B881BB2002B00DBA1E043469B79002B15
:100CA00000D0F3E0434608241C5F002C23DB4246BF
:100CB0005269630094461B19DB0063449C68DD683D
:100CC000631C00D10FE1A248039984466144826A03
:100CD0000B69A61A9B1A9E4215D34A46036A1A420A
:100CE00011D09B4800F040FB241A8D41002D02DCFE
:100CF000C4D1002CC2D040BF05B0F0BCBB46B24648
:100D0000A946A046F0BD0C61EBE7424652695B0084
:100D100093465344DB009B445B469E68DF6800F0CB
:100D200023FB801BB9410029B1DB002F00DAE5E08D
:100D30005B46884A1B69934200D1D8E041465A4637
:100D40000820085E5288000410435A4651699847AB
:100D500004000D0023002B4300D1CFE0002D00DB69
:100D6000E8E0361BAF4134003D005B469C60DD602F
:100D70000021595E002900DA89E743465B692200B9
:100D80009C462B0048004018C00060448668C76835
:100D9000921BBB41002B00DA79E74346664602000E
:100DA0000094019519810CE07B00DB19DB00F3183E
:100DB000009801999C68DD68001BA941002904DBAB
:100DC0001A000023D75E002FEEDA5B461F805346E1
:100DD000138043469B881BB2002B00DA5DE7434635
:100DE0001A69EFF3108172B61368002BFCD0BFF3C1
:100DF0005F8F43469B8842461BB29A4601235B4263
:100E000093801369BFF35F8F00221A6081F310880B
:100E10005346002B00DA40E743465B699C460823B3
:100E200043449B4653465F0043465744FF00082215
:100E30009A5E67445E46BC68FD68002A19DB3B0089
:100E40000094019567469C4604E01E000023F25E74
:100E5000002A0BDB0098019953009B18DB00FB185C
:100E60009C68DD68001BA9410029EEDA6346BC4698
:100E70001F005346338000217B5E3A809A46002B48
:100E8000D0DA43469B79002B00D10BE70023424682
:100E90009371434646460821595E08364B1C00D1E3
:100EA00029E747468C46556902E006004B1C17D0DF
:100EB0004B005B18DB00E8180A00E95E43881BB2B0
:100EC000002BF2DA01235B42DC178360C4606245C9
:100ED000ECD031803B89944603803A814B1CE7D1AA
:100EE000B8466446E1E66B1C00D0ECE6F9E65B46EA
:100EF0005C69200023699847002821D15B4642465F
:100F00001B8813811269EFF3108372B611680029F0
:100F1000FCD0BFF35F8F4246594652880A80424652
:100F2000514651801269BFF35F8F0021116083F336
:100F30001088ACE6064800F017FA24184D4114E773
:100F40006568246806E7C046BC1F00203C70054069
:100F500000400540510C0010074810B50268EFF33F
:100F6000108172B61368002BFCD0BFF35F8F04F0C2
:100F7000EDF80020002110BD7C22002070B52E4C21
:100F80002569002D04D00A212C48FFF7FDFD70BD16
:100F90002B4E0321300000F0DDF9E660FFF7F2FA96
:100FA000284B03229C46D02322701B061B6801217C
:100FB0006370254B6044A3600F23800020610220F2
:100FC000638063694942A1801980023119864731E3
:100FD0001D83585218315A5275325C399952183261
:100FE0000131995218320131995218320131995216
:100FF000083518329D520231183299521832013197
:1010000099521832013199521832013199521832DD
:10101000013199521832013199520C4B0C49DC6064
:1010200001303562FFF72EFB01210320FFF7F2FAB2
:10103000084B1D60A7E7C0460C1000207C22002052
:101040000040054040000034FFFF1000BC1F00209E
:10105000510C001038600540004870470C1000200B
:10106000F8B51F0008AB1B7804001600002B07D151
:1010700000F082F932003B00121A8B41002B4CDB4E
:101080002269EFF3108072B61368002BFCD0BFF317
:101090005F8F62690223E15E94464B005B18DB00C0
:1010A0006344002901DB1A8862802269BFF35F8FE5
:1010B0000025156080F31088002930DB069A9E60B9
:1010C000DF601A61079A5A615A8801325204520C41
:1010D000161C002A1FD0B0B20A045E801043266995
:1010E000EFF3108572B63268002AFCD0BFF35F8F31
:1010F000A2881A80A1802369BFF35F8F00221A6043
:1011000085F31088074923788C4601329A40E368BA
:1011100063441A60F8BD0126DDE70020FAE70120EC
:101120004042F7E73C20000070B5C646010000B51C
:101130000469EFF3108C72B620680028FCD0BFF36E
:101140005F8F02200D5E48696C0080466419E400E0
:101150004444002D01DB208848800869BFF35F8F7D
:10116000002606608CF31088002D30DBE360638876
:101170000598013320615B0406985B0CA2606061F6
:101180001A1C002B21D090B22B04628018430A69EC
:10119000EFF3108672B61368002BFCD0BFF35F8F9D
:1011A0008B8823808D800B69BFF35F8F00221A60CC
:1011B00086F310880B7801329A40CB6805498C463B
:1011C00063441A6040BCB04670BD0122DBE70120D9
:1011D0004042F7E73C20000010B543890A149342CF
:1011E00033DD53009B184269DB0094460469634475
:1011F000EFF3108C72B62268002AFCD0BFF35F8F29
:101200005A88090494B2090C8A4208D00369BFF3D2
:101210005F8F00221A608CF31088002010BD80229E
:10122000120214435C80012302698371BFF35F8F54
:10123000002111608CF31088054902788C46934098
:10124000C268012062441360E8E70020E6E7C04678
:101250003C20000040787047F0B5CE46474680B548
:1012600004000D0083B0EFF30587002F0DD0364A40
:101270000020536A8B4203D3926A0130A24250D3BA
:1012800003B0C0BCB946B046F0BD304B9846DB68F1
:101290009946434648461E7800F066F80B004946DA
:1012A00002000436B600715820008E1A2900801AF8
:1012B00099418F4211DC0ED020BF234A0020536A8F
:1012C000AB42DDD3926A0130A242D9D2E81A421E63
:1012D0009041C0B2D4E78642EED900F04DF822002A
:1012E0002B00121A8B41002B20DB00230193184B9B
:1012F0002200009340462B00FFF716FF011E15DD6C
:10130000114B2E005A6A95421CD89B6AA34217D3F0
:101310004046FFF761FF0C4A0020536A9E42AFD857
:10132000D0E7581A421E9041C0B2A9E7064A0020F1
:10133000536AAB42A4D3926A0120A242A0D2C5E76D
:101340009542E5D120BFE3E7004005400C100020A6
:10135000590F001010B5024A0248FFF7A3F810BD5C
:101360002C8D0010481B00200300416A0A00986A77
:10137000596A8A42FAD17047034B596A0A00986A3F
:10138000596A9142FAD170470040054070B5040097
:101390000D00124A536A1900966A536A8B42FAD1B9
:1013A0003000190024184D41AB4211D80ED02B004B
:1013B0000A494A6A9A42FCD307D1084A02E0516AB4
:1013C000994202D1916AA142F9D370BDA642EED9E9
:1013D000012301246442E5175B42E9E70040054030
:1013E0001F4B70B598420BD84201121A9200101888
:1013F0001C4AC000916A936A5B1A9842FBD870BD80
:10140000FA2200239200002100F046FE04000D00A5
:10141000144A536A1900966A536A8B42FAD1300013
:10142000190024184D41AB4212D901230124644212
:10143000E5175B420B494A6A9A42FCD3DFD1094A5D
:1014400002E0516A9942DAD1916AA142F9D3D6E712
:10145000AB4201D02B00EDE7A642E6D8FAE7C04642
:101460009BC4200000400540F8B5040006200D0094
:1014700000F076F9002842D0364B3749E218534243
:101480005A418023DB039C469205344B62441A6028
:10149000334B1A6010000B689843FBD12D4B802111
:1014A000E3185A4253412F4A5B00490099520620E3
:1014B00000F056F92900C00000F050FB0130C309CC
:1014C0001ED1402701226262A362266BF30722D459
:1014D000E36A254B0620E51800232B60266300F005
:1014E0003FF93900800000F039FB7022E36A5A406E
:1014F0007E2313402B601D4B23630323A364F8BD9D
:101500001B4A93421ED900231A4A1B4F6262A362F0
:10151000266BF307DCD5194B144AE3181A60656A89
:10152000A26A0620AD01AD1800F01AF9144900F0C6
:1015300015FBAD020100280000F010FB0021FFF7B1
:1015400025FFC5E74006800E9F011A003F180300E3
:10155000B9E7C0460080FCBF08C0004000E0004082
:1015600000F00040882200202C1000000103000041
:10157000FEFF0000FFFF0000C0FF3F003030000012
:101580004E0E0000F8B5DE464E4657464546E0B5DD
:101590008B4605000A991800160000F0DFFA0A9B36
:1015A0006C001F02324B64199C46A40064446368BB
:1015B00081469F4200D967602B1FDBB29846012B02
:1015C00030D9C02380229B01E31812011A60294BF5
:1015D000AD0059599A4600291BD122687601724004
:1015E000E0268023164042465B01E3181E60012A74
:1015F00030D9802380229B01E31812011A605346E0
:101600004A4667605A51F0BCBB46B246A946A0465E
:10161000F8BD586900F0A2FA431C5800C0180338FE
:10162000FDD2DAE75B46012BCBD1C02303229B011D
:10163000E3181A60023AA3681A42FCD0E023226839
:10164000760156401E4080230A4A5B019246E31809
:101650001E60AD005A462168514003220A401A60BC
:1016600001225B469A40A3681A42FCD0C1E7C046FB
:10167000008000404C1B0020F0B546464F46D64641
:10168000C0B51F00344B44009C462418A400644499
:10169000636888461600FF2B02D880235B006360D6
:1016A000031FDBB29A46012B30D9C02380229B0155
:1016B000E31812011A60294B8500595999460029EF
:1016C0001BD1226876017240E026802316405246E4
:1016D0005B01E3181E60012A30D9802380229B0120
:1016E000E31812011A6080235B0063604B465F5170
:1016F000E0BCBA46B146A846F0BD586900F02EFAE3
:10170000431C5800C0180338FDD2DAE74346012BCA
:10171000CBD1C02303229B01E3181A60023AA368CD
:101720001A42FCD0E0232268760156401E408023F6
:101730000A4A5B019146E3181E6085004246216813
:10174000514003220A401A60012342469340A26896
:101750001342FCD0C1E7C046008000404C1B002073
:10176000014B8000C05870474C1B0020F8B50400A6
:1017700020481D0017000E0000F0F0F901003800AD
:1017800000F0ECF9069B29041B0319432368002B86
:101790001EDB194B194DE21853425A4180235B015D
:1017A0009C461203164B62441A60164B1A601700CF
:1017B0002B689F43FBD1144B2660E2182123A060C5
:1017C00013602368002BFCDA0823E1601360F8BD86
:1017D0003F2322681340B342DBD1A3681B051B0DD6
:1017E0008342D6D1EE22E368D20213408B42D0D19D
:1017F000EDE7C046001BB7000040FDBF08C0004039
:1018000000E0004000F000400430000010B514007B
:1018100080221B4BD2051A6000281AD00123194AD6
:101820001843194BDA61194A42401A6259629862A8
:101830008022134BD2051A601549164A1160E02226
:10184000D2041A60002C07D18022134B12061A60B2
:1018500010BD0D4BD861EBE763011B1B9A00802381
:10186000121912015B049A4200D30C4A0C4B1A6005
:10187000054B5A608022084BD2051A60E8E7C04643
:1018800000B00540D3C007B0008005402D3FF84FA1
:10189000FCFF01000820014000A00540FFFFFF0001
:1018A000AC1F00208023024A9B000B43D362704789
:1018B00000800540142310B50100188804331B88EC
:1018C000984710BD162310B50100188802331B88F5
:1018D000984710BDF8B54746CE4680B50F1E19D0C3
:1018E00014239946043304000025012698464B46EC
:1018F0001888434621681B88984701C4431E9841B5
:10190000013540420640AF42F1D13000C0BCB9467B
:10191000B046F8BD0126F8E7142370B50400188816
:1019200004331B880D000549984703000020002C54
:1019300001DB0130A04029009847C0465542000015
:10194000AA23064A1B0113608D235B00D360044960
:10195000044B19605368002BFCDA704700400240CA
:1019600000B0FA00006002407047C04610B5014860
:10197000FEF77AFD508D001070B5074D074EB54249
:1019800009D20024013E761BB60808CD98472300F3
:101990000134B342F9D170BD408C00107C8C001032
:1019A00070B5074D074EB54209D20024013E761BA3
:1019B000B60808CD984723000134B342F9D170BD71
:1019C000748C00107C8C0010054B064A06491A6086
:1019D000064A074B1A6010000B689843FBD170470A
:1019E00000E00040BFCDFBFE08C00040FE7F3C0091
:1019F00000F00040044BDB6C002B03D18022034B32
:101A0000D2021A607047C046000011504C2011509D
:101A1000044A054B1A60054A1368DB018033FBD189
:101A20007047C046FFFFFF0100F0004008C00040C3
:101A30004022034B9A675A671A67DA667047C046B6
:101A400000F0014010B5FEF7C5FD10BD70B5044DA6
:101A5000044C2800C022A16800F08EFBA56070BD78
:101A60000000002000ED00E0002310B5294C82B0FA
:101A7000A367FFF765FF0122274B1A60636C012BF8
:101A8000FCD10322254B1A60224A936B012BFCD117
:101A9000013300930121224A22480433FFF766FEF6
:101AA000052301210093204A2048FFF75FFE002212
:101AB000022104201E4BFFF7DFFD0022012105203B
:101AC0001C4BFFF7D9FD0022002107201A4BFFF71E
:101AD000D3FD002200210820174BFFF7CDFD802306
:101AE000DB000093002200210920134BFFF74AFD81
:101AF0000022104B00210620FFF7BEFD0420FFF757
:101B00002FFE0E4900F02AF801000020FFF7CAFE60
:101B100002B010BD008000403CB0004030B000403A
:101B2000002F685900800240008C864700C00240A8
:101B3000001BB70040597307006CDC0240420F00E5
:101B400001480421014B184730100020D51800101F
:101B5000014B5B681847000030100020114A936F5A
:101B60009B0813D210665166002905D0FFE7FFE7F6
:101B7000FFE7516F106F704704B5002801D00020B7
:101B8000C04307F015F8002104BDC046F0B5146E3F
:101B9000556E576F166FFFF7E5FF1466556657676A
:101BA0001667F0BD000000D094464A4A926F920832
:101BB000624601D228E0C046F0B5464E346E756EDE
:101BC000776F366F00F020F89446424A14665566E7
:101BD000576716676246F0BD94463E4A926F920878
:101BE000624601D254E0C046F0B53A4E346E756E8E
:101BF000776F366F00F04CF89446364A1466556697
:101C0000576716676246F0BD002B24DB11D0002910
:101C10003EDA00B5C943404200D1013100F038F846
:101C2000C943404200D10131DB43524200D101336C
:101C300000BD002AEBD1002801D1002905D00020E9
:101C4000C90FC90701D1C043410800B506F0A0FF84
:101C50000022002300BD00B500290ADBDB4352420D
:101C600000D1013300F014F8C943404200D10131E2
:101C700000BDC943404200D10131DB43524200D193
:101C8000013300F005F8DB43524200D1013300BDBF
:101C9000002923D1002B18D1002A0CD0BC460D4FAF
:101CA00038667A6600210023FFE7FFE7FFE77A6FD7
:101CB000386F67467047002801D00748010000B51B
:101CC00006F066FF0022002300BD02000B0000208A
:101CD00000217047000000D0FFFFFFFF002B00D065
:101CE000BFE0130C28D1002AE7D080B4114F396629
:101CF0007A66FFE7FFE730B4040C7B6F396F1B0493
:101D000023433B667A66FFE7FFE7FFE7C04684B2FE
:101D10007B6F3D6F1B0423433B667A66FFE7FFE75B
:101D2000C04600232C042D0C7A6F386F00196941CE
:101D3000B0BC7047000000D0F0B594460025140EEA
:101D400001D112020835140F01D112010435940F8C
:101D500001D192000235D40F01D152000135D40BCC
:101D60000134254F7C66254C3C660E0C93B2FFE790
:101D7000FFE7FFE73C6F6643360C7703BE467343CD
:101D8000DF0B5B04C01AB941130C7343DB18C91A8B
:101D9000CE086643360CB64493B273431F0F1B0143
:101DA000C01AB941130C73431F0B1B05C01AB9416C
:101DB000860D8F023E436643360C092D24DB520A02
:101DC0007243801A7703460A6643360C16235B1B60
:101DD000DE40DF40BF1964466643821B704604350F
:101DE00006330100D940A840C01900D30131A242F6
:101DF00006D20023F0BD0000000000D0FFFFFFFF6F
:101E0000121B0130F3D3F1E709277F1BFE40644624
:101E1000A2B27243801A00D20139220C7243130C11
:101E20001204821A99410B007046043513370100E1
:101E3000F940A840801900D30131002B02D1A24201
:101E40000AD2F0BD013000D30131121BFAD2013B9E
:101E5000F8D1A24200D2F0BD013000D30131121BF3
:101E6000F7E7F0B51C0C00D080E00CB400251C0A8C
:101E700004D11B02160E3343120208351C0B04D189
:101E80001B01160F3343120104359C0B04D19B0038
:101E9000960F334392000235DC0B02D192185B415E
:101EA00001351C00971864410134464F7C66464C4E
:101EB0003C660E0CFFE7FFE7FFE7C0463C6F66435A
:101EC000360C7703BE4697B27743C01B00D2013968
:101ED000C01B00D201399FB27743C91BC91B170C25
:101EE00077437E04FF0B801BB941CE086643360C56
:101EF0000C2D33DBB644120B1F053A431B0B97B274
:101F00007743C01B00D201399FB27743C91B170C1E
:101F100077433E043F0C801BB941860D8F023E4340
:101F2000664329277F1BFE400C3D7746AF40BF1913
:101F300030BCA2B2ABB272437343801A9941220CF7
:101F40007243130C1204801A994102000B000137EE
:101F5000001BA941F9D2781E0021F0BD0C277F1B80
:101F6000FE4077467F0BAF40FF19E0E700245D1C81
:101F700007D0144F7D663966FFE7FFE7FFE7FFE70D
:101F80003C6F95B29EB265436643401BB141150C50
:101F90001E0C6543664336042F0C3E432D04401B44
:101FA000B141994204D202000B0020000021F0BD93
:101FB00001D19042F7D3801A994101349942F2D36A
:101FC000F6E70000000000D0FFFFFFFF132370B50D
:101FD0001D78012D19D014DD1E48FFF773FC060093
:101FE0001D48FFF76FFC1D4C80223100200000F0DF
:101FF000C3F8022D06D01A48FFF75CFC194B186095
:1020000070BD164C184BA364F5E7174B134C2360B7
:102010006360A360E36023616361A361E3612362A2
:102020006362A362E36223636363A363E363236482
:102030006364A364E36423656365A365E365236662
:102040006366A366E36623676367A367E367A364C6
:10205000D1E7C04653440000534600004012002020
:102060004C330000782200206D20001007B5604638
:1020700001880A0A0230DF2AFAD1C9B2820804D3E1
:10208000028840880004104300E00068014A505074
:10209000039007BD4012002051434343C9188C46AA
:1020A000110C83B24B4310B4040C614392B280B262
:1020B000504362431C041B0C001910BC594113040B
:1020C000120CC0185141614470470000132310B531
:1020D00012481C78FFF7F6FB0100012C0AD003DD43
:1020E00080220F4800F048F80E48FFF7E3FB0E4B44
:1020F000186010BD0A4C5422200000F03DF80B4B34
:102100006365A365E36523666366A366E366236789
:102110006367A367E3672362E361E5E75346000073
:10212000401300204C3300007822002031210010A1
:1021300007B5604601880A0A0230DF2AFAD1C9B21F
:10214000820804D3028840880004104300E000683D
:10215000014A5050039007BD40130020014804215C
:10216000014B184740100020D5180010014B1B6888
:102170001847000040100020014B5B681847000022
:102180004010002010B5002800D110BD00F038F933
:10219000FBE7C04610B5094A0300146884B0002C60
:1021A00008D0012200910648524203A9A04701200D
:1021B00004B010BD00F070F90020F9E7A81F00205E
:1021C0008521001000BEFDE710B5FFF7FBFFC046FC
:1021D00070B5FFF7D1FB074D074EB54209D2002479
:1021E000013E761BB60808CD984723000134B34260
:1021F000F9D170BD7C8C0010888C0010030010B5E4
:10220000080011001B68984710BDC046F0B546464F
:102210004F46D646C0B5437D80460E001700002BC2
:1022200046D0002A3FDD4B1E9946244B0125002451
:1022300000209A460DE04B461B5D0D3B5A42534130
:10224000325DDBB20A2A0BD02B00013401359F42EC
:102250001ADD002CEFD14346325D1B7D0A2AF3D1F3
:10226000002BF1D1A04204DA4346211A1B68301832
:102270009847434650461B6802219847013428007E
:102280002B0001359F42E4DC874204DD4346391AC6
:102290001B6830189847F619013E33780D3B5A42B7
:1022A000534142461375E0BCBA46B146A846F0BD5C
:1022B0000368110030009847F5E7C046E88D00102C
:1022C000F0B5DE4657464E464546E0B585B01700A8
:1022D0001C0006000D00FFF74FF80023314A1218CA
:1022E0004B41002B59DB304908008A4606F078FC48
:1022F00001906B1C03D1300006F00AFC0500002C95
:1023000026D12A4B98462A4B1C68002C15D0002F4A
:1023100021D1284F02E02469002C0ED02368002B25
:10232000F9D03B68002B01D0A342F4D120002A0051
:102330003100C0472469002CF0D1019B002B28D12B
:10234000280005B0F0BCBB46B246A946A046F0BD89
:10235000194B9846D7E7174B994602ABDF1D0A2366
:102360009B4602E02469002CE7D02368002BF9D0BB
:102370004B461B68002B01D0A342F3D12A00310049
:102380002000C0475B460122390020003B70C04757
:10239000E8E7504606F0F4FBD2E70122074B524231
:1023A000A1E7C04640420F00AC100020FD21001004
:1023B0009C1B0020A41B00200D220010FFFFFF7FAC
:1023C0000A4A1368002B05D10CE01A001B69103271
:1023D000002B07D09842F8D1002902D1036913607D
:1023E000016170470029FCD01060FAE79C1B0020B7
:1023F00010B500F039F900F07FFB012010BDC04698
:10240000F0B5CE46474680B583B06B460600DD1D6D
:102410002870FEF7B1FF00231A4A12184B41002B17
:102420002BDB19490800884606F0DAFB174B81467A
:102430001C68002C14D0164F02E02469002C0FD029
:102440002368002BF9D03B68002B01D0A342F4D1C4
:10245000200001222900FFF7D9FE2469002CEFD1CA
:102460004B46002B05D1300003B0C0BCB946B04686
:10247000F0BD404606F084FBF5E70122054B5242D1
:10248000CFE7C04640420F00AC1000209C1B00204C
:10249000A41B0020FFFFFF7F70B5040006F038FB8F
:1024A00001230100050001222000FFF709FF084B6E
:1024B0001C68002C06D06368002B05D0984724695F
:1024C000002CF8D1280070BD2469002CF3D1F9E765
:1024D0009C1B0020F0B50D1E15DD0E4B0D271A6854
:1024E0000D4B4519D31859424B410C495B005E5EB8
:1024F00020210478A64207D093691942FCD101300B
:102500001460A842F5D1F0BD93691942FCD117605F
:10251000F2E7C0468C2200200080FCBF8822002009
:1025200030B504000D1E24DD002010211A4B013CA3
:102530001A689369194217D1013093691942FCD185
:10254000136823548542F4D1144B1B68002B0AD026
:1025500050239363516B183B0B4011498C466244E6
:102560001360002814D030BD0C4B1B68002BEFD13A
:10257000F7E70A4B1B68002B0AD05022064B1B685A
:102580009A63596B183A0A4005498C4663441A60AD
:1025900003204042E7E7C0468C220020341B002085
:1025A00034100000064B10B51B68002B06D000212C
:1025B000044A12689163044A1068984710BDC046E7
:1025C000341B00208C2200203C1B00200822034BDF
:1025D00019688B691A42FCD17047C0468C220020D2
:1025E00070B51B4E1B4B32680500D318584243414F
:1025F00014331C00002D04D0174B1A68002A11D088
:1026000070BD154E3368002BFAD000212000956371
:10261000FEF700F820001149FEF752F9104B356023
:102620001D60EDE71D600E4B200019600B49FEF7A1
:1026300029F801212000FDF7EDFF502233689A634D
:10264000596B183A0A4007498C4663441A60D7E729
:102650008C2200200080FCBF341B0020A525001028
:102660003C1B0020341000000D4B10B51B780D4BA7
:102670000D4C1B780D4B02211B780D4B0020236065
:10268000FDF7B2FE02210120FDF7AEFEE121206838
:102690004902FEF7E9FE01210648FFF791FE10BD51
:1026A00084910010889100108C2200208C910010E1
:1026B00000400340501000207047C0460022014BEC
:1026C0001A707047A92302204B790020FF2B0BD1F1
:1026D0008B79002B08D1CB79012B05D1082A03D99E
:1026E0008A78024B09301A707047C046A92302202D
:1026F0000120704710B5012909D115495379107986
:1027000009781B0203430020994202D010BD01202A
:10271000FCE75378012B08D0022BF7D1002064226C
:102720000021FFF773F80120F0E7D37891781B02BE
:102730001943DB0507D54A0A100001231A407E33EE
:102740001940FFF7E9F801204A0A4042F5E7C04680
:10275000A923022000487047548E001070B5050070
:1027600014000120012909D153780020012B05D143
:10277000637912791B021343072B00D070BD21002F
:102780002800024A9F3301F061FAF7E7788E0010C3
:102790000123037000487047348E001048780B788E
:1027A0008A7800021843120410439622CB7810B5A1
:1027B0001B060343D200934200D010BD002201202B
:1027C00011004042FFF7A8F8024B1860024B196055
:1027D0007047C046381B0020401B002010B5024B3C
:1027E0001878FDF735FF10BDAA230220154B70B5F0
:1027F0001A68002A22D0EFF3108172B61068002800
:10280000FCD0BFF35F8F00220F48596002701B6835
:10281000BFF35F8F1A6081F31088002400250B4EF0
:102820003078FDF709FF002804D100240025290095
:10283000200070BD3078FDF70BFFF8E7FA24002583
:10284000A400ECE7B41F0020AB230220AA2302203F
:1028500070B5040000200E0001F022FB002835D0E6
:10286000002001F033FB002830D0FEF785FD002367
:10287000184A12184B41002B24DB174D280006F094
:10288000AFF9002822D0002001F00AFB00280BD16C
:10289000012000210324404200F00AFD6442280088
:1028A00006F06EF9200070BD002001F00FFB00283B
:1028B000EED021003200002001F014FB041EEED106
:1028C000033CECE70122054B5242D6E70324644265
:1028D000E8E7C04640420F0080220020FFFFFF7F54
:1028E00010B5FEF749FD00230E4A12184B41002B8C
:1028F00013DB0D4C200006F073F900280CD00120EA
:102900000021404200F0D4FC002001F035FB0028FB
:10291000F5D1200006F034F910BD0122034B5242DC
:10292000E7E7C04640420F0080220020FFFFFF7F04
:10293000F8B5DE46574680B505000C00FEF71CFDD5
:102940000023364A12184B41002B5ADB3449080049
:102950008A4606F045F9002803D1C0BCBB46B24602
:10296000F8BD002001F09CFA00284ED00026002C73
:1029700043DD2C4B9B4614E0A919002001F038FBE5
:10298000070001200021404200F092FC002001F0ED
:10299000F3FAFEF7F1FC234BF61918605960B442C4
:1029A0002BDD002001F046FBA71B0200B84200DD32
:1029B0003A00002AE0D101200021404200F078FCDA
:1029C000002001F0D9FA002001F06AFA002814D0A2
:1029D000002001F02FFB0028E1D1FEF7CDFC5B4683
:1029E0000F001A685B68002184460F4812184B419B
:1029F0009F4202D8D3D19445D1D9504606F0C0F8B1
:102A0000ABE70122094B5242A0E700200021054B11
:102A100018605960504606F0B3F89EE740420F0038
:102A2000802200203812002020A10700FFFFFF7F36
:102A300030B52A4C85B00021200006F0C1F80028EE
:102A40001CD1274B1A68002A16D0EFF3108172B6FA
:102A500010680028FCD0BFF35F8F01242148596023
:102A600002781B68D2B20470BFF35F8F0020186039
:102A700081F31088002A17D005B030BD0120002155
:102A8000404200F015FC002001F020FA0500200073
:102A900006F076F8002DEFD0134B1B68002BEBD01F
:102AA000124A10689847E7E7FEF7D6FA0400FEF7E7
:102AB00063FCFA220023920012184B41002B09DB21
:102AC0000121029100210191094920000091FEF7A6
:102AD000C7FAD1E70122074B5242F1E780220020DA
:102AE000B41F0020AB230220381B0020401B002015
:102AF000ED270010FFFFFF7FD02310B51B0684B029
:102B00001C68FEF7A9FAFEF7A5FBA04202D0002040
:102B100004B010BD294B002100201B7801F07EFD80
:102B200027480368002B41D00120FEF719F8FF2346
:102B3000244C254920701840FDF7A4FD2078012180
:102B4000FDF768FD0520FDF78BFD002821D1082247
:102B500000211E48FFF70AFBFEF77EFA0400FEF78D
:102B60000BFCFA220023920012184B41002B20DBB1
:102B70000121029100210191154920000091FEF7E9
:102B80006FFA0028C3DB13480121FFF719FC01206D
:102B9000BEE70120FDF70EFD01000C48FEF74EF8E0
:102BA000002205200C49FDF797FDECE7FEF728F819
:102BB000BAE70122094B5242DAE7C0469091001071
:102BC00080220020AA230220312A0010B41F0020F6
:102BD000ED27001068100020DD270010FFFFFF7FA9
:102BE00000487047C08F0010004870476C8F00107D
:102BF00070B5040017480378002B21D0002C06D1B3
:102C0000C1241548154BA4004380048070BD052CD9
:102C10001DD8134B1048A400E558811C002304E084
:102C200001330A800231132B0ED0EA5CDCB2002A99
:102C3000F6D1C0230134E4B264009B001C43E4E7F6
:102C4000112100F017F8D9E7CA24A400DDE700201D
:102C5000DCE7C046A0220220741B0020090400000B
:102C6000D48F001010B5024800F0D8F810BDC0464F
:102C70007022002030B54B1E012900D1A7E0664A22
:102C800011780D112C0030349F2900D9A2E0047076
:102C9000012B00D1BEE00F21147821400C0030340C
:102CA000092900DD98E04470022B00D1B2E054788D
:102CB0002511290030319F2C00D990E08170032B21
:102CC00000D1A7E00F2121400C003034092900DD9C
:102CD00087E0C470042B00D19CE094782511290072
:102CE00030319F2C00D97FE00171052B00D191E09C
:102CF0000F2121400C003034092900DD76E04471B9
:102D0000062B00D186E0D4782511290030319F2C84
:102D100000D96EE08171072B00D17BE00F212140AB
:102D20000C003034092966DCC471082B00D171E035
:102D300014792511290030319F2C5FD80172092B9D
:102D400068D00F2121400C003034092958DC44722E
:102D50000A2B5FD054792511290030319F2C52D88D
:102D600081720B2B56D00F2121400C0030340929E1
:102D70004BDCC4720C2B4DD09479251129003031D5
:102D80009F2C00D9073101730D2B43D00F21214017
:102D90000C003034092901DD37310C0044730E2B4F
:102DA00038D0D1790C11220030329F2900D9073256
:102DB00082730F2B2ED00F220A4011003731092ABF
:102DC00001DC30321100C173102B23D010300023EE
:102DD000037030BD07345AE737310C0063E7073121
:102DE0006CE737310C0074E707317DE737310C00B1
:102DF00085E707318EE737310C0095E707319DE70E
:102E000037310C00A3E70731AAE737310C00C47251
:102E10000C2BB1D1C018DAE77022002030B50025A4
:102E200089B004000922002101A80095FFF79EF94E
:102E30000922002105A80495FFF798F94B236A465B
:102E40006846137004A90D2205F092FE1521082290
:102E500020006944FFF790F909B030BDF8B500F0E3
:102E600045F90C23194DFF22AB6705201849FDF7E2
:102E700033FC184C402200212000FFF777F940274F
:102E8000002301262121144A66702783A260136063
:102E900063545F31618445396354104A104963605B
:102EA000E2602787A1620B606362E26205F078FE50
:102EB00080239B052E64EB6490230A4A0120EA508C
:102EC0008022094B5202DA64F8BDC046000011505E
:102ED000C9040020A81B00208400105000011050DD
:102EE0008000105010D001000020115010B50121B9
:102EF0000520FDF78FFB10BD10B500220021024810
:102F000000F014F910BDC046C81B0020044B197016
:102F1000002904D080219023024A8902D1507047B1
:102F2000A5230220002011500B785B0602D14B78BC
:102F3000052B00D070478A78014B1A60FAE7C0462B
:102F400000001150F0B5C646C87800B58007830F61
:102F50001800012B61D08F780C794B797F211B02EF
:102F6000394023434E00FC09334D32195201AA184F
:102F7000977001276740577000275B055B0DD7707E
:102F80001383D076B846CA00012C32D02B4FBC46F2
:102F90008F016244BC46AC446746BA60474617603E
:102FA000002932D0264AC900904662464144516009
:102FB0003F223F339343022838D0224937190A6809
:102FC0007F01D3180B602049EF19FA608B422FD88C
:102FD000341964012D19EB7E1C499B064A401343AA
:102FE00080220120120613436A68136080BCB84631
:102FF000F0BD174FBC468F016244BC46AC446746E7
:10300000BA6247461760002909D1002364012D19CF
:103010006B60104B0120EB60E8E70020E6E70B4A0D
:10302000C9009046624641445162C1E75B00C4E773
:10303000FEF79CFCFA68CBE7A81B00208400105028
:1030400004001050B01F0020FF0F1050000010505F
:10305000800010500001105010B505F0A1FD10BD0A
:1030600010B57F200C0020404000E4091100001939
:103070001A00034B4001C01800F058F8012010BDA1
:10308000A81B00207F22130010B50B400A420BD072
:10309000C909802258004018064940014018120111
:1030A000002105F0B5FD10BD02220348C909521ADE
:1030B0008266EEE7A81B0020002011507F2210003E
:1030C00010B508400A4200D110BD0023C9094000D4
:1030D000401804494001081800220349C37005F054
:1030E00097FDF1E7A81B0020FFF7FFFF80220A4BA6
:1030F000520410B51A60094B09491A6010000B6898
:103100009843FBD18022002152010648FFF72EF898
:103110000922054B5A6710BD00E0004000F0004056
:1031200008C00040000010500000115070B5837EB0
:1031300004000D001600002B17D10023E382013399
:103140002000A682A376256105F072FD002804D038
:1031500080219023084A8902D150200005F060FDAB
:10316000002805D00123237770BD05F049FDE4E771
:10317000200005F03DFDF7E7002011507047C046E4
:103180007047C04600207047002070477047C04617
:103190007047C0467047C0467047C046024B5878DB
:1031A000431E9841C0B270474C160020024B18785D
:1031B0004007C00F7047C0464C160020F0B5464689
:1031C0004F46D646C0B52F4B814698461B780E0019
:1031D0000124FF2B43D1002940D0002154222A484A
:1031E000FEF7C4FF0022294C294B20001A70FDF77E
:1031F00007FD284B1C60284C20001430FDF70EFD05
:10320000200001F0F7FD254B254D1C60254B002BC0
:1032100004D02800FFF7BCFA234B18602349002490
:1032200000238A462A78204F10E03A6863019446CA
:103230006344002B12D05B68002B0FD098472A788C
:103240000134E4B2511C2300A1420EDBA242ECD8AF
:103250009B1A5B0153445B68002BEFD100242000D4
:10326000E0BCBA46B146A846F0BD43464A463100E6
:1032700048461A70FFF7F2FD041EEFD04846FFF7EC
:1032800035FEECE79C1000204C1600204416002070
:10329000A6230220A016002080100020A4160020E3
:1032A000A4230220912700109C140020F09000100D
:1032B000F0B5DE4657464E464546E0B5C44B8BB0AA
:1032C0001B78FF2B00D12EE1C24BC34D9A4607ACB1
:1032D0002E687269EFF3108172B61368002BFCD070
:1032E000BFF35F8FB1613000210001F0C5FB72694F
:1032F000B369BFF35F8F0021116083F3108800284A
:1033000000D110E16378082BE2D852469B00D358D5
:103310009F466368002BDBD0A0689847D8E77F23DF
:103320002179AE4E0B405800CA093618B618320043
:10333000012730321079B843107110790337B84340
:103340001071002B00D1F7E0A54A337D127893422B
:1033500000D3E5E0A34A5B011268D318002B00D12B
:10336000E1E09E6962792078A368B047B0E79E4AA1
:103370001378002B00D1D6E01378013BDBB2137039
:103380001378002BA4D10122944B01211B78934880
:103390001343924A914E13703423D25C8A43C25431
:1033A000C25C04208243F2540133F25C8A43F2543B
:1033B000F25C8243F254237800209B4600F0AEFC7E
:1033C000602223791A40602A0DD0402A00D1BEE045
:1033D000DB06DB0E012B00D10EE1022B00D1D0E089
:1033E000002B00D1BFE020780021FFF74BFE8021A9
:1033F0002078FFF747FE6BE7784E3378DB0700D481
:1034000066E7FFF7C9FE63E7744BDB78DB0700D4A0
:103410005EE76068FFF7B4FE5AE7704E3378DB076B
:1034200000D455E730780007C00FFFF7B3FE4FE731
:103430006E496B4E23788B466A499846894631001F
:103440003278002346460027884611E04A46126833
:103450007B0194466344002B6CD0DB6830009847B6
:1034600043461A780137FFB2511C3B008F4241DCC2
:103470009742EBD39B1A5B015B44EEE75B49584EE6
:1034800023788B4657499846894631003278002385
:1034900046460027884611E04A4612687B0194465A
:1034A0006344002B21D0DB683000984743461A78EC
:1034B0000137FFB2511C3B008F4205DCBA42EBD80A
:1034C0009B1A5B015B44EEE7444E5422002130001E
:1034D000FEF74CFE1022FF21301DFEF747FE3000A4
:1034E0002022FF211430FEF741FE00F00DFCFFF713
:1034F0004FFEEDE6394E542200213000FEF736FE35
:103500001022FF21301DFEF731FE30002022FF2166
:103510001430FEF72BFE00F0F7FB2379B370D7E6EB
:10352000501C98420EDA0BB0F0BCBB46B246A9461E
:10353000A046F0BD294EEEE762792078A36800F03E
:1035400001FCC5E69B1A294A5B01D31809E7284804
:1035500000F0E4FB0121584608AAFFF7FFF8002815
:1035600000D0B5E63FE7202A00D14EE1002A00D086
:1035700039E76379092B00D935E71E4A9B00D358F8
:103580009F467023217A0B4200D02CE77F26CB097F
:1035900098460E40114B76009B1943441F7D104BFB
:1035A0001B789F425ED3581CB84200DA49E1FF1AEB
:1035B0000E4B7F01DF19002A00D146E1786900F047
:1035C000ADFB012158467B6908AA9847C7E7C0466A
:1035D0009C10002048900010A41600204C160020DB
:1035E000A42302209C140020A6230220F0900010A7
:1035F0005D2700106C900010237A0F2B00D9F2E6A3
:10360000D64A9446D64A63441B791278934234D3FF
:10361000511C994200DAE6E6D24E9B1A5B01F6187D
:10362000706900F07BFB01215846736908AA98472E
:10363000002800D04CE66022160023791E401A4272
:1036400000D0D0E663790A3B012B00D9CBE600F02D
:1036500065FB63790A2B00D150E1584608A900F0B8
:10366000DDFA35E6C04B7F011B68DF19002A00D167
:10367000EBE0002F00D1B6E6A0E7BB4A5B0116687D
:10368000F618002E00D1AEE6CAE7B44BA7795B78F6
:103690009F42E2D0B14B5B78002B00D06AE1AF4B88
:1036A0005F70002F00D155E1781EC0B2FFF79CFA81
:1036B000002800D14AE143780493022B00D045E171
:1036C0000121C279931152110B400A4012015B0192
:1036D0001343A24A2F3112788A4313439F4A13702F
:1036E00009239946C37882781B021343C3180293B7
:1036F0009D4B814498464F46029BBB4200D806E151
:1037000001227B7800920B2B04D1FB7800933B784D
:10371000FF187B78042B00D018E1029BB946DB1B15
:103720009BB203938E4B1E7800231F0001931BE076
:10373000424612687B01D618002E00D106E14946A8
:103740005846039A336998470590082803D9039A85
:10375000824200D3DEE0824B01371E78FFB2731C39
:1037600001979F4200DDF1E0BE42E1D8019B9E1B24
:103770007C4B76019C466644E1E7784B06AA5B7871
:10378000023213705846012308A900F05FFA9FE542
:10379000E088030AC0B20F2B00D924E673499A00CF
:1037A0008A58974608A800F0BFFA5846A179FFF753
:1037B000A3FB0222694B1B781343684A137087E509
:1037C000E388012B00D00EE60822644B1B7893435C
:1037D000624A137041E70220604B197806AB9A1CCD
:1037E0008B068908DB0F01400B43138058460223E8
:1037F00008A900F02BFA6BE5E388012B00D0F2E575
:103800000822564B1B781343E2E7237A0F2B00D98B
:10381000E9E5524A9446524A63441B79127893422E
:1038200027D2514A5B011668F618002E00D1DAE55E
:10383000706900F073FA01215846736908AA984725
:103840008DE60027002A00D0CDE502226379994653
:103850009343012B16D04B46002B00D0C3E53F4BC2
:1038600006AA9B19434430331B7902329B07DB0FB6
:10387000BBE7511C994200DAB5E53A4E9B1A5B0151
:10388000F618D5E7E388002B12D14B46012B24D044
:10389000374B1878FFF7F6FB0221304B9B19434456
:1038A00030331A790A4301211A711A790A431A71BD
:1038B000002F00D10CE5786900F030FA7B6908AA86
:1038C000012158469847002000F028FA3523234A62
:1038D000D35CDB0700D5FBE4BFE6254B1878FFF788
:1038E000EDFB02211D4B9B19434430331A798A4367
:1038F00049461A711A798A431A71D9E706AB9A1C9C
:103900005846012308A9167000F0A0F9E0E4FFF77B
:103910003DFCA2E63B004F469946009B012B00D19F
:1039200089E0009B002B75D000234E46B97805E056
:1039300016710133009ADBB293426AD207485A18D3
:103940008446D2B262441079FF28F1D00023034AA2
:10395000537048E5FFF71CFC7FE6C0464C1600207C
:10396000A4230220F09000109C14002094900010DA
:103970009C10002000215846FFF7C8FA5846FFF770
:103980006BFB454B454E9B78454900938946002388
:103990003100327888461E0011E04A4612687301F1
:1039A00094466344002B22D0DB6858469847434630
:1039B0001A780136F6B2511C33008E4207DCB2424F
:1039C000EBD89B1A374A5B0194466344ECE75422D8
:1039D00000213148FEF7CAFB2F4B1022FF21181D92
:1039E000FEF7C4FB2022FF212F48FEF7BFFB2A4B26
:1039F000009A9A7053E6FEF7ADFE021E00D1F2E483
:103A0000D37891781B020B43584608A900F01EF9A1
:103A1000A5E5B146059E4B4632003900224800F02C
:103A2000A1FEB4461D4B019A1B78674401339342B3
:103A300000DB61E68AE71D4B32699A4200D073E7EA
:103A4000049B009370E7FFF79DFB021E00D1CAE4C0
:103A50005846137808A900F0F9F880E52189FFF7A6
:103A6000C7F8021EF4D1BEE4022B0FD0FFF78CFB87
:103A7000021EC5D1B7E4FFF7B3F8021E00D1B2E4CD
:103A80001223584608A900F0E1F868E5FFF7ACF802
:103A9000021EB5D1A7E4C0464C160020A423022084
:103AA0009C140020F0900010601600202D410010A2
:103AB000F8B557464E46DE4645460C00E0B51600C2
:103AC0001F00002A3CD0702398461E4B00259B46C1
:103AD0001D4B9A461AE05B461B78200099465346D8
:103AE000997800F003FE00281CD021004846FFF71B
:103AF00029FA002816D0A378DA09012A19D00A9ADF
:103B0000013513702378E418B54219DA6378052B70
:103B100008D1E3789B079B0FBB4203D14246A378B1
:103B20001A42D8D00020F0BCBB46B246A946A046F7
:103B3000F8BD0B9A013513702378E418B542E5DB24
:103B40000120F0E79C1000204C160020702270B578
:103B50008B780C001A4201D0002070BD064B20006B
:103B60001D78064B997800F0C1FD0028F4D02100A3
:103B70002800FFF7E7F9F0E79C1000204C16002022
:103B8000074B080019687F2310B50340C0095B008C
:103B900034301818034B181800F064FD10BDC046EF
:103BA000A01600204C160020074B080019687F2340
:103BB00010B50340C0095B0034301818034B1818C7
:103BC00000F078FD10BDC046A01600204C16002065
:103BD0007F2070B508400F4C4000CD0924186419AF
:103BE000303425790020ED0700D570BD01262579F8
:103BF0000948354300782571FFF732FA0028F4D1DF
:103C00000122237993432371237903329343237150
:103C1000EBE7C0464C1600209C10002070B50A4E01
:103C20000500300008220C00FEF7A6FA00237F21D1
:103C3000F3602278B36091425B412800D9010022F1
:103C40000023FFF7C5FF70BD2C160020F8B5CE4647
:103C5000474691462A4E80B50822070030000D00E5
:103C60009846FEF789FA4B46B3600023F381EC795E
:103C7000A97924020C43231C444500D943469AB237
:103C80009046B381002C13D0002A1FD04B46002B46
:103C900034D0131C402A1FD89BB2984633787F2B10
:103CA00020D80021174A43463800FFF791FF09E06A
:103CB0007F222B7838009A42644100230022E101E0
:103CC000FFF786FFC0BCB946B046F8BD33787F2BFE
:103CD00011D980210022E6E740239BB29846337831
:103CE0007F2BDED9074C424649462000FEF744FAB6
:103CF00080212200D7E700210022D4E70020E1E75D
:103D00002C160020EC15002010B5142200210248CA
:103D1000FEF72CFA10BDC0462C160020014B18618E
:103D20007047C0462C16002010B5054C0100082233
:103D30002000FEF721FA0023A360E36010BDC04617
:103D40002C160020F8B5394C1D0023780600DA093E
:103D5000C9098A4210D00020002D00D0F8BD2100F2
:103D60003000FFF7E1F82369002B42D02200032145
:103D7000300098470120F1E77F2B06D8A068002883
:103D800039D02A002A49FEF7F7F9A368E2895919C0
:103D90005219E38892B2E281A160934214D03F2D80
:103DA00012D9A589A81A071C80B240282FD82378D9
:103DB000BFB27F2B2DD80021AA4235D01C4A3B0030
:103DC0003000FFF705FFC9E72369002B05D022006B
:103DD00002213000984700280FD07F22002123784D
:103DE00030009A42494100230022C901FFF7F0FE4A
:103DF000B4E70120B2E70020B0E700213000FFF770
:103E000041F930008021FFF73DF90120A6E7402766
:103E1000CDE7AA4207D0064C3A002000FEF7ACF9E5
:103E200080212200CBE780210022C8E72C16002049
:103E3000EC15002070B50500FFF7B0F9002800D19F
:103E400070BDFFF7B3F90028FAD1C8236B43124ABB
:103E5000D618F1780029F3D010339C18200000F018
:103E6000F5FD3F28ECD90020F178FFF789FE002806
:103E7000E6D0200000F0EAFD3F2808D9EA01074D0E
:103E80004023F17852190020FFF7A2FED8E7F1781D
:103E90000020FFF789FED3E724150020A01400209E
:103EA00010B50400FFF77AF9002801D1002010BDF9
:103EB000FFF77CF90028F9D1C830444302480019C3
:103EC000037901201840F2E724150020C823584345
:103ED00010B5034B1030C01800F09AFD10BDC0465D
:103EE00024150020F0B5C824C64644431E4F1F4B7E
:103EF0001034050000B53C199A4200D91C4A200034
:103F000092B200F009FE8046FFF748F9002803D17D
:103F1000404680BCB846F0BDFFF748F90028F7D10D
:103F2000C8266E43BE19F378002BF1D0200000F0B4
:103F30008DFD3F28ECD90020F178FFF721FE002805
:103F4000E6D0200000F082FD3F2808D9EA01094DA3
:103F50004023F17852190020FFF73AFED8E7F178B4
:103F60000020FFF721FED3E724150020FEFF00000C
:103F7000FFFF0000A0140020F8B50600FFF70EF9BF
:103F8000002801D10020F8BDFFF710F90028F9D171
:103F9000C82474432500144F2435ED19280000F07F
:103FA00037FD0028EED03F190020B978FFF7E8FD73
:103FB0000028E7D00D48F60140363618310040227F
:103FC000280000F0A9FDB978041E08D003003200D3
:103FD0000020FFF7FDFD0028D4D02000D3E700200B
:103FE000FFF7E2FDCEE7C04624150020A014002014
:103FF00070B5C82444430C4B2434E4180B4B050023
:104000009A4200D90A4A200092B200F03FFE060010
:10401000200000F0FDFC3F2801D8300070BD2800D2
:10402000FFF7AAFFF9E7C04624150020FEFF0000B5
:10403000FFFF0000C823584310B5034B2430C018BD
:1040400000F004FD10BDC04624150020F0B5002589
:10405000184C83B0C82200212000FEF787F8164BC9
:1040600021001D70FF236371E1235B02A360200028
:1040700008234022A37338310095073B103000F02D
:104080008FFC2700012321002000260040227831E8
:104090000093B837243000F083FCC0363800FCF7BA
:1040A000AFFD3000FCF7ACFDE56127622663656378
:1040B00003B0F0BD2415002020150020074B1A6A1C
:1040C000196B002A02D00022DA611A62002902D09C
:1040D00000221A635A6301207047C046241500204D
:1040E00070B50F4C052200212000FEF73FF80D4D62
:1040F0002B78DA0707D50C4C9B070CD50121200043
:1041000000F098FE70BD2000103000F073FE2B7898
:10411000054C9B07F2D4200000F06CFEEEE7C04691
:10412000241500202015002048150020F0B54B79FB
:10413000060083B0022B02D18B79022B03D000251D
:10414000280003B0F0BD214FBB78002BF7D18B784E
:1041500009253B700C780C196378242B0BD1082AA5
:1041600002D80FE0AA420DD32378E418ED18637843
:10417000ADB2242BF6D0052B08D0042B02D16379E5
:104180000A2B11D00020FFF755FED9E7210030009F
:10419000FFF7DCFC0028D2D0A3787B702378ED18E1
:1041A000E4186378ADB2E8E7094B2778019301334F
:1041B0000093022202233000E119FFF779FC002866
:1041C000BDD00E35ED19ADB2DCE7C0462415002098
:1041D00026150020F8B5602314001278050013405E
:1041E0000020202B07D1304A6379277916781B02EB
:1041F0003B439E4200D0F8BD6378222B28D007D8DD
:10420000202B17D0212BF6D101293ED00120F2E737
:10421000232BF0D1012940D00329F7D1234B002BC8
:10422000F4D0E178A37809020020194300E000BF30
:104230000120E0E7012928D00329E7D11C4B002BFE
:10424000E4D0083200201100FEF7A8FA0120D2E7DE
:10425000012922D00329D9D10125A178E4782E00A3
:1042600024020C43012114712640243210007140B5
:1042700000F0E0FD0F4B002BC8D062080020310099
:104280002A4000E000BF0120B5E7072321002800F5
:10429000094AFFF7DBFC0120ADE721002800FFF70A
:1042A000BDFC0120A7E7C046241500200000000047
:1042B0009D270010000000002C150020F0B54F468F
:1042C0004646D646C0B5354D8046EA780C001F00FC
:1042D0008A425BD19AB210239A46314EAA443100E9
:1042E000504600F0D3FC2F4B002B17D06B79FF2BDF
:1042F00014D0002F12D0F219914603E001364E453A
:104300000CD06B7932789A42F8D1504600F096FB87
:104310000028F3D1697900E000BFEFE7224B002BC2
:1043200004D0224800F08AFB002834D00020FFF798
:1043300081FDAB78A34206D001242000E0BCBA4640
:10434000B146A846F0BD1A4B002B02D0002000E079
:1043500000BF0020FFF710FE0028EDD1154D28000A
:1043600000F056FB0028E7D1002FE5D0BB06E3D1D3
:10437000243D4046A978FFF703FC041EDCD000234F
:1043800000224046A978FFF723FCD6E7AB788B42A2
:10439000D9D00024D1E700E000BFC7E724150020F2
:1043A000A0140020000000000000000034150020D0
:1043B00000000000481500209322F0B5134C85B092
:1043C000002120009200FDF7D1FE2300200080266E
:1043D00040270F4D4D337600FF332930029500936F
:1043E00000220023002103970196FF3000F0D4F94A
:1043F0004035201D28340023012200210397029517
:104400000196009400F0C8F905B0F0BDE81700204F
:104410006817002010B5054C200000F0F3F92000CB
:104420002538FF3800F0EEF9012010BD10190020EA
:1044300070B5084C0025200031302570FF3000F0A9
:10444000D9FC20000C3000F0D5FC2A23FF33E554C2
:10445000657170BDE8170020F8B54E464546DE464A
:104460005746E0B54B7981468846FF2B25D12A2354
:10447000414FFF330C78FE5C7B794444A5181E4302
:104480001BD1982252009246253AFF3A93468B78E8
:10449000BA443B700B79BB44002B0AD06378052BE0
:1044A00005D111E02378E4186378052B0CD0A542E0
:1044B000F8D84346E01A80B200E00020F0BCBB46CA
:1044C000B246A946A046F8BDA542F2D92100484609
:1044D000FFF73CFB0028F0D0A3780136F6B2DB09E9
:1044E000012B2AD0504600F085FC2A23A278FF3306
:1044F000FA54224A6379944621791B020B435B05E7
:1045000094215B0D63445A425341022049007A5C76
:104510005B00824313437B5451464846083900F000
:10452000D1F90028C9D02378E41843461B79B34257
:10453000B4D84346E01A80B2C0E7584600F05AFCAF
:104540005A460E49A3788C460C3A53716379207908
:104550001B0203435B055B0D634459424B41022040
:1045600011795B0081430B435946137108390020D0
:1045700000F076F9D7E7C046E817002000FEFFFFFD
:10458000F8B52A251F4CFF35655D06001F008D42DA
:104590001DD19A235B00E35A002B0ED11A4B002B3E
:1045A00004D000201949BAB200E000BF3000184919
:1045B00000F088F901242000F8BD20009623313056
:1045C0005B00E158BAB2FF3000F060FBE6E76379C8
:1045D0008B4201D00024EEE70E4B002B04D03904AF
:1045E0000020090C00E000BF0B4D3000290000F056
:1045F00037F901240028DED13A002900300000F00C
:1046000003F9D8E7E8170020000000006817002031
:104610001019002000000000EC17002000B5030076
:1046200083B0002910D00020012B07D80A78002A77
:1046300004D00B48C2540120012A01D003B000BDB0
:104640001800FEF7BBFDF9E7012301A900200B804C
:10465000FEF7B4FD0028F1D00122014B1A70EDE7FE
:1046600040160020037870B5DB0704000E00DD0F54
:10467000002B17D103785B0701D5280070BD0121FD
:104680003000494204F0A4FA2378DB07DD0F002B49
:104690000AD123785B0708D4042223780125134329
:1046A000237002E00025E8E70025300004F068FAF6
:1046B000E3E7C04670B50D0001210400494228001F
:1046C00004F086FA23785B07DE0F002B04DB28005A
:1046D00004F056FA300070BD2378DB0704D40422BE
:1046E000237893432370F2E70026F0E710B543796F
:1046F00004791B0223435B055A0DC3789B079B0F6C
:10470000022B05D0032B15D00020012B08D010BDA3
:1047100002291CD00020402393424041C0B2F6E75A
:1047200002394B4259410D4B9C46614491424041F4
:10473000C0B2ECE702394B425941F0230020494214
:104740009B001940403191424041C0B2DFE7044B29
:10475000D3185A425341D8B2D9E7C046FF030000EC
:1047600000FEFFFF8A1870B5914207D27F264C7871
:10477000052C04D00C7809198A42F8D870BD340091
:104780008D782C4064000419ED0963550C780919E3
:104790008A42ECD8F2E7C046F0B5C64600B582B012
:1047A000150008AA40CA040017880BAA1288012025
:1047B00090460A0021780240814320001143217075
:1047C00000933A0001233100083000F0E9F8002E90
:1047D00001D0002F08D10A9B01206360434663800B
:1047E00002B080BCB846F0BD26001C363000FCF795
:1047F00007FA0023002D01D0330000266361A66173
:10480000E9E7C04601207047F8B5E023070008003B
:104810000C785B00A407E4171C4008300D0016005C
:104820003F3400F0F5F8002807D1002E05D03442BF
:1048300003D101242B781C4201D00020F8BD3800A0
:104840006978FFF79DF90028F7D02B781C42F4D146
:104850000023002238006978FFF7BAF9EEE7C04676
:10486000F8B50D000835060028000C0000F0D0F85F
:10487000002803D0012723781F4201D00020F8BD73
:1048800030006178FFF77CF90028F7D028006288B3
:10489000616800F041F92378051E0BD01F42EDD16D
:1048A0000300626830006178FFF792F90028E5D0D4
:1048B0002800E4E71F42E1D130006178FFF774F986
:1048C000DCE7C046F8B5CE46474680B58B89060082
:1048D0000C00002B08D101250B781D4241D000208F
:1048E000C0BCB946B046F8BD0B789B0734D4402312
:1048F0005B429946402527000837380000F0A6F8AB
:10490000A842ECD30122237890461A42E7D1300026
:104910006178FFF735F90028E1D0380000F096F80B
:1049200042462378854231D81A42D8D14B46628814
:104930001840051C80B2904200D9151CADB200226F
:104940006178002D00D062682B003000FFF740F93D
:104950000028C4D02800C3E78025104BAD0099463D
:10496000C9E74978FFF70CF90028B8D023781D4231
:10497000B5D1638800226178002B00D062683000D6
:10498000FFF726F90028AAD06088A9E71A42A6D125
:1049900030006178FFF708F9A1E7C04600FEFFFF8D
:1049A000F0B5C64600B5040006A805788020884604
:1049B00017001E000002824227D8E068002803D0BA
:1049C0000121494204F004F92069002803D00121A3
:1049D000494204F0FDF84346236073045B0CED0389
:1049E0001D430023E0686381A780E58023810028C0
:1049F00001D004F0C5F820690124002801D004F09A
:104A0000BFF8200080BCB846F0BD0024F9E7C046DE
:104A100010B5048941898288A3B288B28C4207D339
:104A20001B1A9BB2101C9A4200D9181C80B210BDF0
:104A30005100091A5B189BB2F4E7C04603000089D5
:104A40005B89C01A43425841C0B2704710B504890F
:104A500041898288A3B288B28C4207D31B1A9BB2C9
:104A600000209A4201D9D31A98B210BD5100091AF8
:104A70005B189BB2F4E7C04670B5040000690E00F5
:104A8000002803D00121494204F0A2F82589608959
:104A9000A288A9B283B285422CD3CD1AADB2002D23
:104AA0002ED0AA4208D2914231D38B1A9BB2638195
:104AB0009A4203D89B1A9BB29A42FBD9E28821689A
:104AC0005204520C53433000C918FDF755FB61895D
:104AD00001254B1C9BB2A288994214D90023520095
:104AE0009B1A9BB220696381002801D004F048F82A
:104AF000280070BD5500ED1A4D19ADB2002DD0D172
:104B0000002563899BB252009342EBDBE8E78918EA
:104B10008BB26381CCE7C046F0B546464F46D646D9
:104B2000C0B50600006989469046002803D00121DF
:104B3000494204F04DF831897289B5888BB294B23C
:104B4000914257D31F1BBFB2002F4DD0BD4205D29B
:104B5000AB4254D25B199CB22F0074814346B845D6
:104B600040D89FB2A54203D8641BA4B2A542FBD98A
:104B7000F288281B5204530C19009846336861438D
:104B80009C4680B26144874226D94346584383B24B
:104B90001A0048469A46FDF7EFFA434648467D1B01
:104BA00064195C4331685044A2B2FDF7E5FA71899B
:104BB000B588CB199BB26A00994217D99B1A9BB250
:104BC00030697381002801D003F0DAFF3800E0BCBF
:104BD000BA46B146A846F0BD424648467A43FDF77C
:104BE000CBFAE4E73B1CBCE773899BB26A009342B3
:104BF000E6DBE3E76F003F1BDF19BFB2A4E75B1BF7
:104C00009CB2A9E7F8B50400C0680E00002803D0E4
:104C10000121494203F0DCFF258920896189A288AE
:104C2000ADB283B28FB2884228D3DB1B9BB29A42CB
:104C300009D8E779FF0906D1E068002801D003F020
:104C40009FFF3800F8BD2B00954203D39B1A9BB2FF
:104C50009342FBD2E28821685204520C5343C81895
:104C60003100FDF789FAA2886B1C9BB252009D426D
:104C700009D99B1A9BB201272381DDE75100C91B8B
:104C80005B189BB2D3E79342F5DBF2E7F0B54E46F3
:104C90004546DE465746E0B589460500140083B018
:104CA000002A6ED0C068002803D00121494203F0D9
:104CB0008FFF2F89EA796B89BFB29BB2D20942D1AB
:104CC000AE889F4267D27200D31AFB189BB20022B3
:104CD00090469E4231D9F31A1A1C9BB2A34200D9C6
:104CE000221C93B29846E8884346DB199BB29B4648
:104CF0003C00BE4203D8A41BA4B2B442FBD2400481
:104D0000430C18009A462B6860439C46311B89B2BD
:104D1000604441454ED35246434649465A43FDF707
:104D20002BFAAB885B00BB4501D39B4503DB5A469E
:104D3000D31A9BB29B465B462B81E868002822D0A1
:104D400003F01EFF1FE0AA889046944226D29F429D
:104D500044D34146FA1A92B2490012198A4209DB39
:104D600042469A1892B2171BBFB29346BB423AD939
:104D70007F1ABFB2E3199BB246469B46A046E8881D
:104D8000B6E700239846404603B0F0BCBB46B246A7
:104D9000A946A046F0BDFB1A9BB298E7E888A21A84
:104DA0004404640C54434246A144002AC5D04646FC
:104DB0001F0099E75346594389B20A0001914946B9
:104DC000FDF7DAF943469A1B5346A2185A43019954
:104DD000286892B24944FDF7CFF9A2E75100CA1AF8
:104DE000BA1892B2B9E7B942C2DD4646E888A04691
:104DF0007EE7C04610B50400C068002803D001213A
:104E0000494203F0E5FE2069002803D00121494210
:104E100003F0DEFE0023E06863812381002801D0D7
:104E200003F0AEFE2069002801D003F0A9FE0120A6
:104E300010BDC04670B50400C0680D00002803D046
:104E40000121494203F0C4FE2069002803D001215A
:104E5000494203F0BDFE7F21E379ED011940E0688E
:104E60002943E171002801D003F08AFE206900285F
:104E700001D003F085FE012070BDC0467047C046DA
:104E80000BA10CC9126892009B581868203080F35F
:104E90000988022080F31488BFF36F8F3FBCAE46B1
:104EA00008BC04BC62B61847C046C046C046C046EF
:104EB000000000D0CC1F0020D0231B061A6DD207A3
:104EC00004D501219A6D1A6D1142FBD1D023FF2226
:104ED0001B061A658022024B52051A607047C046B5
:104EE00004ED00E0000000000000000000000000F1
:104EF000EFF309811AA00CC8106880001B1818680D
:104F000020390160F0C144464D4656465F46F0C127
:104F1000146E556E566F176F3039F0C1106808B5B2
:104F200072B601F0A3FB62B60CBC116808681030C1
:104F3000F0C8A046A946B246BB4680F309880D22B8
:104F400012073038F0C81466556656671767F0C800
:104F50001847C046C046C046C046C046C046C046C8
:104F6000000000D0CC1F002010B5EFF3108472B603
:104F700002F07EF902F0D4FB002803D08022044B1B
:104F800052051A6002F082FF84F3108810BDC046FB
:104F900004ED00E010B5FBF77FFAC04610B58024A1
:104FA000031F64041C60043B19600349043B19603F
:104FB000143B40381A6010BD954F00108022044BFE
:104FC00052051A60BFF34F8FBFF36F8F7047C04613
:104FD00004ED00E0D0231B061B6808499B005A58CB
:104FE000002A08D00020585005495B58BFF35F8F56
:104FF000106083F3108862B67047C04668220020B4
:1050000098220220D02300221B065A657047C04612
:10501000002310B5084A094C052023601360FCF7F3
:105020009FFBFA218900FCF799FD054B01381860B8
:105030000723236010BDC04618E000E010E000E048
:1050400014E000E070B5224B1A78D0231B061B68D1
:105050009A4230D0FF231F4A1B0411680E200B43D5
:1050600013601D4903F0C2FB0B201C4903F0BEFB7B
:10507000D023FF221B061A651A6DD20704D5012121
:105080009A6D1A6D1142FBD1D0252D062C68FF2197
:105090000F342000FBF7F6FC20001149FBF7F2FA71
:1050A00001212000FBF7B6FAFFF7EAFE286801F0BD
:1050B000DDFAFBF7F1F9FFF7ABFFFF23054A1B060B
:1050C00011680F200B431360064903F08FFBC1E703
:1050D0009D10002020ED00E0F14E00107D4E0010EC
:1050E000B94E0010694F001010B5EFF3108372B67F
:1050F000FFF7A8FF10B50E20FBF750FA0F20FBF7C3
:105100004DFA0022034B04481A7003F0DDFBFFF751
:1051100099FFC0469D100020E950001010B50A4BC1
:105120001B78FF2B0CD0EFF30580002805D0D0238F
:105130001B061B684000C01810BD01F09FFFFBE775
:10514000D0231B061868F7E79D10002000B51C4A05
:105150000B00127883B0FF2A29D01A4902688C46C6
:10516000022162449210FF319140090A40BF006859
:10517000BFF35F8F0022026083F31088EFF3058393
:10518000DBB2002B05D1104B186800F04DF903B0CD
:1051900000BD0D4B0192186801AA00F08DF9019B2A
:1051A000002BF4D08022094B52051A60EFE740BF74
:1051B0000268BFF35F8F0021116083F31088E6E778
:1051C0009D10002000FFFF2F1C23022004ED00E0B3
:1051D000F0B51D00314B07001B780E00140083B0A2
:1051E000FF2B4ED0FCF7C8F822002B00121A8B417F
:1051F00001212B48494280185941002921DC1CD04B
:105200003B68BFF35F8F00221A6086F31088254B3E
:105210005A6A95420AD98022234B52051A60BFF37D
:105220004F8FBFF36F8F002003B0F0BD9B6A01204A
:10523000A342F9D29542F7D1EDE7FA239B009842B9
:10524000DED3FA2200239200FCF7AEFC031ED7D077
:10525000D0221206116815483A6889000A5014488D
:105260000E5014498C46022162449210FF31914045
:10527000114A090A106800930122002300F078F80F
:10528000C5E70368BFF35F8F00221A6081F31088BF
:1052900020002900FBF7E0FFC6E7C0469D10002074
:1052A00018FCFFFF0040054004ED00E068220020EC
:1052B0009822022000FFFF2F1C23022010B500F0CF
:1052C0004BF8014B186010BD1C230220F8B5DE46D8
:1052D00057464E464546E0B505000F00060001F072
:1052E0003BF929682C6939430C362960A6422AD03B
:1052F000002398468023DB049B4680235B049A4668
:1053000080239B0499460EE00B420AD057463A424E
:1053100002D042461A4390464B46194302F006FC1F
:105320002968A6420DD020005F4602686468130217
:105330001B0A3A42E8D01F000F40BB42E6D0A6420B
:10534000F1D143469943296002F0ACFBF0BCBB4667
:10535000B246A946A046F8BD10B51C2003F0DAFA03
:10536000041E03D0002308C000F0B0F8200010BDD8
:10537000F0B5C646060000B50D0090461F0001F0CE
:10538000EBF83468002F0AD125420CD04346002B9D
:105390000CD02300AB43336002F084FB08E02B0009
:1053A00023409D42F2D0069B002B05D102F07AFBF0
:1053B000200080BCB846F0BD4346002B16D18021AA
:1053C0000023C904002F00D11900069A2943301D7B
:1053D00001F064FB02F066FB00281CD002F070FDB7
:1053E0000400830107D52402240AE1E7A0218023D9
:1053F000C9045B04E6E701F03BFF3468002F0DD1E0
:105400002C4205D04346002B02D02300AB4333602F
:1054100002F03CFDE7E701F011FFDFE723002B403E
:105420009D42F5D1EEE7C046F8B5DE4657464E46FA
:105430004546E0B505000F00060001F08DF829682B
:105440002C6939430C362960A6422AD0002398469D
:105450008023DB049B4680235B049A4680239B04C5
:1054600099460EE019420AD057463A4202D04246C7
:105470001A4390464B46194302F058FB2968A6424E
:105480000DD020005F460268646813021B0A3A428E
:10549000E8D00F001F409F42E6D0A642F1D143461C
:1054A0009943296002F0FEFA2868F0BCBB46B24678
:1054B000A946A046F8BDC04610B513000A00010079
:1054C000014803F07FF910BDCD52001003000833EE
:1054D00001224360C3600361002352428260036083
:1054E0007047C046002303617047C04643689A680E
:1054F0004B608A609A685160996003680861013363
:1055000003607047030030B50C680833621C0DD08F
:105510001A005B681D68A542FAD94B609960036860
:105520008A60013351600861036030BD02695368CD
:10553000F3E7C0460369416882688A605160596830
:10554000814206D0002202611A68013A1A60186886
:1055500070475A60F6E7C046F0B5DE464E465746FD
:105560004546E0B585B0060001F082FE4523F45CB7
:1055700064B2002C21DD213B994621339A46B14487
:1055800009E0AB6BEA6B0396934245D3013CE3B26F
:1055900064B2002B11D0B56C002DF2D1736A002BD0
:1055A0000BD0484601F01EFB0028EFD001F05CFD57
:1055B000013CE3B264B2002BEDD14523FF22F2544B
:1055C00002F064FC01F054FE4423F45C64B2002C4D
:1055D00016DD3500103504E0013CE2B264B2002A69
:1055E0000ED03369002B0BD0280001F0FBFA002805
:1055F000F2D0013C01F038FDE2B264B2002AF0D1F1
:105600004423FF22F25402F041FC05B0F0BCBB463B
:10561000B246A946A046F0BD53462A6CEF5CAB6B80
:105620007FB29846002A14D12B680193002B2BD00F
:1056300000239B4643460133AB637B1C18D0534683
:1056400001377FB2EF545B46002B9FD001F00CFD79
:10565000AEE7686803A9FCF78FFD2A6C6B68944677
:10566000AA6863446B609342E2D32B686B60DFE708
:105670006B6A002BE7D02800243001F0B3FA002831
:10568000E1D001F0F1FC93E7A86801F0ABFD019BCC
:105690008346AB60CEE7C046F0B5C64600B5846C25
:1056A00082B0A36BE26B00260190934204D33000DA
:1056B00002B080BCB846F0BD4523226CE55CA76B08
:1056C0006DB2002A16D0606801A9FCF755FD226C66
:1056D00063689446A2686344636093420ED3236870
:1056E00063600137A7636B1C0DD0452301356DB294
:1056F000E554DCE723689846002B0FD001370026DD
:10570000A7636B1CF1D1636A002BD0D0200024303A
:1057100001F068FA0028CAD00126C8E7A06801F0A5
:1057200061FD43460600A360DBE7C046F8B506000E
:105730000800704354300D00170003F0EBF8041E0E
:1057400025D00300002D24D123602564E66301F0F9
:105750008FFD226CE36B21685343C8189B1ACB184A
:10576000E3600025FF234422A06020006160A56360
:10577000A3540132A3541030FFF7A8FE20002430B8
:10578000FFF7A4FE02F082FB5023E754A56420003B
:10579000F8BD5433D8E7C046F0B5CE4647460400BE
:1057A0001E00002380B585B099460192884601F01D
:1057B0005FFDA36BE26B00274425934237D3022E93
:1057C00072D0019B002B00D18AE0002F68D002F03C
:1057D0005DFB00F0C1FE01F04BFD625D52B2531C57
:1057E00001D14B4663554523E25C52B2013201D1EF
:1057F0004A46E25402F04AFB01A902A801F044FB28
:10580000002800D074E001F033FDA36BE26B9342FB
:1058100034D002F03BFB2000FFF79EFE02F042F97D
:10582000012701F025FDA36BE26B9342C7D2226CE6
:10583000A76BA56B002A3CD04146002E00D084E027
:105840006068FCF799FC226C63689446A268634424
:105850006360934201D323686360A36C0135A56341
:10586000002B34D1636A002B36D02000243001F0A5
:10587000B9F9002830D001F0E1FC2DE002F006FB80
:1058800020000199103001F099F82000FFF764FE24
:1058900002F008F90028C3D101F0D0FC0127C0E7CD
:1058A00002A801F0E5FA92E7226CA76BA56B002A2B
:1058B00025D1236800209846002B40D0A36C0135E9
:1058C000A563002B35D0022E01D1002F04D120007A
:1058D000FFF7E2FE0028CED102F0D8FA012002E064
:1058E00002F0D4FA002005B0C0BCB946B046F0BD05
:1058F0002000FFF731FE02F0D5F80020F3E7414623
:10590000E068FCF739FCE168236C5A42CB1A216845
:10591000E3608B4205D2A3689C466244E260022E9B
:105920009BD1002D00D10135A36CA563002BCCD1F8
:1059300098E7636A002B98D100289CD1CCE7A06837
:1059400001F050FC4346A360B8E7E068FCF714FCA4
:10595000E168236C5A42CB1A2168E3608B42DED2A5
:10596000D9E7C046F8B54E464546DE4657460400E0
:10597000E0B5884691461D00EFF3108772B601F03E
:1059800077FCA36BE26B934226D3022D0BD000244D
:1059900002F07CFA87F310882000F0BCBB46B246C8
:1059A000A946A046F8BD4523E65CA36B226C9B4646
:1059B000A36B76B29A46002A29D123689846002B19
:1059C00061D053460133A363731C37D0452301369E
:1059D00076B2E6540124DBE74523E65CA36B226C38
:1059E0009B46A36B76B29A46002AE6D0002D0ED1D4
:1059F00041466068FCF7C0FB226C63689446A2686D
:105A0000634463609342DCD323686360D9E7414613
:105A1000E068FCF7B1FBE168236C5A42CB1A2168BD
:105A2000E3608B4203D2A3689C466244E260534623
:105A3000022D24D00133A363731CC7D1A36C002BA8
:105A400013D0022D04D15B46002B01D001249FE727
:105A50002000FFF721FE0028F8D04B46002BF5D0A0
:105A600001234A460124136092E7636A002BEDD0BC
:105A70002000243001F0B6F80028EED1E6E7002B34
:105A8000A1D10133D7E7A06801F0ACFB4346A36086
:105A90005346013397E7C046F0B54746CE4604006B
:105AA00080B585B08846019201F0E2FBA76B002F1C
:105AB0005ED1019B002B3BD002A801F0D9F9002355
:105AC00044269946452502F0E1F900F045FD01F034
:105AD000CFFBA35D5BB2013301D14B46A355635DA0
