:020000041000EA
:1000000000B5324B212058609868022188439860DF
:10001000D860186158612E4B002199600221596106
:100020000121F02299502B49196001219960352056
:1000300000F044F80222904214D00621196600F024
:1000400034F8196E01211966002018661A6600F04E
:100050002CF8196E196E196E052000F02FF8012189
:100060000842F9D1002199601B49196000215960AB
:100070001A491B48016001219960EB211966A021F2
:10008000196600F012F800219960164914480160C1
:100090000121996001BC002800D000471248134993
:1000A000086003C880F30888084703B5996A0420EC
:1000B0000142FBD001200142F8D103BD02B5186610
:1000C0001866FFF7F2FF186E186E02BD00000240BE
:1000D000000000180000070000035F00212200005C
:1000E000F4000018222000A00001001008ED00E03C
:1000F00000000000000000000000000074B24E7A12
:1001000000200420F7010010C3010010C5010010F9
:10011000C1010010C1010010C1010010C101001097
:10012000C1010010C1010010C1010010C701001081
:10013000C1010010C1010010C9010010CB01001065
:10014000CD010010CD010010CD010010CD01001037
:10015000CD010010CD010010CD010010CD01001027
:10016000CD010010CD010010CD010010CD01001017
:10017000CD010010CD010010CD010010CD01001007
:10018000CD010010CD010010CD010010CD010010F7
:10019000CD010010CD010010CD010010CD010010E7
:1001A000CD010010CD010010CD010010CD010010D7
:1001B000CD010010CD010010CD010010CD010010C7
:1001C00000BE00BE00BE00BE00BE00BEEFF3058054
:1001D000103800BEF2EB887108210610302106109D
:1001E0003802001090A31AE71E481F49086006C88D
:1001F00081F3088810471D480068002801D019487D
:10020000F3E70DA40ECC002902D000F012F8F9E7B4
:100210001749184A002000E001C19142FCD116495B
:100220008847164988471649884700BEFDE701C937
:1002300001C29A42FBD3704730210610C000002053
:10024000280C0020982C0610000004200000042038
:10025000982C06100010042000100420000000005C
:10026000704700000000000008ED00E0000000D032
:10027000280C00200C29002009420010250600103F
:1002800001420010F8B5C04606480749091A8B100C
:10029000C90FC91810B5491003D0044B002B00D06A
:1002A000984710BD280C0020280C002000000000FA
:1002B000054B10B5002B03D00449054800E000BFF2
:1002C000FFF7E2FF10BDC046000000004024002000
:1002D000F419021070B50126124C05002178002097
:1002E0007140C9B221701BF0A9FB0F4B22781B781B
:1002F0000E49002B0AD10B70002A0FD06421280070
:1003000015F0F2FA280015F0FBFA70BD0B78002A00
:1003100002D073400B70F1E7002BEFD1FA21890076
:10032000EDE7C046E0050020F6280020F828002070
:10033000F8B5444D14002B78062B1CD00ED8042B96
:1003400022D0052B13D11378A02B3ED0A22B11D194
:10035000082120003C4A09F0D7FA0BE0072B06D110
:100360001178A7291BD0394804F060F902E0384819
:1003700004F0D8F8F8BD1378A02BFBD1137A002B2A
:10038000F8D107332B70F5E71378A02B12D0A12BEF
:10039000F0D1082120002F4A09F096FAEAE79D39AA
:1003A000100015F0FFFA0100022838D02A4804F0A6
:1003B0003DF9DFE7117A002927D0284804F036F903
:1003C000274B188819F0E6FFD4E7117A002907D0E7
:1003D000244804F02BF9224B188819F0DBFFC9E7F9
:1003E0000122194E1E4F204C204B21001A7020482C
:1003F00033003A8809F0ECF8062332002B70200015
:100400003988053B09F0D0F9B4E705232B70144B6C
:10041000104A19881448174B09F05AF9AAE7200026
:1004200000210C3015F0BEFA02F0C8F9124902F0B2
:10043000AAF902F0EBF902000B00104804F0F6F8FC
:1004400098E7C0460729002080240020841A021063
:10045000A01A02109C2400206C1A0210F819021035
:10046000E0280020241A021031030010F628002092
:100470002C2400206E2A00000000C842541A0210EA
:10048000F0B5CE46474680B50400150083B0042879
:100490000BD11378602B0DD032D8052B12D03E2B08
:1004A00003D19378012B00D178E003B0C0BCB946EA
:1004B000B046F0BD9478022C00D187E000224E4B6C
:1004C0001A70F2E701224D4B52421A804C4B1A78B7
:1004D000002A75D14B4815F0A5FC4B4B01001800C4
:1004E00004F0A4F8444B1A78002ADED0022230210E
:1004F0001A7000202E3219F03DFE19F023FED4E7C9
:10050000DA2BD2D13C4B99461B78022BCDD1D17A34
:1005100068460C3213F0D0FC3C4B984602E068462B
:1005200013F0E2FC684613F0CDFC0028BDD068460D
:1005300013F0E8FC0400684613F0DEFC0600684691
:1005400013F0E6FC0700032CE9D1002EE7D00024CD
:1005500002E00234A642E2DD2100380015F022FA62
:100560004045F6D1274C281D2100062215F070FACF
:10057000274AEB78150013704A460323137019F0CD
:10058000EDFD200015F04EFC224B0100180004F098
:100590004DF82000297819F007FE86E7164E3378CB
:1005A000032B00D081E70421100015F0FBF9134B59
:1005B00001001880154A1848347009F025F874E7CE
:1005C000002216481A7009F015F883E7684616F0FD
:1005D0007DFC684615F026FC114B0100180004F064
:1005E00025F8054B3022302100201C7019F0C2FD87
:1005F00019F0A8FD59E7C04607290020E02800208F
:10060000F628002078240020C81A02101A180000CA
:10061000FB280020DC1A0210310300102C240020DB
:10062000A81A021070B503F02DFF1BF017FA051E73
:1006300024D11AF035FA0CF009FF03200CF000FF6A
:1006400000220021002007F0B3F808F095FF0E48C3
:100650000E4B436016F05AFBFA210D4C0D4B8900EE
:100660002000A36015F040F9200015F049F90120A1
:1006700019F0FCFB15F054F9280070BD012506485F
:1006800003F050FF6D42F7E72020002081040010A6
:10069000A4230020D5020010001B0210094A830089
:1006A0009A1810B514684022544080322240064CFB
:1006B000C000A44663441A60044B9C4660444160F9
:1006C00010BDC04604C0014004D0014000400140BC
:1006D000074B8000C3181B68C90092000A435A40A8
:1006E0000C231340034A9446604403607047C0469D
:1006F00004C0014004D001408000002905D0064B11
:100700009C460223604403607047044B9C460223CE
:1007100060440360F8E7C04604E0014004F0014093
:10072000D0231B061B6830B50500584243412F20DB
:100730005B4283430E48EC08844607202840800033
:10074000814020000B4D3C3063448000A4004151A7
:100750001B19002A05D08022920194466344196037
:1007600030BDC0229201944663441960F8E7C04648
:100770003041014000400140D023F0B5C6461B0681
:1007800098461B680C4F9B001600FA5804000D0099
:1007900000B5104209D1290014430D203200FC504D
:1007A00000F05CF980BCB846F0BD01F043FB434665
:1007B0001B689B00FA58EEE76824002010B504007F
:1007C0000D2000F045FAD0231B061B6802499B0050
:1007D0005A58A2435A5010BD682400200123D02249
:1007E0008340120693629361094A83009A18116844
:1007F0004022514080320A400649C0008C46634482
:100800001A60054B9C460523604443607047C04610
:1008100004C0014004D00140004001400FB400B5C5
:10082000084883B003F07EFE049B002B07D005A987
:100830001800019103F0B0FC034803F073FE01209F
:1008400003F0C2FC201B0210C8510210EFF310800D
:1008500072B6034A1368002BFCD0BFF35F8F70475A
:100860002C0100D0BFF35F8F0022024B1A6080F38F
:10087000108870472C0100D070B5EFF3108C72B661
:100880000D4D2B68002BFCD0BFF35F8F0724CB08E6
:10089000C618C05C01230C40A3401C000440034266
:1008A00007D118433070BFF35F8F2C608CF3108832
:1008B00070BD1000FFF7B2FF2C0100D0F8B547461D
:1008C000CE46884680B5EFF3108C72B61C4D2C686E
:1008D000002CFCD0BFF35F8F9A4222D8072101265B
:1008E000894602E00132934218D34D463700154045
:1008F000AF40D4080119045D2742F3D110003C43F6
:100900000C70BFF35F8F00220D4B1A608CF31088C0
:1009100000280EDBC0BCB946B046F8BD01204042FD
:10092000EFE7BFF35F8F00232B608CF3108801206B
:1009300040424346002BEDD00898FFF76FFFC046BA
:100940002C0100D030B5EFF3108C72B60A4C23683E
:10095000002BFCD0BFF35F8F072301220B409A408E
:10096000CD08435D93434355BFF35F8F002323605E
:100970008CF3108830BDC0462C0100D0044A10789A
:10098000431CDBB2172B00D9102313707047C046ED
:10099000E10500200021044B044ABFF35F8F02C32E
:1009A0009342FAD17047C046000100D0800100D0C8
:1009B000054B064A1360064A136053609360D36088
:1009C00013615361936170478080808000E400E090
:1009D00004E400E01F2318401E3B8340002905D09B
:1009E000C021044A490053501360704780220149D6
:1009F0008B50FAE700E100E001238340014A1360D5
:100A00007047C04600E200E070B50D00EFF31086BD
:100A100072B60F4A1368002BFCD0BFF35F8F0D4BEB
:100A200010309B6884001B590B4A934203D09D42AF
:100A300001D001F0FFF9074B9B681D51BFF35F8F99
:100A4000BFF35F8F0022024B1A6086F3108870BDDF
:100A5000240100D000ED00E0CD010010F0B55746B4
:100A60004E46DE464546E0B585B0060000911700CB
:100A7000EFF3108B72B66A4A1368002BFCD0BFF3F9
:100A80005F8F0025674B5D579A46002D00DAA9E07D
:100A90006B00654C01935B199B009846A146C144CD
:100AA0004B4652469B7910361370604BB6009B68DC
:100AB00099590B1B2F2B33D95D4B994200D0ACE0D9
:100AC000019B42469C465B4B6544AD0063535A4BC9
:100AD0000232A218043B9B1A1B05584A5B0D65198C
:100AE00013436B80564B0121AB80FF23AB71009BFE
:100AF000EF71AB604B460B4319004C4B9B6899510F
:100B0000BFF35F8FBFF35F8F0022454B1A608BF3FB
:100B1000108805B0F0BCBB46B246A946A046F0BD61
:100B200001200A008243D3798C46BB4231D8454626
:100B3000130044491B1B5B415943090D3D4B635353
:100B40003D4B02356519043B5B1B1B053B4D5B0DA3
:100B50002B43AA464D466B800425AC465546E044DF
:100B6000131F44441B1B1B055B0D1D434B46997112
:100B700000999D8099604946DF71334B01431360B2
:100B8000BBE75800C01880002018C179B9422FD99E
:100B900002000623D356002BF3DA02932B4B614657
:100BA0000393131D9A4604235B429C46E14450463E
:100BB0004B461B1A1B055B0D9C46204B95719846B6
:100BC0006346404603439380019B5A199200039B5E
:100BD000A418A380029B1C4AA371009B2260E771AA
:100BE000A3608AE701F026F9002553465D574FE7D9
:100BF000908802934005131D9A46031561469C4652
:100C00004046D444634604302018181AE0230005F7
:100C1000400D1B0218430390C5E701F00BF94FE7A5
:100C2000240100D0F3280020E405002000ED00E0BE
:100C3000CD01001000A1FFFF1406002000E0FFFF1F
:100C400001BDFFFFAAAA00000148804701BD0000C6
:100C5000F0B5DE4657464E464546E0B50C0083B03B
:100C6000EFF3108872B6634A1368002BFCD0BFF311
:100C70005F8F614B61499A68030010339F00D5591B
:100C800001938D4243D0A54254D05D4EAA1B2F2A1A
:100C90003DD85C4B9B461B68994601231A009C4635
:100CA00082404B4613401F229946634602409340C0
:100CB0009A4680225B4650469850BFF35F8FEFF311
:100CC00005839B46002B37D0019B5B4501D001F08B
:100CD000B1F801232A009A439068844208D176E053
:100CE0004B005B189B00F3189868844236D01A00BA
:100CF000062151560029F3DA844254D04B46002B8A
:100D000027D0C02251463F4B5200995019603A4BB0
:100D10009B68DD51BFF35F8FBFF35F8F0022354BC0
:100D20001A6088F3108803B0F0BCBB46B246A946EF
:100D3000A046F0BD0D00EAE72A0063469A4390689A
:100D40008442D5D106201056130000280ADA0D007F
:100D500031E0802351462B4AD150D8E7062018565F
:100D6000002821DB42001118890074188B46A16805
:100D70009960E179D971062161569971002924DBC6
:100D8000A488F11A640524155C44091909051E4C50
:100D9000490D2143998013181C4A9B001178F318C0
:100DA00099711070AAE713005946002914D1FF3138
:100DB00091711749918015490A789A71154A9B1BC0
:100DC0005B415A43120D0A7098E71149E2E7062089
:100DD000105613000028C5DA0F4A1049D21A083AF3
:100DE0005002400D014399800D4952080A43DA80B0
:100DF00084E7C046240100D000ED00E0CD010010E2
:100E0000E405002000E100E000E0FFFFF3280020FF
:100E100001BDFFFFAAAA00001E06002000F0FFFF90
:100E200000F8FFFF10B58308040003202040FF24D2
:100E3000054AC0009446844081409B0063441A6880
:100E4000A2430A431A6010BD00E400E070B501241B
:100E50000443EFF30581EFF3108C72B6214A136857
:100E6000002BFCD0BFF35F8F1F4B05001F4AED1A0C
:100E70006D416A43120D1E4D8900AE6852B276581C
:100E8000A6421CD00621595691421CD01221595617
:100E9000914222D01E215956914220D02A215956E2
:100EA0000324914210D0134B19781A708171BFF34B
:100EB0005F8F00220B4B1A608CF3108870BDAB68FB
:100EC0000D4C5C50EFE700246100091989005B18A4
:100ED000FF21997109499980E5E70124F4E702248B
:100EE000F2E7C046240100D0E4050020AAAA0000D1
:100EF00000ED00E0F3280020CD01001001BDFFFF50
:100F00001F2110B5091A0248FFF71CFD10BDC0468D
:100F10000929002010B5084B084C82B0010000934D
:100F2000002205232000FFF7C9FC002801DB1F2356
:100F3000181A02B010BDC046301B0210092900204B
:100F400070B504000E001500FFF718FD0100200029
:100F500000F006F8A680E580BFF35F8F70BDC04645
:100F6000024B9C4661448900016070474000003498
:100F700070B5114C114DAC420FD2FF262368002BE7
:100F80000CD0FFF7FBFC01002000FFF7E9FFA68073
:100F9000BFF35F8F0834AC42F0D370BDFFF7EEFCB7
:100FA00001002000FFF7DCFF2671BFF35F8F0834DC
:100FB000AC42E3D3F1E7C046200C0020280C00200F
:100FC00010B50400FFF7DAFC01002000FFF7C8FFAE
:100FD000FF23A380BFF35F8F10BDC0460A4B196883
:100FE000EFF3108072B60A68002AFCD0BFF35F8F5F
:100FF0001B68BFF35F8F00221A6080F3108840BF28
:10100000002000217047C046BC250020F0B5DE4618
:1010100057464E464546E0B587B0EFF305830322B9
:1010200001251A40954091008846A946B34B03928A
:101030005C58B34B1D60B34B04934B46B2484363BB
:101040000823E55E002D37DAA3881BB2002B00DBF6
:10105000ADE0A379002B00D0EEE00823E05E00288D
:1010600020DB430062691B18DB00D3189E68DD6833
:10107000731C00D111E1A44801004144826A0B694C
:10108000B71A9B1A9F4215D30123026A0398834023
:101090001A420FD09C4800F01BFC8D4202DCCCD1E0
:1010A0008642CAD940BF07B0F0BCBB46B246A9468B
:1010B000A046F0BD0E61EDE762696B0092465B19D8
:1010C000DB009A4453469E68DF6800F001FC8F42C3
:1010D000BADC00D103E1002F00DAE8E052465346C3
:1010E00052691B699346049A934200D1D9E0524653
:1010F0000821605E528800045946104398470090CA
:1011000001910099019A0B001000134300D1CEE029
:1011100013000A00B61A9F41002806DB7A4800F047
:10112000D7FB009E019F36184F4153469E60DF60FB
:1011300000229A5E002A00DA86E753009918606957
:10114000C900411802938B68C9689B46B94200DD0B
:101150007AE702D1B34200D976E708239C46A4443B
:10116000059565462281A446029B2C0006E05300AB
:101170009918C90041188D68C968AB469B18DB00F7
:10118000C318B94206DC00D1B3E01C000023E25EC4
:10119000002AECDA230064469C4653461A806346D4
:1011A000059D1D80A3881BB2002B00DA51E7226940
:1011B000EFF3108172B61368002BFCD0BFF35F8F82
:1011C0000123A7885B42A3803FB22369BFF35F8FEF
:1011D00000221A6081F31088002F00DA39E723001B
:1011E000083322009A4666697B00DB19DB00F3189E
:1011F000996850468C460824115FDD68002910DB91
:10120000029306E0AB4244D00023E15E20000029B7
:1012100006DB4C006418E4003419E368AB42F1DDEE
:10122000029B078000201F5E1980002FDCDA14006B
:10123000A379002B00D110E70023A3712600082317
:10124000E15E08364B1C00D12CE70800A246656918
:1012500002E03E004B1C1AD04B005B18DB00EF187D
:101260000A008C46E95E7B881BB2002BF1DA012371
:101270005B42DC17BB60FC60824205D05346318084
:101280001B893B8053461A8160464B1CE4D154466F
:10129000E5E6A3686345B7D9C2E76B1C00D0EAE670
:1012A000F8E65B4658461B69984700281BD1534611
:1012B0001B8822692381EFF3108372B6116800291D
:1012C000FCD0BFF35F8F514662880A802269658037
:1012D000BFF35F8F0021116083F31088B4E686426C
:1012E00000D8F8E6B0E65B461A685B6800920193A6
:1012F00007E7B34500D848E74CE7C046582400202C
:101300003C7005400D1000100040054070B52E4C9B
:101310002569002D04D00A212C48FFF721FE70BD5D
:101320002B4E0321300000F0C9FAE660FFF726FBE0
:10133000284B03229C46D02322701B061B680121E8
:101340006370254B6044A3600F238000206102205E
:10135000638063694942A18019800231198647314F
:101360001D83585218315A5275325C3999521832CD
:101370000131995218320131995218320131995282
:10138000083518329D520231183299521832013103
:10139000995218320131995218320131995218324A
:1013A000013199521832013199520C4B0C49DC60D1
:1013B00001303562FFF728FB01210320FFF70AFB0C
:1013C000084B1D60A7E7C0462C060020BC25002066
:1013D0000040054040000034FFFF1000582400206A
:1013E0000D10001038600540004870472C060020A2
:1013F000F8B51F0008AB1B7804001600002B08D1BD
:1014000000F06EFA32003B00121A8B41002B00DA1A
:1014100052E02269EFF3108072B61368002BFCD003
:10142000BFF35F8F0223E15E63694A005218D20066
:101430009B182269002936DB1D886580BFF35F8F0A
:101440000025156080F31088069A9E60DF601A619F
:10145000079A5A615A8801325204520C101C002A11
:101460001FD082B25880080410432669EFF310871A
:1014700072B63268002AFCD0BFF35F8FA2881A8050
:10148000A1802369BFF35F8F00221A6087F3108861
:101490000A4923788C4601329A40E36863441A6013
:1014A000F8BD0120DDE7BFF35F8F0023136080F3F9
:1014B000108801204042F3E70020F1E73C200000C3
:1014C00070B501000469EFF3108C72B62068002833
:1014D000FCD0BFF35F8F02200D5E4C69680040199D
:1014E000C00024180869002D36DB26884E80BFF323
:1014F0005F8F002606608CF31088E3606388049891
:10150000013320615B0405985B0CA26060611A1CCA
:10151000002B1FD093B22804628018430A69EFF3AE
:10152000108C72B61368002BFCD0BFF35F8F8B88D2
:1015300023808D800B69BFF35F8F00221A608CF3CC
:1015400010880B7801329A40CB6808498C46634476
:101550001A6070BD0122DDE7BFF35F8F00230360D7
:101560008CF3108801204042F3E7C0463C20000085
:1015700010B543890A1493421ADD53009B1842693F
:10158000DB00D3180469EFF3108C72B62268002ACE
:10159000FCD0BFF35F8F5A88090494B2090C8A42C9
:1015A00008D00369BFF35F8F00221A608CF31088A4
:1015B000002010BD8022120214435C8001230269C6
:1015C0008371BFF35F8F002111608CF31088044991
:1015D00002788C469340C268012062441360E8E7B9
:1015E0003C200000F0B506000F0006246442E51719
:1015F000C646A4197D4100B582B08D4214D811D0E1
:1016000000F06EF922002B00121A8B41002B15DC22
:10161000002B44D03000390000F0A0F902B080BCAB
:10162000B846F0BD8442EBD90024002500F058F9FB
:1016300022002B00121A8B41002BE9DD00F050F93B
:1016400022002B00121A8B41002B0ADB002301938E
:10165000144B2200009314482B00FFF731FF013098
:10166000D8D0A04629000024104A1148536A994254
:1016700004D8956A4545CDD29942CBD10568EFF3A0
:10168000108C72B62B68002BFCD0BFF35F8F036801
:10169000BFF35F8F1C608CF3108820BFE6E7002A41
:1016A000B8D0CBE7DD0F00102C060020004005402D
:1016B000BC250020F0B5C64600B582B0040000F09D
:1016C0000FF9FA2206000F002000002300219200EB
:1016D00001F036F88019794104000D1E02DA012468
:1016E0002E4D644206267642F71736196F41AF42F7
:1016F00014D811D000F0F4F832003B00121A8B41DC
:10170000002B15DC002B46D02000290000F026F924
:1017100002B080BCB846F0BDA642EBD90026002737
:1017200000F0DEF832003B00121A8B41002BE9DD9D
:1017300000F0D6F832003B00121A8B41002B0ADB76
:1017400000230193164B3200009316483B00FFF72D
:10175000B7FE0130D8D000233900B0469C46124A6B
:101760001248536A994204D8966A4645CCD29942A7
:10177000CAD10668EFF3108772B63368002BFCD02D
:10178000BFF35F8F0368BFF35F8F66461E6087F30A
:10179000108820BFE5E7002AB6D0C9E7FFFFFF7F2A
:1017A000DD0F00102C06002000400540BC25002065
:1017B000F0B557464E46DE464546E0B506000F00FA
:1017C00085B0EFF3058399468B46002B12D038493C
:1017D00000204B6ABB4206D38A6ADB1B591E8B4131
:1017E000B2424041184305B0F0BCBB46B246A946E0
:1017F000A046F0BD2F4B9A46DB68984653461B78AF
:101800004046039300F064F84246039B040004330F
:101810009B009B580D001B1A39003000001BA9418A
:10182000894510DC0DD020BF214A0020536A5B455A
:10183000D9D3926ADB1B591E8B41B24240411843F7
:10184000D1E78342EFD900F04BF832003B00121A87
:101850008B41002B1ADB00230193174B32000093BE
:1018600050463B00FFF72CFE011E0FDD104B5A6A5D
:101870005A451BD39B6AB34216D35046FFF778FEF6
:101880000B4A0020536A5B45ADD3D2E7084A0020DB
:10189000536A5B45A7D30020926ADB1BB2424041EA
:1018A0005A1E934118439EE75A45E6D120BFE4E70C
:1018B000004005402C060020DD0F001010B5024A44
:1018C0000248FEF7D9FF10BD4C1B02102413002064
:1018D0000300416A0A00986A596A8A42FAD170473D
:1018E000034B596A0A00986A596A9142FAD17047C3
:1018F0000040054070B504000D00174A536A1900F6
:10190000966A536A8B42FAD13000190024184D416F
:10191000AB4216D813D0104B2A005B6A9D4203D904
:101920000D494B6A9342FCD3934207D10A4A02E025
:10193000516A994202D1916AA142F9D370BDA6427F
:10194000E9D9054B5B6A1C005A1CEFD00122012427
:101950006442E5175242E3E700400540064A536AF5
:101960009942FCD807D1044B02E05A6A914202D155
:101970009A6A9042F9D8704700400540F8B50400D3
:1019800006200D0000F078F9002844D0374B384984
:10199000E3185A1E93418022120494465B429B0D29
:1019A000344A9B0563441360334A136018000A6885
:1019B0009043FBD12D4B314AE31859424B418021D2
:1019C0005B0049000620995200F056F92900C0003A
:1019D00000F03CFB0130C3091ED1402701226262A6
:1019E000A362266BF30722D4E36A254B0620E51891
:1019F00000232B60266300F03FF93900800000F0DF
:101A000025FB7023E26A5A400E3313402B601D4BB6
:101A100023630323A364F8BD1B4A93421ED900230A
:101A20001A4A1B4F6262A362266BF307DCD5194B7F
:101A3000144AE3181A60656AA36A0620AD01ED181E
:101A400000F01AF9144900F001FBAD020100280072
:101A500000F0FCFA0021FFF74DFFC5E74006800EBD
:101A60009F011A003F180300B9E7C0460080FCBF81
:101A700008C0004000E0004000F0004008280020BE
:101A80002C10000001030000FEFF0000FFFF00001B
:101A9000C0FF3F00303000004E0E0000F8B5DE46BB
:101AA0004E4657464546E0B58B4605000A99180054
:101AB000160000F0CBFA0A9B6C001F02324B64192F
:101AC0009C46A4006444636881469F4200D96760D5
:101AD0002B1FDBB29846012B30D9C02380229B01FB
:101AE000E31812011A60294BAD0059599A46002992
:101AF0001BD17301E026226853401E4080234246DA
:101B00005B01E3181E60012A30D9802380229B01EB
:101B1000E31812011A6053464A4667605A51F0BCF6
:101B2000BB46B246A946A046F8BD586900F08EFAF9
:101B3000013043001B18033BFDD2DAE75B46012B63
:101B4000CBD1C02303229B01E3181A60023AA36899
:101B50001A42FCD07301E0262268AD0053401E40BB
:101B600080230A4A5B019246E3181E605A462168A8
:101B7000514003220A401A6001225B469A40A36842
:101B80001A42FCD0C1E7C046008000402C13002060
:101B9000F0B546464F46D646C0B51F00344B44000C
:101BA0009C462418A4006444636888461600FF2BF2
:101BB00002D880235B006360031FDBB29A46012BCF
:101BC00030D9C02380229B01E31812011A60294BEF
:101BD00085005959994600291BD17301E0262268D6
:101BE00053401E40802352465B01E3181E60012AC9
:101BF00030D9802380229B01E31812011A608023D0
:101C00005B0063604B465F51E0BCBA46B146A846F4
:101C1000F0BD586900F01AFA013043001B18033B6D
:101C2000FDD2DAE74346012BCBD1C02303229B012F
:101C3000E3181A60023AA3681A42FCD07301E02646
:101C40002268850053401E4080230A4A5B0191466A
:101C5000E3181E6042462168514003220A401A6080
:101C6000012342469340A2681342FCD0C1E7C0461C
:101C7000008000402C130020014B8000C0587047AA
:101C80002C130020F8B5040021481E0017000D0099
:101C900000F0DCF90100380000F0D8F9069B3604AA
:101CA0001B031E432368002B20DB1A4B1A49E31841
:101CB0005A1E93418022920194465B421B0B174AA5
:101CC0001B0363441360164A13601F000A6897439E
:101CD000FBD1144B2560E2182123A0601360236818
:101CE000002BFCDA0823E6601360F8BD3F2322686E
:101CF0001340AB42D9D1A3681B051B0D8342D4D13D
:101D0000EE22E368D2021340B342CED1EDE7C046E3
:101D1000001BB7000040FDBF08C0004000E00040CD
:101D200000F00040043000008023024A9B000B4377
:101D3000D362704700800540002310B50100988AE7
:101D40001B8B984710BDC046162310B5010018889C
:101D500002331B88984710BDF8B54746CE4680B57C
:101D60000F1E18D0142399460433040000250126C1
:101D700098464B461888434621681B88984701C4FB
:101D8000431E984101350640AF42F2D13000C0BC3D
:101D9000B946B046F8BD0126F8E7C04601207047B5
:101DA000D0231B061A68EFF3108172B6024B920023
:101DB0000020D1507047C046B8230020D022120620
:101DC0001268034B9200D35883F3108800207047A9
:101DD000B82300200048704744060020F8B50600EC
:101DE0000F001500FFF7F6FF041E0AD04368280015
:101DF0009847002804D13800B0472800A3689847C6
:101E0000F8BD04204042FBE7AA23064A1B011360E9
:101E10008D235B00D3600449044B19605368002B89
:101E2000FCDA70470040024000B0FA000060024057
:101E30007047C04610B50148FEF7F0FC701B021059
:101E400070B5074D074EB54209D20024013E761BFE
:101E5000B60808CD984723000134B342F9D170BDCC
:101E6000B0190210EC190210054B064A06491A6017
:101E7000064A074B1A6010000B689843FBD1704765
:101E800000E00040BFCDFBFE08C00040FE7F3C00EC
:101E900000F00040044BDB6C002B03D18022034B8D
:101EA000D2021A607047C046000011504C201150F9
:101EB000044A054B1A60054A1368DB018033FBD1E5
:101EC0007047C046FFFFFF0100F0004008C000401F
:101ED0004022034B9A675A671A67DA667047C04612
:101EE00000F0014010B5FEF755FD10BD70B5044D72
:101EF000044CA968C022200000F0E6FCAC6070BD74
:101F000000ED00E000000020002310B5294C82B055
:101F1000A367FFF779FF0122274B1A60636C012B3F
:101F2000FCD10322254B1A60224A936B012BFCD172
:101F3000013300930121224A22480433FFF7A2FE15
:101F4000052301210093204A2048FFF79BFE002231
:101F5000022104201E4BFFF71BFE00220121052059
:101F60001C4BFFF715FE0022002107201A4BFFF73C
:101F70000FFE002200210820174BFFF709FE8023E7
:101F8000DB000093002200210920134BFFF786FDA0
:101F90000022104B00210620FFF7FAFD0420FFF776
:101FA0006BFE0E4900F052F801000020FFF7BCFE66
:101FB00002B010BD008000403CB0004030B0004096
:101FC000002F685900800240008C864700C0024004
:101FD000001BB70040597307006CDC0240420F0041
:101FE00001480421014B184750060020591D0010DC
:101FF000014B9B681847000050060020124A936F5F
:102000009B0815D29066D166002905D0FFE7FFE74F
:10201000FFE7516F106F704704B580210906C217A2
:102020005140002800D0C8431FF092FC002104BD9D
:10203000F0B5146E556E576F166FFFF7E3FF146619
:10204000556657671667F0BD000000D0114A936FC0
:102050009B0813D210665166002905D0FFE7FFE701
:10206000FFE7516F106F704704B5002801D00020C2
:10207000C0431FF06DFC002104BDC046F0B5146ED6
:10208000556E576F166FFFF7E5FF14665566576775
:102090001667F0BD000000D094464A4A926F92083D
:1020A000624601D228E0C046F0B5464E346E756EE9
:1020B000776F366F00F020F89446424A14665566F2
:1020C000576716676246F0BD94463E4A926F920883
:1020D000624601D254E0C046F0B53A4E346E756E99
:1020E000776F366F00F04CF89446364A14665566A2
:1020F000576716676246F0BD002B24DB11D000291C
:102100003EDA00B5C943404200D1013100F038F851
:10211000C943404200D10131DB43524200D1013377
:1021200000BD002AEBD1002801D1002905D00020F4
:10213000C90FC90701D1C043410800B51FF0F0FB2A
:102140000022002300BD00B500290ADBDB43524218
:1021500000D1013300F014F8C943404200D10131ED
:1021600000BDC943404200D10131DB43524200D19E
:10217000013300F005F8DB43524200D1013300BDCA
:10218000002923D1002B18D1002A0CD0BC460D4FBA
:1021900038667A6600210023FFE7FFE7FFE77A6FE2
:1021A000386F67467047002801D00748010000B526
:1021B0001FF0B6FB0022002300BD02000B00002030
:1021C00000217047000000D0FFFFFFFF002B00D070
:1021D000BFE0130C28D1002AE7D080B4114F396634
:1021E0007A66FFE7FFE730B4040C7B6F396F1B049E
:1021F00023433B667A66FFE7FFE7FFE7C04684B20A
:102200007B6F3D6F1B0423433B667A66FFE7FFE766
:10221000C04600232C042D0C7A6F386F00196941D9
:10222000B0BC7047000000D0F0B594460025140EF5
:1022300001D112020835140F01D112010435940F97
:1022400001D192000235D40F01D152000135D40BD7
:102250000134254F7C66254C3C660E0C93B2FFE79B
:10226000FFE7FFE73C6F6643360C7703BE467343D8
:10227000DF0B5B04C01AB941130C7343DB18C91A96
:10228000CE086643360CB64493B273431F0F1B014E
:10229000C01AB941130C73431F0B1B05C01AB94177
:1022A000860D8F023E436643360C092D24DB520A0D
:1022B0007243801A7703460A6643360C16235B1B6B
:1022C000DE40DF40BF1964466643821B704604351A
:1022D00006330100D940A840C01900D30131A24201
:1022E00006D20023F0BD0000000000D0FFFFFFFF7A
:1022F000121B0130F3D3F1E709277F1BFE40644630
:10230000A2B27243801A00D20139220C7243130C1C
:102310001204821A99410B007046043513370100EC
:10232000F940A840801900D30131002B02D1A2420C
:102330000AD2F0BD013000D30131121BFAD2013BA9
:10234000F8D1A24200D2F0BD013000D30131121BFE
:10235000F7E7F0B51C0C00D080E00CB400251C0A97
:1023600004D11B02160E3343120208351C0B04D194
:102370001B01160F3343120104359C0B04D19B0043
:10238000960F334392000235DC0B02D192185B4169
:1023900001351C00971864410134464F7C66464C59
:1023A0003C660E0CFFE7FFE7FFE7C0463C6F664365
:1023B000360C7703BE4697B27743C01B00D2013973
:1023C000C01B00D201399FB27743C91BC91B170C30
:1023D00077437E04FF0B801BB941CE086643360C61
:1023E0000C2D33DBB644120B1F053A431B0B97B27F
:1023F0007743C01B00D201399FB27743C91B170C2A
:1024000077433E043F0C801BB941860D8F023E434B
:10241000664329277F1BFE400C3D7746AF40BF191E
:1024200030BCA2B2ABB272437343801A9941220C02
:102430007243130C1204801A994102000B000137F9
:10244000001BA941F9D2781E0021F0BD0C277F1B8B
:10245000FE4077467F0BAF40FF19E0E700245D1C8C
:1024600007D0144F7D663966FFE7FFE7FFE7FFE718
:102470003C6F95B29EB265436643401BB141150C5B
:102480001E0C6543664336042F0C3E432D04401B4F
:10249000B141994204D202000B0020000021F0BD9E
:1024A00001D19042F7D3801A994101349942F2D375
:1024B000F6E70000000000D0FFFFFFFF484041406A
:1024C000484018B4134B5B68019308BD18B4114B16
:1024D0001B68019308BD94460F4A926F920805D27B
:1024E000624618B40B4BDB68019308BD0A4AF0B58D
:1024F000146E556E576F166F6246FFF7F2FF064A6D
:102500001466556657671667F0BD18B4014B9B6893
:10251000019308BD380E0020000000D0FFB55040E8
:102520004240504059404B40594000E0FFB5154FE4
:102530004C00640D03D0BC4204D10C0314D800201D
:10254000090D09055C00640D03D0BC4204D11C03D5
:102550000AD800221B0D1B0501264B4009D44B4015
:1025600003D58B4200D18242FFBD9942FCD19042FB
:10257000FFBD0B43DB1803431343F5D0C943491890
:10258000FFBD0000FF07000000B5FFF7CFFF80414F
:1025900000BDC04600B5FFF7C9FF01D9002000BD4E
:1025A000012000BD00B5FFF7B9FF01D9002000BD33
:1025B000012000BD00B5FFF7B1FF804100BD012043
:1025C00040054A00121804D85A00121801D80020F9
:1025D00070470120704700000021002805D1704796
:1025E000C1174840401AFAD0C90713B5064B1B68FB
:1025F00098470CBC441CA2401005120B0349091B50
:1026000009051943114310BDB82400201F04000020
:1026100010B54C00620D8023D218DB00D21A5B0586
:102620007E2A10DD9E3A13DACC17090349081943B4
:102630005242D140640001341532202A05DAD040DC
:102640000843604310BD002010BD0846604310BD24
:10265000C80FC018013810BD18B4024B5B6A019353
:1026600008BD0000380E002010B50148FEF7D6F86E
:102670007C1B0210132370B51D78012D19D014DDB9
:102680001D48FFF761FB06001C48FFF75DFB1C4C73
:1026900080223100200000F017F9022D06D01948E1
:1026A000FFF74AFB184B186070BD154C174BA3641D
:1026B000F5E7174B124C23606360A360E36023616E
:1026C0006361A361E36123626362A362E3622363E4
:1026D0006363A363E36323646364A364E3642365C4
:1026E0006365A365E36523666366A366E3662367A4
:1026F0006367A367E367D9E75344000053460000CC
:10270000380E00204C330000B8240020152700109C
:102710006926001007B5604601880A0A0230DF2AE0
:10272000FAD1C9B2820804D3028840880004104359
:1027300000E00068014A5050039007BD380E0020A9
:1027400051434343C9188C46110C83B24B4310B418
:10275000040C614392B280B2504362431C041B0CD0
:10276000001910BC59411304120CC01851416144A6
:10277000704700004840414048400E4B5B68184796
:102780000C4B1B6818470C4A936F9B0802D2094BED
:10279000DB681847F0B5146E556E576F166FFFF76C
:1027A000F6FF054A1466556657671667F0BD014B7C
:1027B0009B681847BC240020000000D0491A00285C
:1027C00008D1084670470000C10FC90700D5404234
:1027D000002817D0F44603B40B4B1B68984706BC7F
:1027E00081409E384042803107D20B0607D0490015
:1027F000490AC0051043084360470130F8E7490A19
:102800008902F5E770470000B8240020014BDB6F18
:1028100018470000BC24002010B50148FDF7FEFF5A
:10282000201A0210132310B510481C78FFF78CFAF9
:102830000100012C0AD003DD80220D4800F044F88D
:102840000C48FFF779FA0C4B186010BD084C542265
:10285000200000F039F82200084980322368002B5C
:1028600000D1216004349442F8D1E9E753460000D6
:10287000BC2400204C330000B8240020192800108C
:1028800010B504001EF0C2FA002804D0034B04194E
:102890009C4200D810BD0248FDF7C0FF0000042094
:1028A000941B021010B51EF0BBFA10BD01480421A4
:1028B000014B184760060020591D0010014B1B6892
:1028C0001847000060060020014B5B6818470000B5
:1028D000600600207047C046F8B55746DE464E46B3
:1028E0004546E0B599460A9B07009A460D9B8846E7
:1028F00093460B9C9B073BD10C9B9C423DD21E1BDD
:102900000B9415000C005E442A004B460135210053
:102910002020B847B542F7D1A0460B9C002C20D010
:10292000454636195346321B013C185D29004B467B
:10293000B847002CF6D12B00350098460D9B9B071D
:102940000FD55B46EC1A0C9BA3420AD94646984623
:102950002A004B46310020200134B8470135444558
:10296000F6D32800F0BCBB46B246A946A046F8BD47
:1029700016001500002CD3D1E0E716001500002C3E
:10298000CED1EEE7F0B54546DE4657464E46E0B5B9
:1029900085B09C4610AB1B78149F934698460F9CBD
:1029A000129E139DBB074CD4002D42D1B44248D295
:1029B00001233B4099460E9B013B9A46302304E09D
:1029C000524601341355A64201D9202CF8D14B466A
:1029D000002B00D183E00E9B013B99463023A5429A
:1029E00005D82EE04A4601341355AC4229D0202C9C
:1029F000F8D1FB060CD57B0554D4A64263D0A54282
:102A000061D0119B102B50D0022B57D0202C32D1EB
:102A1000202301930E9B5A46009303976346029529
:102A2000FFF75AFF05B0F0BCBB46B246A946A04628
:102A3000F0BD01233B40994601233B422AD1B442D9
:102A4000B9D3FB061CD57B05DBD4002CD5D1119B5B
:102A5000102B5BD0119B022B6BD0302301240E9ADC
:102A600013704346002B10D17B073ED52B260E9AC0
:102A7000631C1655CDE72300013430260E9AD65438
:102A8000202CC5D04346002BEED02D260E9A631C79
:102A90001655BEE74346002B2FD0013DB44200D26D
:102AA00089E798E7119B102BB2D1BB0637D5202CB4
:102AB000AED058230E9A13550134A7E7202CA7D087
:102AC0002300013407E0631E012CC0D0119A102AA4
:102AD00031D0022AD1D162260E9AD65496E7FB064F
:102AE000CED57B0500D488E78BE723003E0790D541
:102AF00020260E9A013316558BE70C233B405A1EB5
:102B00009341ED1AB44200D255E764E7BB060ED4F8
:102B100078230E9A0224137030235370A1E7202CDF
:102B200000D175E778230E9A135501346EE75823C8
:102B3000EFE76033EDE70E9AA61E91464E44BA06C3
:102B400002D55822327098E77822327095E7C04655
:102B500010B5002800D110BD01F09AFCFBE7C0467B
:102B60000B0010B5002802D049681B68984710BDBB
:102B7000F0B55746DE464E464546E0B595B083462D
:102B80000F00924698461E9A1F9B10001900209E27
:102B9000FFF715FD002800D0EAE11E981F990122D9
:102BA000C54B5242FFF7F0FC002800D014E11E98FC
:102BB0001F990122C14B5242FFF7FCFC002800D0B4
:102BC000E9E01E981F990022BD4BFFF7F3FC002897
:102BD00000D0C8E01E981F990022BA4BFFF7D4FC22
:102BE000002800D0BFE01E981F9900220023FFF7A5
:102BF000CBFC002800D0E4E000230B93229B5B0574
:102C000000D406260024302307E0172106AA013449
:102C100052181355013E202C01D0092EF5D81E98CC
:102C20001F99FFF7F5FCA84BF2009B181A685B6828
:102C3000050008920993FFF7D3FC02000B001E98D1
:102C40001F99FFF73EFC089A099BFFF75EFC069070
:102C50000791FFF701FD8146FFF7BEFC02000B0064
:102C600006980799FFF72DFC0022984B06900791D4
:102C7000FFF7A0FC002800D10DE101239C46E144B0
:102C80004846FFF7A9FC02000B0008980999FFF7D6
:102C900081FC002802D0002399460135002E00D186
:102CA000D9E006954D46B94614E006AA9446172386
:102CB0000A216344280001341F19FFF7C7F9303196
:102CC000397028000A21013EFFF7C0F9092D00D80C
:102CD00017E10500202CE8D14F46069D20240CAEBC
:102CE00006AA17239446634499465B46B346069367
:102CF0000FE04B4628000A210134E618FFF77EF961
:102D00003031280031700A21FFF778F9051E00D113
:102D1000E4E0202CEDD1069B5E469B460323229ADD
:102D20001340012B18D1219B002B15D00B9B002B9E
:102D300000D1FDE0219B013B2193202B0CD93023B6
:102D4000219A07E0172006A9013409180B5594426F
:102D500000D3CCE0202CF5D1229B01940393219B3E
:102D60000096029322E0229B52460493219B390055
:102D7000039358461E9B1F9C029600930194434662
:102D800000F04AF90400200015B0F0BCBB46B24682
:102D9000A946A046F0BD229B5B070FD403224C4BF3
:102DA0002299019203912199009302914346524640
:102DB00039005846FFF790FD0400E4E70422454B34
:102DC000EEE71E9A1F9B00200021FFF77AFB0123EC
:102DD0001E901F910B9311E7229B54469B0711D124
:102DE000219B042B0ED9219B55469C465E46043CF4
:102DF00064442A004346013539002020B047A542EB
:102E0000F7D1B346344D26002B1F99465B46A346A7
:102E10001C003200E87843463900013DA0470136E6
:102E20004D45F6D123005C469B46229B04349B070C
:102E3000A9D55346219AE31A9A42A4D95E461500B1
:102E40002200434639002020B04753460134E31A9C
:102E50009D42F5D897E72800FFF7C2FB02000B0060
:102E60001E981F99FFF72DFB0022184B0690079123
:102E7000FFF78AFB0CAE002800D031E706980799CF
:102E80000022124BFFF796FB002800D028E7012311
:102E900001359D4324E70022069807990B4BFFF765
:102EA00073FB002800D0F9E64B46002B5CD10123D0
:102EB0009C46E144F2E6C046FFFFEFFFFFFFEF7FD5
:102EC00065CDCD4165CDCDC1E85502100000E03F94
:102ED000F81B0210F01B0210001C0210069B5E463D
:102EE0009B460323229A1340012B00D181E0202C22
:102EF00000D131E70B9B002B27D02D233355013414
:102F00002AE74F46069D202C00D1E7E630223319F0
:102F100007E0172006A9013409180A55202C00D112
:102F2000DCE6A342F5D12E220CAE0134F254D7E6F2
:102F30000C23229A134257D0219B013B2193A34299
:102F400000D9FCE6202C00D106E7229B5B0703D5C5
:102F50002B2333550134FFE6229B1B0700D4FBE6ED
:102F6000202333550134F7E6DB0700D496E69EE7CD
:102F7000229B55469B0711D1219B032B0ED9219BE8
:102F800054469C465E46033D654422004346013458
:102F900039002020B047AC42F7D1B346B9465F466E
:102FA0001C4EEC1C2A00B078434649460135B84710
:102FB000013EAC42F6D1229BBB464F469B0700D454
:102FC000E1E65346219AE31A9A4200D8DBE65E46D0
:102FD00015002200434639002020B04753460134F3
:102FE000E31AAB42F5D3CEE6219BA34200D9A6E675
:102FF000B2E6219B002B00D179E70B9B002B97D0E9
:10300000219B013B21939C4200D298E6202C00D0CA
:1030100073E7A1E6FC1B0210F0B5DE4657464E46AC
:103020004546E0B599B081468B4692469846229A2D
:10303000239B10001900FFF7C2FA002800D0CAE055
:10304000229823990122824B5242FFF7B3FA0028BB
:1030500000D0C0E02298239901227E4B5242FFF714
:1030600093FA002800D0B6E022982399002200238A
:10307000FFF78AFA002800D0C9E1229B239C08931D
:103080000994089809998023269ADB001A400D922A
:103090008022269C1201144022000B94269C0700DB
:1030A0000E001C4200D0ADE00B00034300D0D5E081
:1030B000002A00D00AE222000633249302231340A0
:1030C0000C930223134200D002E2259B042B00D272
:1030D0000FE2043B0B93002304250A93002222985D
:1030E00023990023FFF750FA002800D003E25A4B3F
:1030F000269A134004930B9B0393249B0293089BF3
:10310000099C009301945946434652464846FFF7AE
:103110002FFD02002020269B1F27034059424B41D0
:103120005B421840531C0893594643464530C847F4
:103130000A9AD317D4185C40D30F0A936B1E0B93D3
:1031400008AB9C460025674401E0202D0FD02000ED
:103150000A21FEF77BFF01357E19303131702000E6
:103160000A21FEF773FF26000400092EEDD805237F
:1031700006930B9B59460593002304930A3303934C
:103180000A9B4846029310AB0093089A4346019568
:10319000FFF7F8FB0C9B002B2DD05346C41A259B40
:1031A000A34228D94D465F4681461E00534639004A
:1031B0001A19202043460134A847A642F6D85346A0
:1031C00048462599C21A01320023914200D386E174
:1031D000013018180FE0269B0493259B0393249B32
:1031E0000293229B239C00930194434652465946E6
:1031F0004846FFF7BDFC19B0F0BCBB46B246A94635
:10320000A046F0BD01432BD10B9B2200002B00D127
:1032100054E700230A93249B0A9A0024934200DD7A
:1032200085E12298239900220023FFF7ADF90028B9
:1032300000D035E1269B084A02941A408023DB0027
:1032400013430493259B0393089B099CCBE7C0463B
:10325000FFFFEF7FFFFFEFFFFFF7FFFF0623249342
:10326000B44B70009C46400D6044FFF7B9F9B24A78
:10327000B24BFFF74AF9B24AB24BFFF727F93603D0
:10328000B14B360B334304000D0038001900002207
:10329000AE4BFFF716F9AE4AAE4BFFF736F9020018
:1032A0000B0020002900FFF711F9FFF7B1F90A9090
:1032B000FFF796F9A84AA94B04000D00FFF725F97E
:1032C0000022A74BFFF702F9FFF7A2F9A54A060073
:1032D000A54B20002900FFF718F9040030000D006D
:1032E0000C96FFF77DF9A14AA14BFFF70EF90200FA
:1032F0000B0020002900FFF7E4F802000B00060095
:103300000F00FFF702F9320004000D003B0030000F
:103310003900FFF7DBF800220E900F91954B20004B
:103320002900FFF7D8F80022934BFFF7CFF80200EF
:103330000B0020002900FFF7CEF800228F4BFFF78B
:10334000C5F802000B0020002900FFF7C4F80D00AB
:103350008021040032003B000020C905FFF7B1F8CE
:1033600002000B0020002900FFF7B0F802000B005C
:103370000E980F99FFF7AFF80022734BFFF7A6F8EE
:103380007F4B0C9C9C46644400222305FFF7BDF84C
:1033900006000F0002000B0008980999FFF7F4F8E7
:1033A00000280AD00A9B3000013B39000A93002212
:1033B000714BFFF790F806000F000A9A3300633252
:1033C0003900C62A12D802222698042510400B9AEA
:1033D0000C90002A25D1259B042B05D9002800D06C
:1033E000A1E0259B043B0B93042541E00222269893
:1033F00010400B9A0C90002A12D1259B052B76D9F0
:10340000002872D1259B0525053B0B9334E08022D3
:1034100012069446229B0893239B6344099330E64B
:1034200005250B4300D1F6E608980999554A564BF5
:10343000FFF7B8F8002808D0089809990022534BE4
:10344000FFF7A2F8002800D0E5E6249B002B1CD053
:103450000D9B002B19D0249B013B2493259BAB4251
:1034600004D90C9B002B5AD002230C9300230B93FE
:103470000A9B002B00D131E60898099932003B00E5
:10348000FFF729F80890099128E6259BAB42EDD972
:103490000C9B002B43D000230B9302330C93E7E7E4
:1034A0008020269B3A4A00061A40802384460294D4
:1034B000089C099D2900DB0013430493259B61446C
:1034C000220003930B00009201938EE60524A8E6E8
:1034D00000230B930A93023304250C93FEE5534615
:1034E0008C46013B63441B1A72E602230C930525AC
:1034F000C2E70423EDE58020089E099F00063900FD
:103500008446269A224B6144134004930B9B32005D
:103510000393249B02930B0000920193F3E5259BF8
:103520005B1B0B93A4E7022304250C93A0E79C1AD2
:10353000013C76E601FCFFFFFB799F501344D33F2B
:10354000B3C8608B288AC63F0000F03F0000F83FF8
:1035500061436F63A787D23F71A379094F930A40F4
:103560000000E03F1655B5BBB16B0240EF39FAFEE3
:10357000422EE63F00002C4000002440000018408E
:10358000FF0300002D431CEBE2361A3F80842E41DE
:10359000FFF7FFFFF0B5DE4657464E464546E0B51D
:1035A000A5B01E002E9B92460C93CD4ACD4B804673
:1035B0008B461A60002900D1EAE100233078994651
:1035C000002800D1ECE1C84B4C460B93C74B454655
:1035D00057460E930AE0631C984622003B0059466A
:1035E000A84744463078002800D187E001362528D6
:1035F000F1D108239A46043B9946023B9846013B89
:1036000000229C460D943078711C0300203BDBB2F5
:10361000102B03D80B9C9B00E3589F460300303BC4
:1036200089460D9C092B3AD9002398462A2800D1B7
:10363000C1E000239A462E284BD00300683BDBB242
:10364000122B1ED80E999B00CB589F4663460E0046
:103650001A43D8E743460E001A43D4E74B460E0000
:103660001A43D0E710230E001A43CCE753460E004E
:103670001A43C8E780235B001A43FF3B9C467078DF
:10368000E1444E4667284FD82428A4D90300253B9F
:10369000DBB2422B9FD896499B00CB589F46002314
:1036A00094461E0000E00131B3009B195B001E1818
:1036B0000878303E0300303B092BF4D901236246E1
:1036C00089469C460023B0469A460E00E1442E28C7
:1036D000B3D13021802049428C46C000024370782B
:1036E0004B4684446146092900D86CE12A2800D160
:1036F0007AE101239C464E46E1449EE7A146A84656
:10370000BA46CA4503D801235B42534499465346FF
:103710004A4659460020C047200025B0F0BCBB46B1
:10372000B246A946A046F0BD0300693BDBB20D934B
:103730000F2B00D94FE7012199408C466D498946EE
:1037400061464B4619400F91634649460B4200D0F3
:1037500028E10D9B0A2B3AD0072B00D03BE70C9BAE
:10376000190008C98846002B00D14BE121200243F3
:10377000914614A98C461F220F2162448C46514663
:103780000D950C91A24615000F9902E020290CD04E
:10379000130064461C4020003730092C00D807383D
:1037A000013168541A090F2BF0D80C9B54460D9D1B
:1037B0009A460F9133E10C9B02CB8846002947DBE8
:1037C0000C9301239C4670784E46E14431E70C9BF4
:1037D00002CB14935346002B00D138E19C46087865
:1037E0000B000C908C44002801D100F098FC894615
:1037F0006146944603E05A780133002A01D08B4297
:10380000F9D1494662465B1A0C900F93530500D5D7
:1038100020E10223180010400D90134200D1CBE3A9
:103820000D930B1BB1469A465E460C9822003B0056
:103830003100A84753460134185D0028F6D1B3463D
:103840004E460D9B002B00D0C7E1149B0C93C9E69C
:103850000C9301239C4628384942024388467078DD
:103860004E46E144E5E670786C2800D17FE1802384
:103870005B001A43FF3B9C46E14402E780239B0028
:103880001A4301239C467078E144FAE67078682870
:1038900000D173E180231A437F3B9C46E144F0E66C
:1038A000672800D103E1472800D15AE1452800D11B
:1038B0005AE10492072142460C9B03920733524679
:1038C0008B43190002920CC92800009201930C91BD
:1038D00022003B005946FFF79FFB040082E6C046EA
:1038E000953500101C2400204C54021090540210F6
:1038F000DC54021041900000462800D1DBE0049225
:10390000072142460C9B0392073352468B43190012
:1039100002920CC92800009201930C9122003B00F6
:103920005946FFF725F904005CE6631C984622001F
:103930003B0059462520A847444653E60C9B0433D8
:103940000D93631C9946920700D422E10C9B220040
:10395000187859463B00A84743464444012B00D8F9
:1039600085E23300B8462E005F4625004C46994656
:1039700022004346013439002020B047AC42F7D141
:103980002C00BB46350047464E460D9B0C9329E65E
:10399000DB4B3078984600239946002800D012E689
:1039A0000024AEE66F2800D188E000D80BE3102396
:1039B000782800D1CFE09A430A239C4600230F9336
:1039C0000A330D9380E05646B1008919490001334E
:1039D0000E181878303E010030390929F4D9B24662
:1039E0001E000133994628E60C9B023602CB8A461C
:1039F000C9435046C917084082460C933078731C5F
:103A000099461AE610231000984311331843814653
:103A100080201300C0000340024200D1A9E64B46BB
:103A2000069308230593534604931023039300231E
:103A300002930F9B220001931CAB009359463B005D
:103A40002800FEF79FFF434604000C93CAE50123BC
:103A50005B42C3E60F9B534501D953460F930223A4
:103A6000180010400D90134200D1B7E10D93D146DC
:103A70000B1B9A463300A1442E0022004D460C98A1
:103A8000B9465F469B4608E04B463900541CB04798
:103A90005346185D002877D022009542F4D15B464A
:103AA000BB464F46A94635004C461E00C9E680235A
:103AB0001B011A43FDE620231A4320E708239C46F6
:103AC00000230F9308330D9380231100DB0019406E
:103AD0001A4200D116E10D239A4310008023020000
:103AE0009B001A401492184200D0C2E180230200C9
:103AF0005B001A4091460C9A04320F92184200D093
:103B0000B7E2430600D59FE1030600D419E30C9BFE
:103B10001B880993002B00D0FCE110339843002947
:103B200000D1F7E100239946434605935346049399
:103B30000D9B069003930023D2E0582808D06228FA
:103B400067D102239C4600230F9302330D93BBE7FA
:103B500020231A43103B9C4600230F9310330D93F0
:103B6000B2E780231B011A4320231A43A1E6C02396
:103B70009B001A43F31C9946B07882E5C0231A4390
:103B8000F31C9946B0787CE535005E46BB464F464F
:103B900057E64346012B00D863E1631E43449A462F
:103BA0003300B9462E005F4655469B46A24622008A
:103BB0004B46013439002020B047AC42F7D13500E4
:103BC0005E46BB464F46A14654460C9B4A46187873
:103BD00059463B004444A847D7E6A1460F9B984569
:103BE00000D832E64444E41A3300B8462E005F465B
:103BF00025004C46994622004346013439002020D6
:103C0000B047AC42F7D12C00BB46350047464E4684
:103C10001BE680231000DB0018401A4200D10FE1A0
:103C2000112118008A430D920D9A802311009B00E8
:103C300019408C461A4269D1802311005B0019405B
:103C400089460C9904310F911A4200D0CAE1130041
:103C50005B0600D5F0E013001B0600D459E20C9B74
:103C600000229B5ED9175A184A4092B2D90F0C9184
:103C7000002B00D1F9E1100014AA944642461F23FC
:103C8000149252466344A84616944D460400B94621
:103C9000B2461F00159201E0202D0FD020000A210E
:103CA000FEF7D4F901357E193031317020000A2138
:103CB000FEF7CCF926000400092EEDD8149B4F46E0
:103CC000A94645469846159B56469A46169C0D9B16
:103CD000069343460593534604930A2303930C9B90
:103CE00002934B4601931CAB2200009359463B00C4
:103CF0002800FEF747FE0F9B04000C9372E4C046B9
:103D0000D52800100C239A431000E7E607220C9BED
:103D100007339343013294469C4462460C920CCB89
:103D2000D90F0F911100194300D191E0D9171391C8
:103D30001291514010911399594011911098119975
:103D4000129A139B801A99411090119114AA002382
:103D5000944642469946149252461F336344A846FD
:103D6000B24616944E46109C119DB94615921F00FE
:103D700001E0202E10D0200029000A220023FEF7A7
:103D8000A3F9013630322B00BA550D002200040091
:103D9000002BEED1092AECD8149B109411954546BE
:103DA0009846159B4F46B14656469A46169C0D9B23
:103DB000069343460593534604930A2303930F9BAC
:103DC00002934B4601931CAB2200009359463B00E3
:103DD0002800FEF7D7FD0400FFF704FC0F9B984571
:103DE00000D8C1E18023DB000D9343460F9A1B19D5
:103DF0009B1A994633002E004D46B9465F469B46B6
:103E00000C9122004B46013439002020B047AC42CF
:103E1000F7D143460C9901330F930B7835000C937F
:103E20005E46BB464F46002B00D10EE50D9B002B96
:103E300000D1F6E4002319E60C9B1B781A0015E765
:103E400010239A430D92EFE60C9B1B78099361E6D1
:103E5000002399460028AAD1002200231092119332
:103E600074E70C9B2200187859463B00A8474C4643
:103E70008BE50C9AFA3BFF3B07329A430133994694
:103E800091444B460C931368526815921A4306D11D
:103E90001032904300220992002900D081E0612273
:103EA000810600D54122D2B20A9214AA91460A9AFA
:103EB00000210A3A149242461792524618925A46E4
:103EC0000991B3461F311E000F9B4944BA4619940D
:103ED0001A950024674698468946159D16901B92B0
:103EE0000AE03032D2B24B4601341A55A8454AD0C6
:103EF000202C4AD006000D003A0000233000290093
:103F0000FEF7E2F8D2B2092AEBD9149B9C46624430
:103F1000D2B2E8E76123820600D54123DBB20A3B37
:103F20000C93434614A91F228C46159353466244B2
:103F3000A046B2464C461797A9461700099D0D9E0C
:103F40001490169308E03033DBB201343B55B54290
:103F50000ED3202C0CD0050031002800FEF776F897
:103F6000CBB20929EFD90C9A94466344DBB2ECE753
:103F7000159B4D46A14644469846169B56461498B6
:103F80009A46179FD0E5B742B2D9179B5746984635
:103F9000189B5E469A461B9B09949B461698199C53
:103FA0001A9D43460593534604930D9B0690039335
:103FB00000230293099B05E70F9B984500D914E75E
:103FC00001330F932DE41023110099430D916928BB
:103FD00000D0BAE080231000DB0018401A4200D164
:103FE00022E61DE60C9B1B68DA0F1100002B00D1A6
:103FF0008CE0DA179818504014AA914642461F23C5
:10400000149252464B44A046A946169704006546B2
:10401000B2461F000C91159201E0202D0FD0200018
:104020000A21FEF713F801357E1930313170200076
:104030000A21FEF70BF826000400092EEDD8149B88
:10404000444698460C9BAC461900159B56464D4677
:104050009A46169F0D9B029106934346059353463D
:1040600004930A23039363463CE6002800D02EE61F
:1040700002E60C9B1B689946002B03D11033984332
:10408000002938D16123820600D54123DBB20A3BE7
:104090000C9343461693534614A91F228C4617933C
:1040A0002B006244A0464D46B24618979946170029
:1040B000149C0D9E159008E03033DBB201343B5563
:1040C000B5420ED3202C0CD0050031002800FDF79E
:1040D000BDFFCBB20929EFD90C9A94466344DBB2F9
:1040E000ECE7169B149444469846179B56464D465B
:1040F0009A461598189F43460593534604930D9B83
:104100000690039300230293149BEBE50028A1D1B2
:1041100072E70C9B1B68D9175A184A40A6E5802302
:104120001000DB0018409C460F901A420FD002206E
:10413000030013400F93104219D00023A1460F93A0
:104140004CE50C9B1B680993E4E40A0034E4022369
:10415000180010400D90134200D03EE54346002B5E
:1041600000D042E6FFF771FB01330F937FE4634613
:104170000D93F3E710B50C0084B00394012402A959
:1041800002900093034813006242FFF703FA04B061
:1041900010BDC046612B001010B5094A0300146819
:1041A00084B0002C08D0012200910648524203A995
:1041B000A047012004B010BD00F0B4F90020F9E7D9
:1041C0001C240020512B001000BEFDE7094A03000B
:1041D0001068002805D00849C3188B4207D813601F
:1041E000704706480449C31810608B42F7D9012074
:1041F0004042F5E7A0230020000004200C29002005
:1042000010B5FFF7E1FFC04670B5FDF719FE074D89
:10421000074EB54209D20024013E761BB60808CDF0
:10422000984723000134B342F9D170BDEC19021054
:10423000F4190210030010B5080011001B6898471C
:1042400010BDC046F0B5C64600B5437D07000C0062
:104250001600002B46D0002A17DD0B780A2B24D03D
:1042600000239846012E13D001252900635C0135F7
:104270000A2B26D0B542F8D1464509DCA419013CE9
:1042800023780D3B5A4253413B7580BCB846F0BD84
:104290004346E018A419F11A013C3B68984723787B
:1042A0000D3B5A4253413B75EFE7037D002BD7D1BD
:1042B00002210F483B689847012EDFD00123984622
:1042C000D2E7631E5B5C0D2BD4D0884504DA4346ED
:1042D000C91AE0183B689847022105483B68A84680
:1042E0009847C7E70368110020009847CDE7C0460C
:1042F00038560210F0B5C6460B6806000C0000B533
:10430000802B06D05A1C2260E418267180BCB84667
:10431000F0BD0F4B1D68002D16D00B1D98460D4F9C
:1043200002E02D69002D0FD02B68002BF9D03B68DF
:10433000002B01D0AB42F4D1280041462268FFF7A0
:1043400081FF2D69002DEFD101220023DBE7C0465C
:10435000501C0020681C0020F0B54546DE464E4645
:104360005746E0B583B091461C0080460D00FDF72E
:10437000B7FA0023304A12184B41002B02DA01220F
:104380002E4B52422E4908008A461DF0F9FA0700CA
:104390006B1C03D140461DF027F90500002C27D0E7
:1043A000284E294B1C68002C18D04B46002B21D1DD
:1043B000264B994602E02469002C0FD02368002B7D
:1043C000F9D04B461B68002B01D09C42F3D1200052
:1043D0002A004146B0472469002CEFD1002F26D196
:1043E000280003B0F0BCBB46B246A946A046F0BDCB
:1043F000174ED6E7154B99460A239B4602E02469DF
:10440000002CEBD02368002BF9D04B461B68002B07
:1044100001D0A342F3D12A0041462000B0476B46A9
:104420005A462000DA71D91D0122B047E7E750460D
:104430001DF06EFAD4E7C04640420F00FFFFFF7F39
:10444000200C002045420010501C0020681C002059
:10445000354200100A4A1368002B05D10CE01A00FF
:104460001B691032002B07D08342F8D1002902D1FA
:1044700018691060196170470029FCD01060FAE7D4
:10448000501C002010B500F0ABF9012010BDC04653
:10449000F0B5CE46474680B583B06B460600DD1DBD
:1044A0002870FDF71DFA0023194A12184B41002B02
:1044B00002DA0122174B52421749080088461DF0C4
:1044C0005FFA164B81461C68002C14D0144F02E092
:1044D0002469002C0FD02368002BF9D03B68002BF7
:1044E00001D09C42F4D1200001222900FFF7AAFE4E
:1044F0002469002CEFD14B46002B05D1300003B0CE
:10450000C0BCB946B046F0BD40461DF001FAF5E723
:1045100040420F00FFFFFF7F200C0020501C0020B6
:10452000681C002070B504001DF05EF80123010036
:10453000050001222000FFF70FFF084B1C68002C2C
:1045400006D06368002B05D098472469002CF8D169
:10455000280070BD2469002CF3D1F9E7501C00201D
:10456000F0B5CE46474680B5A3B004000D00FDF778
:10457000B7F90023274A12184B41002B02DA012217
:10458000254B5242254E30001DF0FAF9002322003F
:10459000019307002B00224801A9FFF7EBFD214BF7
:1045A000804699461C68019B002B1AD0002C2FD006
:1045B0001D4D02E02469002C0FD02368002BF9D098
:1045C0002B68002B01D0A342F4D12000019A02A94C
:1045D000FFF738FE2469002CEFD14B461C680023FE
:1045E0000193002C06D06368002B0BD098472469F8
:1045F000002CF8D1002F07D1404623B0C0BCB946EB
:10460000B046F0BD2469ECE730001DF081F9F3E716
:104610000194EFE740420F00FFFFFF7F200C0020D6
:10462000F5420010501C0020681C00200FB400B59B
:1046300083B004A901C90191FFF792FF03B008BC40
:1046400004B01847F0B5002915DD0E4B0D271A6888
:104650000D4B0E4CD3185D426B41451820215B0079
:104660001E5F0478A64207D093691942FCD101303D
:104670001460A842F5D1F0BD93691942FCD11760CE
:10468000F2E7C0460C2800200080FCBF082800206C
:10469000204B70B504000D1E1E682ADD002010217D
:1046A0001D4B013C1A689369194214D1013093697A
:1046B0001942FCD1136823548542F4D1002E08D04E
:1046C00050239363516B183B0B4014498C46624452
:1046D0001360280070BD002E08D050239363516BE7
:1046E000183B0B400D498C46624413600028F1D101
:1046F0000CE0002E0AD05022074B1B689A63596BBE
:10470000183A0A4005498C4663441A600320404227
:10471000E0E7C0461C1300200C28002034100000E5
:10472000064B10B51B68002B06D00021044A126806
:104730009163044A1068984710BDC0461C130020BE
:104740000C280020201300200822034B19688B69D5
:104750001A42FCD17047C0460C280020F8B51A4F09
:104760001A4B3A680500D31858424341184E143387
:104770001C003368002D02D0002B0FD0F8BD002B99
:10478000FCD0002120009563FCF724F9200011499A
:10479000FCF75EFA104B35601D60EFE70E4B200012
:1047A00019600C493560FCF72FF901212000FCF756
:1047B00011F950223B689A63596B183A0A4007492D
:1047C0008C4663441A60D9E70C2800200080FCBFA7
:1047D0001C1300202147001020130020341000007B
:1047E0000D4B10B51B780D4B0D4C1B780D4B02215A
:1047F0001B780D4B00202360FBF750FF02210120A6
:10480000FBF74CFFE12120684902FDF7B7F80121D1
:104810000648FFF71FFE10BD2C21061028210610A8
:104820000C280020242106100040034070060020C0
:10483000030010B5012911D11140D00629D502205D
:104840000143100612D4140B2ED1022937D11B7A42
:1048500005205A4253415B42184019E05105C90FE7
:1048600010051DD5022001439006ECD5120B541CF7
:10487000501E8241524214409A7A022938D0504246
:104880004241032920D00020012901D1002C37D139
:1048900010BD1006EAD4140B0FD000220134F0E74B
:1048A0009006E3D4140B08D0013402292FD0032939
:1048B00032D0012923D00020EAE70329FBD15A7A1C
:1048C000002A2CD0002405E0597A08200029DFD0E6
:1048D000002ADDD11A7A002A0FD00020002CD7D070
:1048E000DB79002B1DD0A3429B410C201840CFE761
:1048F000197A002901D0002AEFD10520C8E700224B
:10490000DB790F20002BC3D0002AECD0C0E71A7A45
:10491000002AE5D10520BBE75A7A002ADAD108201F
:10492000B6E70F20B4E7C046F0B557464E464546B9
:10493000DE46E0B58DB0994616AB1B88112509936C
:1049400017AB1C78069063425C4164422300AB4382
:104950009A4620239C46E244042A00D8A7E01F3B45
:10496000180010400490134200D1A0E0FF20013A4B
:104970005308DEB24A1C034007920093714A724BFF
:104980007249FE380A9615F0F1FF2123AC43A04688
:104990009C46E044002E00D17FE0002305936C4B41
:1049A000089380239B009B4643460B93059B0798E7
:1049B000590010F0F7FF031E039000D19CE0089B04
:1049C0001E68002E05D00021300010F0EBFF041E01
:1049D00017D101234A46137052464B4602215A70A2
:1049E0004846039A10F0F2FF01234A46137105234B
:1049F000180004930DB0F0BCBB46B246A946A046D1
:104A0000F0BD0221300010F0CDFF04210500300080
:104A100010F0C8FF5B4627001D4243D03300163F0D
:104A2000BFB21633039A36198242CCD11E0080469B
:104A3000AB076DD52A0000210698FFF7F9FE0300A9
:104A4000041E75D1ED0541D5069E424C3088009379
:104A50000022002325680399A847FE2307001B02B4
:104A6000984267D8049A099D1300AA1A92B2308816
:104A700000922468002203994B44A047049B0A9AA1
:104A80009C46604483B20493059B013305939BB21B
:104A90009A4200D98AE70B9B98464B4642460498B7
:104AA0001A70A7E73300083FBFB20833BAE7012303
:104AB0004A4613704B46524602215A70484600221D
:104AC00010F084FF04234A46137190E7FE231B0273
:104AD0009F422FD8049B099A3800D11A89B21C0032
:104AE00011F024F8050002044C4431002000120C9F
:104AF000FDF7EAFEA8B2C1E74A46013313705246F9
:104B00004B4602215A704846002210F05FFF6BE7C7
:104B10000600022401234A4613704B4652460221E6
:104B20005A704846320010F051FF4B461C715EE748
:104B30004646EFE70B9BFCB246469846002CACD0AD
:104B4000E8E7C046341C021066030000401C021057
:104B5000001100200811002010B5040082B00028C8
:104B600008D00378094A012B06D0F7230220084910
:104B700015F0FCFE02B010BDFA230090054901209B
:104B800015F0F4FE044B01341C60F3E7341C0210F2
:104B90007C1C0210D81C021000110020014B186070
:104BA0007047C04608110020014B18607047C0468E
:104BB00014110020002210B5054B82B0008801922C
:104BC00000921C68002100230332A04702B010BDF0
:104BD00014110020F0B54546DE464E465746E0B576
:104BE00099460D78438893B080468B461400049311
:104BF000522D03D8D34AAB00D3589F464A460123CF
:104C00005570137002210022484610F0DFFE062482
:104C10004B461C7105239A46504613B0F0BCBB4668
:104C2000B246A946A046F0BD032C00D12FE20123D5
:104C30004A46137001337CE1052C00D07AE2012151
:104C4000584610F0AFFE80460321584610F0AAFEE9
:104C500043460093DF23040083460190BA4A0120B3
:104C6000BA495B0015F082FEA04501D901F095F824
:104C70004346002B01D101F090F8B54B1D6801238C
:104C80009A46002D01D101F0EDFA00271C00002109
:104C9000280010F087FE061E01D000F00AFCA24694
:104CA000012C01D101F0DEFA05234A461370B3E767
:104CB000062C01D801F057F80121584610F072FE79
:104CC000032180460A90584610F06CFE073C07000E
:104CD00005210990584610F065FEA6B25D4644468F
:104CE000994A9C490C90073502909B4B01200197F3
:104CF000009411950B96089215F038FE31002800AB
:104D000010F022FFBC4200D9C2E3002C00D1BFE367
:104D10008F4B1C68002C01D101F07AFA01239A46CE
:104D200000239B4605938D4B00210F938C4B200055
:104D3000109310F037FE5F465646CB46804600285B
:104D40005FD080239B0099462500BA4602212800A7
:104D500010F028FE04210700280010F023FE4B4627
:104D60004A4604003B40174201D100F037FD42465D
:104D7000163A92B2069216229446AC4462460792C4
:104D80004246AF18002C01D100F037FD0A9AA2422A
:104D900001D900F0F8FE099AA24201D200F0C1FD4B
:104DA000AA1D90465246002A01D000F0BEFD002BFD
:104DB00001D100F019FE6A4B0E930C2240460E9969
:104DC0001CF02EFB002811D114350D950D9A137887
:104DD000002B0BD15378002B08D10C21404610F04A
:104DE000E1FD0C9B834201D100F007FE3D000594DC
:104DF00057462C000021200010F0D4FD80460028EA
:104E00009FD1B246D946002F10D0059C554B0120AA
:104E10005249089A009415F0A9FD514622004846CF
:104E200010F0D4FD534602339BB29A465346012BF1
:104E300001D101F0EDF907234A461370ECE6072C87
:104E400000D18FE1152C01D100F0D7FE01234A4695
:104E5000137007336DE0032C00D075E10121584633
:104E600010F0A0FD8246404B0090374A01203F4998
:104E700015F07CFD5346002B0BD0354B1E68002EE1
:104E800007D00021300010F08DFD041E01D000F08D
:104E9000EBFB01234A46137009332BE0052C00D0AD
:104EA0004DE10121584610F07DFD82460321584610
:104EB00010F078FD534605900190009301202C4B93
:104EC000214A2C4915F052FD5346002B0ED0204BA1
:104ED0001E68002E0AD080239B009B4600213000D4
:104EE00010F060FD041E01D000F00EFC01234A46C4
:104EF00013700B33537002215246484610F066FD82
:104F0000012485E600230193049B22000093594667
:104F10004B464046FFF708FD82467DE6072C00D150
:104F20001CE2152C01D100F064FE01234A461370E7
:104F30000F33537002210022484610F047FD04242D
:104F400066E6C04658560210341C0210F01C0210CF
:104F500000110020281D021025020000781D0210FB
:104F6000A457021041020000E9020000001E0210D6
:104F700023030000281E0210022C01D800F0E4FEDA
:104F80000121584610F00EFD824600280AD0714BD0
:104F90001D68002D06D00021280010F003FD061E1C
:104FA00000D0D5E24A460123137011335370022119
:104FB0005246484610F00AFD01231A0004934B465E
:104FC0001A7105239A4627E6042C01D800F0AFFE9B
:104FD0000121584610F0E6FC03210600584610F067
:104FE000E1FC5D4B069005931B68002B01D100F09E
:104FF000E7FF002E0AD0574B1F68002F06D0002174
:10500000380010F0CFFC051E00D0B0E24A46012364
:1050100013701533537002213200484610F0D6FC4D
:1050200001254B461D7105239A46F5E5012C01D853
:1050300000F05AFF484D2C68002C01D100F0A3FF6E
:105040004B780088002B69D0444E3368002B01D187
:1050500000F0B9FD002500230322002101950095F1
:10506000A0473F4B49461A881D8001230B70173318
:105070004B70484602213478356010F0A7FCC7E534
:10508000012340E7022C1DD800239A46C4E50121E4
:10509000584610F087FC4346998810F047FD0104FC
:1050A000090C172010F048FD4246012393714B462E
:1050B00050801C7001214846528810F087FC032361
:1050C0009A46A9E50121584610F06CFC224B0700D6
:1050D00005931B68002BD7D00028D5D01D4B1D6829
:1050E000002DD1D00021280010F05CFC061ECBD092
:1050F0000221280010F056FC04218146280010F0FF
:1051000051FCAE19874201D100F0A0FE350000210C
:10511000280010F047FC061EB6D0E9E70193009383
:10512000032200230021A04719234A461370183B8D
:105130009A4671E501234A4613700333F9E60123C9
:105140004A4613700B33F4E601234A4613700933C1
:10515000EFE6C046001100201411002004110020C9
:10516000DE280020022302240C930121584610F06F
:1051700019FC032105000890584610F013FC5B460B
:1051800007005E1DE94909900190E94A0120E94BB9
:1051900000950B9615F0EAFB2100300010F0D4FCCE
:1051A000BD4201D900F0ECFD002D01D100F0E8FD79
:1051B000E14B1D68002D00D13DE300230D93013329
:1051C0009A4600230E93049B0021043B9BB20F934D
:1051D00028000233109310F0E5FB041E00D1B5E067
:1051E0000221280010F0DEFB06000421280010F048
:1051F000D9FB802332009B001A40070007921E4211
:1052000000D10AE32300163B9BB2059316239C466C
:10521000AC4463460A932B190693002F00D195E006
:10522000099BBB4200D291E0089BBB4200D985E0BC
:105230000C9BAC1D022B01D100F050FD079B002BF5
:1052400001D000F089FC0B9D0C222800BB491CF00A
:10525000E7F8002872D15B465A46DB7C1332002BFC
:105260006CD15378002B69D10C21280010F09AFBE7
:1052700000210500200010F095FB2D1A6B425D41C6
:10528000E8B200285AD0B30701D400F021FC320064
:1052900000214046FFF7CCFA051E01D001F0D0F8FE
:1052A000802332005B001A4007921E4209D0434619
:1052B0001888A34B00951C68002200233900A047E2
:1052C0000590FE23059A1B029A4201D900F0D8FFEF
:1052D0001300524602339BB2012A01D800F046FC6B
:1052E0000E9A9A4236D1049952448A4201DC00F067
:1052F000A3FD5246022A2DD10E9302230425042435
:105300009A460F9B109A05934B465A703A005146A5
:10531000484610F05BFB079B4D44002B01D100F089
:105320000DFC4346059A1888854B00921E680022A2
:105330002B003900B0472418A3B29A46069D0021DD
:10534000280010F02FFB041E00D049E75346012B24
:1053500000D86CE209234A4613705DE40224022659
:105360000121584610F01EFB804603210E9058463E
:1053700010F018FB049F5A4602974746531D714987
:105380006B4A0D930A90704B01900097012015F025
:10539000EDFA21000D9810F0D7FB0A9B9F4201D92E
:1053A00000F030FC002F01D100F02CFC022E01D1C6
:1053B00000F00BFE614B0C2219000D9810931CF0AD
:1053C0002FF8002801D000F0F5FC5B461322DB7CAF
:1053D0005A441192002B01D000F0ECFC5378002BC2
:1053E00001D000F0E7FC0C210D9810F0DBFA574BD0
:1053F000C3189BB2012B01D900F0DCFC4E4B1F6897
:10540000002F01D100F0A3FF002398460C930693D0
:105410000F9301339A460023554605930021380027
:1054200010F0C0FA041E00D1E5E0AB4605000221F1
:10543000380010F0B7FA04210400380010F0B2FA76
:10544000BA1D079280229200224008928022920088
:105450000300144200D150E22A00163A92B20B9295
:1054600016229446BC44624609927C19002800D05A
:10547000EEE1059B002B00D08AE30021200010F014
:1054800091FA051E00D1CAE3002327009846CEE713
:105490004A460123137005335370022148460A9A85
:1054A00010F094FA01234A46137105239A46FFF738
:1054B000B3FB0221280010F075FA0421824628006F
:1054C00010F070FAAE19021E01D1FFF7E8FB5B463F
:1054D000834201D2FFF7E3FB804500D9B5E280218A
:1054E000534689000B4200D072E1012C00D8E6E25D
:1054F00002239A469F4201D000F0D5FCA31C5344DE
:105500000499994201D200F0CEFC2100484610F0E7
:105510005DFA4B460234A4B21819A91D52463C1933
:10552000FDF7D2F93500A4B2FFF7B1FBC41D02109C
:10553000341C02106702000000110020A457021062
:1055400008110020601E0210E203000000D8FFFFD7
:105550000221280010F026FA04210700280010F08C
:1055600021FAAE19824500D174E3350013E502211A
:10557000380010F017FA04218246380010F012FAB1
:105580007F19864200D03AE553461B0701D400F04C
:10559000E0FC5346DB0501D400F0DBFC5246012160
:1055A0004046FFF745F9051E1AD143461888631F88
:1055B0009BB201935B4605330093059B01221D6856
:1055C0003100069BA847072801D100F06FFC0D2889
:1055D00001D100F06CFE002801D100F06CFCC5B2D6
:1055E0004A46012313701533537002213200484696
:1055F00010F0ECF915E5059B002B2AD00023C346DB
:1056000000279846089309930793290048460F9A64
:1056100010F0DCF9A91C5A46484689B210F0D6F9B8
:105620004B460435ADB25819069B0C991E1F32002B
:10563000FDF74AF9AD19069BADB2049A5B199A427F
:1056400007DB4346002B00D049E20593002F00D032
:10565000E4E6AA465346012B01D100F078FE11235F
:105660004A461370FFF7D8FA0221300010F09AF979
:1056700004210500300010F095F980239B002700DD
:105680001D4200D148E13300163FBFB21633361930
:10569000824501D0FFF7F5FB9B460600AB0701D41E
:1056A00000F00EFE2A0000214046FFF7C1F804007A
:1056B000031E01D000F03AFEED0501D400F029FCF4
:1056C0004246E34C1088009300220023514625688F
:1056D000A847FE2307001B02984201D900F0A5FD50
:1056E00042464B461088049A5146013A92B20092C3
:1056F000246800220133A047013083B29A464A460B
:105700000B231370FFF788FA0221300010F04AF9DA
:1057100004210500300010F045F95B4627001D42CA
:1057200000D1F4E03300163FBFB21633361982457C
:1057300001D0FFF7D3FB9B460600AB0701D400F076
:10574000CCFD2A0000214046FFF772F80400021E3B
:1057500001D000F0F7FD80232C005B001C401D42AF
:1057600009D043461888BA4B00921D6831000023C7
:10577000059AA8470700FE231B029F4201D900F0AB
:105780000FFE059BBB4201D900F010FE0D234A46D7
:1057900013700C3B9A46059BBB4201D3FFF73CFAC2
:1057A0004D4604990135013989B2002C01D100F030
:1057B000DBFD1A0043461888A54B00911C68310098
:1057C0002B00A047030001339BB29A46FFF724FA4F
:1057D000012C00D867E110239A468BE64246083A2E
:1057E00092B2069208229446AC4462460792424620
:1057F000AF18002C01D0FFF7C9FA5346002B00D098
:1058000032E10021380010F0CDF88046002800D1A8
:1058100087E03D000594FFF799FA2300083B9BB20F
:10582000059308239C46AC4463460A93F3E40D9B1E
:10583000002B00D09AE34A460123137007335370BC
:1058400002214846089A10F0C1F80A25FFF7E9FB43
:105850005D469B460E9BA2460600834200D9B0E1FE
:105860000A9B834200D2F4E6059B002B00D139E16C
:10587000089B002B00D1A9E20C22109907981BF07D
:10588000CFFD002804D13C003B7D1434002B21D0F7
:10589000059C10220D9907981BF0C2FD4342584108
:1058A000D84657460999C3B2069A05930C9B0C91AA
:1058B0000599002900D1C5E20B9B04339BB20693E6
:1058C000012D00D802E2934201D000F0A6FD5B4614
:1058D0000F93BBE66378002B00D197E26378002B2F
:1058E000D6D10C21079810F05DF85A4B9842CFD1D1
:1058F000C3465746B0460B9C87E62A00083A92B248
:105900000B9208229446BC4462460992ADE53300EE
:10591000083FBFB2083309E73300083FBFB208337E
:10592000B5E6B246D946FFF781FA002B3ED0109972
:105930000C2240460E911BF073FD002801D0FFF7AA
:1059400055FA14239C46AC4463461A000D932B7DF4
:10595000002B01D0FFF73AFA5378002B00D160E119
:105960000D9B5B78002B01D0FFF730FA0C214046ED
:1059700010F018F8374B984201D0FFF71EFA059B3C
:1059800001203549089A0093344B14F0EFFF3100A1
:10599000059A5846023610F019F8B6B2049A331D2B
:1059A0009A42BED300239A46FFF707FA00214046E9
:1059B0000FF0F8FFA0239B01984200D08BE2059DD9
:1059C000264B01202449089A009514F0CFFF2A00A5
:1059D0003100584602360FF0F9FFB6B2049A331D73
:1059E0009A429ED300239A46002140460FF0DAFFE8
:1059F0000C9B834201D0FFF7F9F90B9B069A934267
:105A000001D0FFF7F3F91A00079911981BF008FD70
:105A1000002801D0FFF7EAF9114B1249089A01302A
:105A2000009414F0A3FF3100220058460FF0CEFF7F
:105A3000002138000FF0B6FF02368046B6B20028CB
:105A400000D1ADE201239A46E3E63500FFF71FF9E6
:105A50000811002001280000781D021041020000FA
:105A6000510200009C1D0210059DE24B0120089A86
:105A70000F99009514F07AFF2A003100584602363B
:105A80000FF0A4FFB6B2049A331D934200D948E741
:105A9000002138000FF086FF8046002800D140E743
:105AA00000239A46B5E6012C00D00BE11021142307
:105AB00010278A460E3948460224417020E5012C01
:105AC00000D0FFE0022106238A4602270139F2E7CF
:105AD0000D9B002B00D031E4069D0D972FE4BA46B4
